:0600000000F025EF08F0FE
:10000800FFFF5C82D9CF54F0DACF55F0F6CF56F027
:10001800F7CF57F0F8CF58F0F5CF59F09DAA17EF62
:1000280000F01AEF00F0FFFFA0EF04F0FFFF9EAA18
:1000380020EF00F023EF00F0FFFFA0EF04F0FFFF38
:1000480043EC08F05A6E69EF04F0FFFF350EC7EC79
:100058000AF0000E3E6E15EF08F0FFFF300EC7ECF9
:100068000AF0560E0001746F320E756F300E766FFF
:10007800000E806F300E2BEC0AF015EF08F0FFFF32
:10008800310EC7EC0AF015EF08F0FFFF320EC7EC8F
:100098000AF015EF08F0FFFF330EC7EC0AF0BFECCB
:1000A80009F00001746FB2EC0AF00A0E526E940E59
:1000B800FFFFE82EFDD7522EFBD7090E9BEC0AF066
:1000C80039C075F03AC076F03BC077F03CC078F0A4
:1000D8000A0E526E940EFFFFE82EFDD7522EFBD764
:1000E8000A0E9BEC0AF039C079F03AC07AF03BC0AE
:1000F8007BF03CC07CF0000E0001806F330E2BECCF
:100108000AF015EF08F0FFFF340EC7EC0AF015EF00
:1001180008F0FFFF360EC7EC0AF00C0E816E440E95
:10012800526E100EFFFFE82EFDD7522EFBD700D0DF
:10013800000E0001706F000E716F000E726F000EDE
:10014800736F800EFFEC0AF0000E426E000EB1ECE9
:1001580008F0000E5B6EFFFF800EFFEC0AF0000E49
:10016800426E010EB1EC08F042C060F043C061F08D
:1001780044C062F045C063F0000160517025706FA3
:1001880061517121716F62517221726F63517321D4
:10019800736F5B2A040E5B64D4EF00F0D7EF00F0B6
:1001A800FFFFAFEF00F0FFFF70C040F071C041F0FB
:1001B80072C042F073C043F0050E446E000E456EE7
:1001C800000E466E000E476E1BEC09F040C060F052
:1001D80041C061F042C062F043C063F060C041F0CA
:1001E80061C042F062C043F063C044F0EDEC0AF035
:1001F80015EF08F0FFFF370EC7EC0AF015EF08F00F
:10020800FFFF380EC7EC0AF015EF08F0FFFF8A8EE3
:100218008984100ED76E000ED66E840ED56EF294B9
:10022800F28AF298000E3D6E000E3E6E390EC7EC53
:100238000AF04F0E416E100E426E78EC0AF0C00EB6
:10024800FFEC0AF022EC0BF0380E816E440E526E71
:10025800100EFFFFE82EFDD7522EFBD700D0000E60
:10026800356E000E366E000E376E000E386E000EBC
:10027800426E000EB1EC08F0000E5B6EFFFF000E40
:10028800426E010EB1EC08F042C015F043C016F002
:1002980044C017F045C018F015503524356E165077
:1002A8003620366E17503720376E18503820386E83
:1002B8005B2A040E5B6463EF01F066EF01F0FFFF59
:1002C80042EF01F0FFFF22EC0BF0180E816E440E96
:1002D800526E100EFFFFE82EFDD7522EFBD700D02E
:1002E800000E316E000E326E000E336E000E346E4C
:1002F800000E426E000EB1EC08F0000E5B6EFFFFC0
:10030800000E426E010EB1EC08F042C011F043C07D
:1003180012F044C013F045C014F011503124316E6E
:1003280012503220326E13503320336E1450342062
:10033800346E5B2A040E5B64A4EF01F0A7EF01F0B2
:10034800FFFF83EF01F0FFFF22EC0BF0280E816E18
:10035800440E526E100EFFFFE82EFDD7522EFBD72B
:1003680000D0000E2D6E000E2E6E000E2F6E000EA9
:10037800306E000E426E000EB1EC08F0000E5B6E9F
:10038800FFFF000E426E010EB1EC08F042C00DF006
:1003980043C00EF044C00FF045C010F00D502D249E
:1003A8002D6E0E502E202E6E0F502F202F6E1050B7
:1003B8003020306E5B2A040E5B64E5EF01F0E8EF55
:1003C80001F0FFFFC4EF01F0FFFF22EC0BF0080E75
:1003D800816E440E526E100EFFFFE82EFDD7522E8E
:1003E800FBD700D0000E296E000E2A6E000E2B6E71
:1003F800000E2C6E000E426E000EB1EC08F0000EDE
:100408005B6EFFFF000E426E010EB1EC08F042C0B9
:1004180009F043C00AF044C00BF045C00CF0095085
:100428002924296E0A502A202A6E0B502B202B6E65
:100438000C502C202C6E5B2A040E5B6426EF02F015
:1004480029EF02F0FFFF05EF02F0FFFF22EC0BF0AF
:10045800040E816E440E526E100EFFFFE82EFDD77B
:10046800522EFBD700D0000E256E000E266E000E11
:10047800276E000E286E000E426E000EB1EC08F0DA
:10048800000E5B6EFFFF000E426E010EB1EC08F02D
:1004980042C005F043C006F044C007F045C008F06C
:1004A80005502524256E06502620266E0750272045
:1004B800276E08502820286E5B2A040E5B6467EFBD
:1004C80002F06AEF02F0FFFF46EF02F0FFFF22ECB6
:1004D8000BF0340E816E440E526E100EFFFFE82EA4
:1004E800FDD7522EFBD700D0000E216E000E226ED3
:1004F800000E236E000E246E000E426E000EB1EC4C
:1005080008F0000E5B6EFFFF000E426E010EB1ECAC
:1005180008F042C001F043C002F044C003F045C0F7
:1005280004F001502124216E02502220226E035033
:100538002320236E04502420246E5B2A040E5B645F
:10054800A8EF02F0ABEF02F0FFFF87EF02F0FFFF2A
:1005580022EC0BF0140E816E440E526E100EFFFF4B
:10056800E82EFDD7522EFBD700D0000E1D6E000ED0
:100578001E6E000E1F6E000E206E000E426E000EE4
:10058800B1EC08F0000E5B6EFFFF000E426E010E2C
:10059800B1EC08F042C068F043C069F044C06AF0AA
:1005A80045C06BF0000168511D241D6E69511E2065
:1005B8001E6E6A511F201F6E6B512020206E5B2A11
:1005C800040E5B64EAEF02F0EDEF02F0FFFFC8EF04
:1005D80002F0FFFF22EC0BF0240E816E440E526EE7
:1005E800100EFFFFE82EFDD7522EFBD700D0000ECD
:1005F800196E000E1A6E000E1B6E000E1C6E000E99
:10060800426E000EB1EC08F0000E5B6EFFFF000EAC
:10061800426E010EB1EC08F042C064F043C065F0D0
:1006280044C066F045C067F0000164511924196E92
:1006380065511A201A6E66511B201B6E67511C20CB
:100648001C6E5B2A040E5B642CEF03F02FEF03F0A3
:10065800FFFF0AEF03F0FFFF35C040F036C041F05E
:1006680037C042F038C043F0050E446E000E456EA8
:10067800000E466E000E476E1BEC09F040C015F0E8
:1006880041C016F042C017F043C018F031C040F026
:1006980032C041F033C042F034C043F0050E446E1E
:1006A800000E456E000E466E000E476E1BEC09F0FC
:1006B80040C011F041C012F042C013F043C014F022
:1006C8002DC040F02EC041F02FC042F030C043F0A2
:1006D800050E446E000E456E000E466E000E476E07
:1006E8001BEC09F040C00DF041C00EF042C00FF005
:1006F80043C010F029C040F02AC041F02BC042F09E
:100708002CC043F0050E446E000E456E000E466E7A
:10071800000E476E1BEC09F040C009F041C00AF01A
:1007280042C00BF043C00CF025C040F026C041F099
:1007380027C042F028C043F0050E446E000E456EF7
:10074800000E466E000E476E1BEC09F040C005F027
:1007580041C006F042C007F043C008F021C040F095
:1007680022C041F023C042F024C043F0050E446E7D
:10077800000E456E000E466E000E476E1BEC09F02B
:1007880040C001F041C002F042C003F043C004F091
:100798001DC040F01EC041F01FC042F020C043F011
:1007A800050E446E000E456E000E466E000E476E36
:1007B8001BEC09F040C068F041C069F042C06AF023
:1007C80043C06BF019C040F01AC041F01BC042F0A2
:1007D8001CC043F0050E446E000E456E000E466EBA
:1007E800000E476E1BEC09F040C064F041C065F094
:1007F80042C066F043C067F07D0E416E100E426E37
:1008080078EC0AF03D5011EC0BF015C041F016C021
:1008180042F017C043F018C044F0EDEC0AF011C0E4
:1008280041F012C042F013C043F014C044F0EDECA4
:100838000AF00DC041F00EC042F00FC043F010C0E6
:1008480044F0EDEC0AF009C041F00AC042F00BC0D8
:1008580043F00CC044F0EDEC0AF005C041F006C0CE
:1008680042F007C043F008C044F0EDEC0AF001C0C4
:1008780041F002C042F003C043F004C044F0EDEC84
:100888000AF068C041F069C042F06AC043F06BC02A
:1008980044F0EDEC0AF064C041F065C042F066C077
:1008A80043F067C044F0EDEC0AF0640E416E100EA0
:1008B800426E78EC0AF0899415EF08F0FFFF580EA5
:1008C800C7EC0AF0AB8815EF08F0FFFF5A50526EDC
:1008D800536A5350000AD8B474EF04F062EF04F07E
:1008E800FFFF5250300AD8B431EF00F0010AD8B4F3
:1008F80043EF00F0030AD8B449EF00F0010AD8B476
:100908004FEF00F0070AD8B487EF00F0010AD8B417
:1009180029EF00F0030AD8B48DEF00F0010AD8B42B
:10092800FEEF00F00F0AD8B404EF01F0010AD8B4C2
:100938000AEF01F062EF04F0FFFFF2AAA6EF04F05D
:10094800A9EF04F0FFFF15EF08F0FFFFF2A4AFEFE7
:1009580004F0B2EF04F0FFFF15EF08F0FFFF898401
:10096800F294100ED76E000ED66E3D2A22EC0BF0D4
:10097800380E816E440E526E100EFFFFE82EFDD722
:10098800522EFBD700D0000E356E000E366E000ECC
:10099800376E000E386E000E426E000EB1EC08F095
:1009A800000E5B6EFFFF000E426E010EB1EC08F008
:1009B80042C015F043C016F044C017F045C018F007
:1009C80015503524356E16503620366E17503720A0
:1009D800376E18503820386E5B2A040E5B64F7EFC8
:1009E80004F0FAEF04F0FFFFD6EF04F0FFFF22EC6B
:1009F8000BF0180E816E440E526E100EFFFFE82E9B
:100A0800FDD7522EFBD700D0000E316E000E326E8D
:100A1800000E336E000E346E000E426E000EB1EC06
:100A280008F0000E5B6EFFFF000E426E010EB1EC87
:100A380008F042C011F043C012F044C013F045C0A2
:100A480014F011503124316E12503220326E13508E
:100A58003320336E14503420346E5B2A040E5B64EA
:100A680038EF05F03BEF05F0FFFF17EF05F0FFFF4C
:100A780022EC0BF0280E816E440E526E100EFFFF12
:100A8800E82EFDD7522EFBD700D0000E2D6E000E9B
:100A98002E6E000E2F6E000E306E000E426E000E8F
:100AA800B1EC08F0000E5B6EFFFF000E426E010E07
:100AB800B1EC08F042C00DF043C00EF044C00FF096
:100AC80045C010F00D502D242D6E0E502E202E6E88
:100AD8000F502F202F6E10503020306E5B2A040EDE
:100AE8005B6479EF05F07CEF05F0FFFF58EF05F048
:100AF800FFFF22EC0BF0080E816E440E526E100EB2
:100B0800FFFFE82EFDD7522EFBD700D0000E296E2E
:100B1800000E2A6E000E2B6E000E2C6E000E426E1A
:100B2800000EB1EC08F0000E5B6EFFFF000E426E87
:100B3800010EB1EC08F042C009F043C00AF044C00D
:100B48000BF045C00CF009502924296E0A502A20C0
:100B58002A6E0B502B202B6E0C502C202C6E5B2AEF
:100B6800040E5B64BAEF05F0BDEF05F0FFFF99EFE7
:100B780005F0FFFF22EC0BF0040E816E440E526E5E
:100B8800100EFFFFE82EFDD7522EFBD700D0000E27
:100B9800256E000E266E000E276E000E286E000EC3
:100BA800426E000EB1EC08F0000E5B6EFFFF000E07
:100BB800426E010EB1EC08F042C005F043C006F0E9
:100BC80044C007F045C008F005502524256E06509E
:100BD8002620266E07502720276E08502820286ECA
:100BE8005B2A040E5B64FBEF05F0FEEF05F0FFFFE8
:100BF800DAEF05F0FFFF22EC0BF0340E816E440EA5
:100C0800526E100EFFFFE82EFDD7522EFBD700D0F4
:100C1800000E216E000E226E000E236E000E246E52
:100C2800000E426E000EB1EC08F0000E5B6EFFFF86
:100C3800000E426E010EB1EC08F042C001F043C054
:100C480002F044C003F045C004F001502124216E95
:100C580002502220226E03502320236E04502420A9
:100C6800246E5B2A040E5B643CEF06F03FEF06F04F
:100C7800FFFF1BEF06F0FFFF22EC0BF0140E816E56
:100C8800440E526E100EFFFFE82EFDD7522EFBD7F2
:100C980000D0000E1D6E000E1E6E000E1F6E000EA0
:100CA800206E000E426E000EB1EC08F0000E5B6E76
:100CB800FFFF000E426E010EB1EC08F042C068F072
:100CC80043C069F044C06AF045C06BF00001685148
:100CD8001D241D6E69511E201E6E6A511F201F6E35
:100CE8006B512020206E5B2A040E5B647EEF06F0B9
:100CF80081EF06F0FFFF5CEF06F0FFFF22EC0BF040
:100D0800240E816E440E526E100EFFFFE82EFDD7A2
:100D1800522EFBD700D0000E196E000E1A6E000E70
:100D28001B6E000E1C6E000E426E000EB1EC08F039
:100D3800000E5B6EFFFF000E426E010EB1EC08F074
:100D480042C064F043C065F044C066F045C067F037
:100D5800000164511924196E65511A201A6E6651E2
:100D68001B201B6E67511C201C6E5B2A040E5B64E3
:100D7800C0EF06F0C3EF06F0FFFF9EEF06F0FFFF9F
:100D880035C040F036C041F037C042F038C043F0BB
:100D9800050E446E000E456E000E466E000E476E40
:100DA8001BEC09F040C015F041C016F042C017F026
:100DB80043C018F031C040F032C041F033C042F0B7
:100DC80034C043F0050E446E000E456E000E466EAC
:100DD800000E476E1BEC09F040C011F041C012F044
:100DE80042C013F043C014F02DC040F02EC041F0B3
:100DF8002FC042F030C043F0050E446E000E456E21
:100E0800000E466E000E476E1BEC09F040C00DF058
:100E180041C00EF042C00FF043C010F029C040F0AE
:100E28002AC041F02BC042F02CC043F0050E446E9E
:100E3800000E456E000E466E000E476E1BEC09F064
:100E480040C009F041C00AF042C00BF043C00CF0AA
:100E580025C040F026C041F027C042F028C043F02A
:100E6800050E446E000E456E000E466E000E476E6F
:100E78001BEC09F040C005F041C006F042C007F085
:100E880043C008F021C040F022C041F023C042F026
:100E980024C043F0050E446E000E456E000E466EEB
:100EA800000E476E1BEC09F040C001F041C002F093
:100EB80042C003F043C004F01DC040F01EC041F022
:100EC8001FC042F020C043F0050E446E000E456E70
:100ED800000E466E000E476E1BEC09F040C068F02D
:100EE80041C069F042C06AF043C06BF019C040F0DD
:100EF8001AC041F01BC042F01CC043F0050E446EFE
:100F0800000E456E000E466E000E476E1BEC09F093
:100F180040C064F041C065F042C066F043C067F06D
:100F28007D0E416E100E426E78EC0AF03D5011ECC9
:100F38000BF015C041F016C042F017C043F018C0BE
:100F480044F0EDEC0AF011C041F012C042F013C0B9
:100F580043F014C044F0EDEC0AF00DC041F00EC0AF
:100F680042F00FC043F010C044F0EDEC0AF009C0A5
:100F780041F00AC042F00BC043F00CC044F0EDEC65
:100F88000AF005C041F006C042F007C043F008C0AF
:100F980044F0EDEC0AF001C041F002C042F003C099
:100FA80043F004C044F0EDEC0AF068C041F069C0B9
:100FB80042F06AC043F06BC044F0EDEC0AF064C044
:100FC80041F065C042F066C043F067C044F0EDEC04
:100FD8000AF0640E416E100E426E78EC0AF08994A5
:100FE800040E3D18D8A4FBEF07F0FEEF07F0FFFF53
:100FF80015EF08F0FFFFF29A8A9E3E04D8A407EF87
:1010080008F00AEF08F0FFFF0FEF08F0FFFFF29279
:10101800F28815EF08F0FFFFFF0E426E000EB1ECEC
:1010280008F0FFFF59C0F5FF58C0F8FF57C0F7FF99
:1010380056C0F6FF55C0DAFF54C0D9FF5C921100C4
:10104800FFFF55EF0AF000472D4A524F44415445DF
:101058005858585858585858585858580A0D004E03
:101068004E4E4E4A524F434D44004E4E4E4E4A52FB
:0D1078004F444154004A524F414451000082
:10108600FFFF000E436EFFFF7AEC09F0446E4A0E36
:101096004418D8A451EF08F054EF08F0FFFF57EFBB
:1010A60008F0FFFF62EF08F0FFFF432A090E4364D2
:1010B6005FEF08F062EF08F0FFFF46EF08F0FFFF72
:1010C6000A0E436069EF08F06CEF08F0FFFFABEF24
:1010D60008F0FFFF7AEC09F0446E520E4418D8A4CB
:1010E60077EF08F07AEF08F0FFFFABEF08F0FFFFAD
:1010F6007AEC09F0446E4F0E4418D8A485EF08F038
:1011060088EF08F0FFFFABEF08F0FFFF7AEC09F07D
:10111600446E430E4418D8A493EF08F096EF08F0F7
:10112600FFFFABEF08F0FFFF7AEC09F0446E7AECB4
:1011360009F0446E7AEC09F00001806F7AEC09F050
:10114600446E7AEC09F0446E00018051AEEF08F06F
:10115600FFFFAB98580EFFFF1200FFFFFFFF4A6E1E
:10116600FFFF82B8B9EF08F0BCEF08F0FFFFB3EF5E
:1011760008F0FFFF42509BEC0AF039C04BF03AC032
:101186004CF03BC04DF0000E4E6E000E4F6E000E42
:10119600506E000E516E4A50D8B4D4EF08F0D7EF17
:1011A60008F0FFFF10EF09F0FFFF4BC046F0476A5B
:1011B600486A496A47C049F046C048F0476A466AE5
:1011C6004E5046104E6E4F5047104F6E50504810BE
:1011D600506E51504910516E4CC046F0476A486AED
:1011E600496A48C049F047C048F046C047F0466AD9
:1011F6004E5046104E6E4F5047104F6E505048108E
:10120600506E51504910516E4E504D104E6E4F500B
:101216004F6E5050506E5150516EFFFF4EC042F00F
:101226004FC043F050C044F051C045F01200FFFFDC
:10123600FFFF000E486E000E496E000E4A6E000E4D
:101246004B6E4450451046104710D8B42DEF09F0A8
:1012560030EF09F0FFFF6FEF09F0FFFF010E4C6E54
:101266003CEF09F0FFFFD890443645364636473600
:101276004C2AFFFF47AE42EF09F045EF09F0FFFFAA
:1012860035EF09F0FFFFFFFFD890483649364A365A
:101296004B364450405C45504158465042584750A2
:1012A6004358D8A059EF09F05CEF09F0FFFF66EF4D
:1012B60009F0FFFF4450405E4550415A4650425A9D
:1012C6004750435A4880FFFFD8904732463245324E
:1012D60044324C2E46EF09F0FFFF48C040F049C0AB
:1012E60041F04AC042F04BC043F01200FFFFFFFF3F
:1012F600000E416E4268000ECC6ECA84ADEF09F056
:10130600FFFF9EBA89EF09F08CEF09F0FFFF95EF1A
:1013160009F0FFFF9EA292EF09F095EF09F0FFFF9B
:1013260083EF09F0FFFF9E92412A9EBA9DEF09F0D6
:10133600A0EF09F0FFFFAAEF09F0FFFF030E4164DB
:10134600A7EF09F0AAEF09F0FFFFADEF09F0FFFFE5
:10135600000E426EFFFF4250D8A4B4EF09F0B7EF7B
:1013660009F0FFFF83EF09F0FFFF9E92CA94AECF0C
:1013760040F040501200FFFFFFFF000E436EFFFFDC
:10138600FF0EFFEC0AF0432A0E0E4364CDEF09F080
:10139600D0EF09F0FFFFC2EF09F0FFFFFE0EFFECF2
:1013A6000AF0140E426E280EFFFFE82EFDD7422EDD
:1013B600FBD700D00B0E9BEC0AF0398A030EDAEC51
:1013C6000AF03D0EFFFFE82EFDD700F0399A030E16
:1013D600DAEC0AF03D0EFFFFE82EFDD700F00B0E0B
:1013E6009BEC0AF039501200FFFFFFFFC150F00BD3
:1013F6000709C16E000E896E000E8A6E000E8B6E96
:10140600010E926E010E936E000E946E040E000194
:10141600826FBF0E816F1D0EFFFFE82EFDD7812F55
:10142600FBD7822FF9D700F033EC0BF056EC0BF01C
:1014360042EC0BF05AEC0BF0D09E000EF26EF28CE2
:10144600F28E89948A9EFFFF26EF0AF025EF08F0B8
:10145600FFFF436E720E416E100E426E78EC0AF07C
:10146600435011EC0BF0000E446EFFFF740E442443
:10147600D96EDA6A000EDA22DF5011EC0BF0442A3C
:101486000B0E446449EF0AF04CEF0AF0FFFF38EF09
:101496000AF0FFFF640E416E100E426E78EC0AF001
:1014A6001200FFFF9E0EF66E160EF76E000EF86E19
:1014B60000EE74F010EE0DF00900F5CFEEFFE550EA
:1014C600E150FAE100EE60F0140EEE6AE806FDE186
:1014D60000EE01F03F0EEE6AE806FDE15C905C92DC
:1014E600000EF86E0001F8EF09F0FFFF87EF0AF033
:1014F600FFFF41C0F6FF42C0F7FF0800FFFFF550AF
:1015060011EC0BF0414A422AFFFF41C0F6FF42C0F0
:10151600F7FF0800FFFFF5500009D8A495EF0AF081
:1015260098EF0AF0FFFF7BEF0AF0FFFF1200FFFFC4
:10153600FFFF416E4150FFEC0AF0000EFFEC0AF08F
:10154600396E000EFFEC0AF03A6E000EFFEC0AF060
:101556003B6E000EFFEC0AF03C6E1200FFFFFFFF31
:101566000B0E9BEC0AF03982030EDAEC0AF0050E3C
:10157600396E000E3A6E050E3B6E000E3C6E050E81
:10158600DAEC0AF01200FFFFFFFF436E670E416EB2
:10159600100E426E78EC0AF0435011EC0BF0640E1C
:1015A600416E100E426E78EC0AF01200FFFFFFFF4C
:1015B600416E4150FFEC0AF03950FFEC0AF03A5008
:1015C600FFEC0AF03B50FFEC0AF03C50FFEC0AF04F
:1015D6001200FFFFFFFF43C047F042C046F041C084
:1015E60045F0455011EC0BF0465011EC0BF047500E
:1015F60011EC0BF01200FFFFFFFF406EC95040C018
:10160600C9FFFFFFC7A00AEF0BF00DEF0BF0FFFFBE
:1016160004EF0BF0FFFFC9501200FFFFFFFF406E03
:1016260040C0ADFF00F0FFFFACA21CEF0BF01FEFB8
:101636000BF0FFFF16EF0BF0FFFF1200FFFFFFFF9F
:101646000C0E816EC40EFFFF00F0E82EFCD700D012
:1016560000F0000E426E000EB1EC08F01200FFFF23
:10166600FFFF949C948E240EAC6E100EAB6E3F0E54
:10167600AF6E9D8A7B0ECA6ECB681200FFFFFFFF1E
:1016860094969488949AC79EC78CC698C650F00BB9
:101696000209C66E1200FFFF585858585858585835
:0516A6005858585800DF
:1016AC00FFFFAB8E1200FFFFFFFFC68A1200FFFF89
:1016BC00FFFFAB9E1200FFFFFFFFC69A1200FFFF59
:0216CC00FFFF1E
:020000040020DA
:08000000FFFFFFFFFFFFFFFF00
:020000040030CA
:04000000FF260E0EBB
:0800060080FF0FC00FE00F4066
:00000001FF
