:04000000EBEF1EF014
:103DD6000001EEEF1EF00F0EC112000E926E000EE5
:103DE600936E000E946E010E896E000E8A6E000EA2
:103DF6008B6ED09E000EF26E80A004EF1FF007EFD0
:103E06001FF0898008EF1FF0899080A20DEF1FF048
:103E160010EF1FF0898211EF1FF08992100E026ECB
:103E2600390E016E0E0EE82EFED7012EFCD7022E9D
:0A3E3600FAD7FFEF1EF000EF00F0D6
:020000040020DA
:08000000FFFFFFFFFFFFFFFF00
:020000040030CA
:0E000000030E181EFF8080FF034003600340C4
:00000001FF
