:04000000F6EF2DF0FA
:105B0600400E1200800E1200C5809EA68DEF2DF06D
:105B16008FEF2DF088EF2DF09E961200C5849EA67D
:105B260097EF2DF099EF2DF092EF2DF09E96120043
:105B3600016E01C0C9FF9EA6A3EF2DF0A5EF2DF0C3
:105B46009EEF2DF09E96C5501200000E016E040EBB
:105B5600026E000E046E000E036E040E066E000E3C
:105B6600056E5DEC30F01200026E87EC2DF0780EBB
:105B76009BEC2DF0000E9BEC2DF002509BEC2DF0D3
:105B860091EC2DF0120009500B02F3CF0DF0F4CF7B
:105B96000EF009500C02F3500E260A500B02F35079
:105BA6000E260DC009F00EC00AF0120001C003F067
:105BB60002C004F0E1EF2DF0014A022A01C0F6FF0F
:105BC60002C0F7FF0800F5500009D8A4EDEF2DF04C
:105BD600EFEF2DF0DFEF2DF00350015C016E045066
:105BE6000258026E1200BC0EF66E670EF76E000EBD
:105BF600F86E04EE00F014EE00F00900F5CFEEFFAB
:105C0600E550E150FAE1E250F8E100EE3AF0070E15
:105C1600EE6AE806FDE1000EF86E0001DCEF2FF0FB
:105C2600016E9382938001C0C7FF280EC66E000ED8
:105C3600C56E800E0118D8A423EF2EF025EF2EF0A6
:105C460029EF2EF0770EC86E33EF2EF00150D8A450
:105C56002FEF2EF031EF2EF033EF2EF01D0EC86E23
:105C6600120001C03AF002C03BF001C0F6FF02C0CC
:105C7600F7FF0800F5CF3CF0010E0124036E000E7D
:105C86000220046E03C0F6FF04C0F7FF0800F5CF3C
:105C96003DF0020E0124036E000E0220046E03C0C6
:105CA600F6FF04C0F7FF0800F5CF3EF0030E01240F
:105CB600036E000E0220046E03C0F6FF04C0F7FF59
:105CC6000800F5CF3FF0000E406E1200000E036E86
:105CD600210EB7EC2DF0000EB7EC2DF07F0EB7ECD1
:105CE6002DF0220EB7EC2DF0000EB7EC2DF0070EBE
:105CF600B7EC2DF0000E056E000E046E87EC2DF04D
:105D0600780E9BEC2DF0400E9BEC2DF0000E036EF2
:105D1600000E0424D96E040E0520DA6EDF509BECCB
:105D26002DF0044A052A032A0F0E03649DEF2EF078
:105D36009FEF2EF08BEF2EF00406D8A0050691EC0F
:105D46002DF0044A052A040E055CD8A0ADEF2EF00E
:105D5600AFEF2EF081EF2EF01200070E0E6E170E2B
:105D66000D6E6A0EE82EFED70D2EFCD70E2EFAD734
:105D760000D0AE0EB7EC2DF0D50EB7EC2DF0800EA0
:105D8600B7EC2DF0A80EB7EC2DF03F0EB7EC2DF0CA
:105D9600D30EB7EC2DF0000EB7EC2DF0400EB7EC9D
:105DA6002DF08D0EB7EC2DF0140EB7EC2DF0200E65
:105DB600B7EC2DF0000EB7EC2DF0A10EB7EC2DF0E0
:105DC600C80EB7EC2DF0DA0EB7EC2DF0120EB7ECCC
:105DD6002DF0810EB7EC2DF0CF0EB7EC2DF0D90ECD
:105DE600B7EC2DF0F10EB7EC2DF0DB0EB7EC2DF085
:105DF600400EB7EC2DF0A40EB7EC2DF0A60EB7ECC6
:105E06002DF02E0EB7EC2DF0AF0EB7EC2DF0A8EC62
:105E16002DF069EC2EF01200000E066E04BE18EF8F
:105E26002FF016EF2FF01EEF2FF0036C041ED8B0E4
:105E3600042A010E066E02BE25EF2FF023EF2FF087
:105E46002BEF2FF0016C021ED8B0022A010E061AA3
:105E5600000E086E000E076E03500410D8B436EF1D
:105E66002FF038EF2FF060EF2FF0010E056E40EFA8
:105E76002FF0D89003360436052A04AE45EF2FF0EE
:105E860047EF2FF03CEF2FF0D89007360836035037
:105E9600015C04500258D8A053EF2FF055EF2FF0B5
:105EA6005AEF2FF00350015E0450025A0780D89033
:105EB60004320332052E47EF2FF00650D8B466EFB2
:105EC6002FF068EF2FF06CEF2FF0076C081ED8B09C
:105ED600082A07C001F008C002F0120032C001F023
:105EE60033C002F0D9EC2DF00150376EFE0E2E189D
:105EF6002F10D8A481EF2FF083EF2FF091EF2FF022
:105F060037503C02F3CF34F0F4CF35F034508008EC
:105F16002E6E3550D8A0E82A00082F6E2E282F1096
:105F2600D8A498EF2FF09AEF2FF0B2EF2FF037505A
:105F36003C02F3CF34F0F4CF35F034508008016ED4
:105F46003550D8A0E82A0008026E000E046E020E34
:105F5600036E0FEC2FF001C02EF002C02FF0000EE2
:105F6600366ED2EF2FF036503C02F3CF34F0F4CF3A
:105F760035F02E503424136E2F503520146E30C059
:105F860015F031C016F032C0F6FF33C0F7FF080037
:105F9600F5CF17F0F8EC31F0324A332A362A37506B
:105FA600365CD8A0D9EF2FF0DBEF2FF0B6EF2FF04D
:105FB60012000F0EC112000E13EC2EF0B0EC2EF0F4
:105FC600950E016E7D0E026E34EC2EF0000E2F6ED5
:105FD600100E2E6E000E316E0A0E306EDA0E326E16
:105FE6007F0E336E71EC2FF069EC2EF05C0E396E7D
:105FF600510E386E600EE82EFED7382EFCD7392E9D
:10600600FAD700D0A10E016E770E026E34EC2EF098
:10601600000E2F6E0A0E2E6E000E316E140E306EAE
:10602600EB0E326E7F0E336E71EC2FF069EC2EF0B4
:106036005C0E396E510E386E600EE82EFED7382E85
:10604600FCD7392EFAD700D0BD0E016E6B0E026E4C
:1060560034EC2EF0000E2F6E280E2E6E000E316ED2
:10606600280E306EFA0E326E7F0E336E71EC2FF004
:1060760069EC2EF05C0E396E510E386E600EE82E0D
:10608600FED7382EFCD7392EFAD700D0A8EC2DF043
:1060960069EC2EF01F0E396E710E386E1E0EE82E4C
:1060A600FED7382EFCD7392EFAD700D0E3EF2FF0E3
:1060B60000EF00F001C00BF002C00CF00550061016
:1060C600D8A468EF30F06AEF30F06CEF30F017EFDD
:1060D60031F00BC0D9FF0CC0DAFF03C0DFFF05505B
:1060E6000B24076E06500C20086EFF0E0724D96E8F
:1060F600FF0E0820DA6E03C0DFFF065007E1030E2D
:10610600055CD8B089EF30F08BEF30F08DEF30F0D2
:1061160017EF31F020EE01F00B50D9260C50DA22A1
:1061260003C0DFFF20EE02F00B50D9260C50DA2216
:1061360003C0DFFF05500B24076E06500C20086EC7
:10614600FE0E0724D96EFF0E0820DA6E03C0DFFFAD
:1061560005500B24076E06500C20086EFD0E072412
:10616600D96EFF0E0820DA6E03C0DFFF065007E186
:10617600070E055CD8B0C2EF30F0C4EF30F0C6EFC2
:1061860030F017EF31F020EE03F00B50D9260C500B
:10619600DA2203C0DFFF05500B24076E06500C20E1
:1061A600086EFC0E0724D96EFF0E0820DA6E03C0B7
:1061B600DFFF065007E1090E055CD8B0E5EF30F0C9
:1061C600E7EF30F0E9EF30F017EF31F00BC007F0F2
:1061D6000CC008F0071E081E074A082A030E0714FB
:1061E600096E0A6A09500B260A500C220950055EF0
:1061F6000A50065AFC0E0516FF0E06160EEF31F073
:106206000BC0D9FF0CC0DAFF03C0DFFF0506D8A01C
:1062160006060B4A0C2A05500610D8A415EF31F0D5
:1062260017EF31F003EF31F012000ABE1DEF31F027
:106236001FEF31F0F7EF31F085EC2DF00E6E0F6A9F
:106246000E50095C0A50800A106E0F50800A1058D2
:10625600D8B030EF31F032EF31F0F7EF31F00CBE5D
:1062660037EF31F039EF31F0F7EF31F083EC2DF005
:106276000E6E0F6A0E500B5C0C50800A106E0F509B
:10628600800A1058D8A04AEF31F04CEF31F0DEEF1B
:1062960031F0F7EF31F00BC00EF0070E0E16010EBF
:1062A6000F6E0E2A59EF31F0D8900F360E2E57EF9B
:1062B60031F00BC001F00CC002F0000E046E080EA7
:1062C600036E0FEC2FF0070ED89001360236E82E3B
:1062D60067EF31F0000E0124106E040E0220116EDD
:1062E60009501024D96E0A501120DA6E0F50DF12B1
:1062F600F7EF31F00BC00EF0070E0E16010E0F6E03
:106306000E2A88EF31F0D8900F360E2E86EF31F038
:106316000F50FF0A106E0BC001F00CC002F0000E09
:10632600046E080E036E0FEC2FF0070ED8900136A0
:106336000236E82E99EF31F0000E0124116E040E9C
:106346000220126E09501124D96E0A501220DA6EFC
:106356001050DF16F7EF31F00BC00EF0070E0E16D9
:10636600010E0F6E0E2ABAEF31F0D8900F360E2EB0
:10637600B8EF31F00BC001F00CC002F0000E046E55
:10638600080E036E0FEC2FF0070ED890013602367A
:10639600E82EC8EF31F0000E0124106E040E022024
:1063A600116E09501024D96E0A501120DA6E0F5062
:1063B600DF1AF7EF31F00D500E6E0F6A0F50000A1C
:1063C600D8B4E8EF31F0F7EF31F00E50000AD8B448
:1063D6007DEF31F0010AD8B44EEF31F0030AD8B49C
:1063E600AFEF31F0F7EF31F01200000E2A6E000E1B
:1063F600296E000E2C6E000E2B6E000E1E6E000E09
:106406001D6E3DC018F0070E1816D8A40DEF32F019
:106416000FEF32F009EF33F03CC009F00A6A000EC4
:10642600046E080E036E3DC001F0026A0FEC2FF0F9
:1064360001C00BF002C00CF0C6EC2DF009C01BF039
:106446000AC01CF03E50175C096E0A6AD8A00A06FC
:106456001BC00BF01CC00CF0C6EC2DF0040E09247A
:10646600236E000E0A20246E000E2A6E000E296E80
:10647600F3EF32F0000E2C6E000E2B6EE3EF32F0CF
:106486003CC009F00A6A29C00BF02AC00CF0C6EC21
:106496002DF009503A24186E0A503B20196E2350ED
:1064A6001826245019222B5018262C50192218C0B1
:1064B600F6FF19C0F7FF0800F5501D6E1E6A000EA4
:1064C6002D6E2DC018F0010E196E000E1A6E182AC8
:1064D60070EF32F0D89019361A36182E6DEF32F06A
:1064E6001D5019161E501A1619501A10D8B47EEFE0
:1064F60032F080EF32F0CEEF32F04050D8A486EF83
:1065060032F088EF32F0ABEF32F02B501324096EE5
:106516002C5014200A6E2D5029C018F02AC019F0EC
:10652600D89018361936D89018361936D8901836A5
:1065360019361826000E1922155018240B6E1650FF
:1065460019200C6E010E0D6E18EC31F0D8EF32F0FA
:106556002B501324096E2C5014200A6E2D5029C07E
:1065660018F02AC019F0D89018361936D89018366F
:106576001936D890183619361826000E19221550D5
:1065860018240B6E165019200C6E000E0D6E18ECAA
:1065960031F0D8EF32F04050D8A4D4EF32F0D6EF35
:1065A60032F088EF32F0ABEF32F02D2A070E2D6471
:1065B600DFEF32F0E1EF32F064EF32F02B4A2C2AB3
:1065C6003C50186E196A18502B5C19502C58D8A0DC
:1065D600EFEF32F0F1EF32F043EF32F0294A2A2A98
:1065E6003DC001F0026A000E046E080E036E0FEC49
:1065F6002FF00150295C02502A58D8A005EF33F03D
:1066060007EF33F03DEF32F0DDEF33F03E50175C2D
:10661600096E0A6AD8A00A06000E046E080E036EFA
:106626003C503D02F3CF01F0F4CF02F00FEC2FF017
:1066360001C00BF002C00CF0C6EC2DF0040E0924CC
:10664600236E000E0A20246E23503A24186E24501E
:106656003B20196E18C0F6FF19C0F7FF0800F55069
:106666001F6E206A000E226E070E216E000E266E29
:10667600000E256ECBEF33F0000E286E000E276E4F
:10668600B7EF33F021C018F0010E196E000E1A6E26
:10669600182A51EF33F0D89019361A36182E4EEFC5
:1066A60033F01F50191620501A1619501A10D8B464
:1066B6005FEF33F061EF33F08DEF33F04050D8A445
:1066C60067EF33F069EF33F07BEF33F02550132497
:1066D600096E265014200A6E275015240B6E28507A
:1066E60016200C6E010E0D6E18EC31F097EF33F09C
:1066F60025501324096E265014200A6E275015249F
:106706000B6E285016200C6E000E0D6E18EC31F034
:1067160097EF33F04050D8A493EF33F095EF33F072
:1067260069EF33F07BEF33F02106D8A0220622BEB4
:10673600A1EF33F09FEF33F0B5EF33F0000E226E8A
:10674600070E216E234A242A23503A24186E245019
:106756003B20196E18C0F6FF19C0F7FF0800F55068
:106766001F6E206A274A282A3D50186E196A18504B
:10677600275C2850800A1A6E1950800A1A58D8A029
:10678600C7EF33F0C9EF33F045EF33F0254A262A39
:106796003C50186E196A1850255C2650800A1A6EED
:1067A6001950800A1A58D8A0DBEF33F0DDEF33F02A
:1067B6003FEF33F012000000000000000000000070
:1067C60000000000000000000000000000000000C3
:1067D60000000000000000000000000000000000B3
:1067E60000000000000000000000000000000000A3
:1067F6000000000000000000000000000000000093
:106806000000000000000000000000000000000082
:106816000000000000000000000000000000000072
:106826000000000000000000000000000000000062
:106836000000000000000000000000000000000052
:10684600FCFCFC0C0C0C0C0C0C0000C0C0C080C086
:10685600C0C0C0800080C0C0C0C08000000000FE74
:10686600FEFE80C0C0C0C0C080000000008080C0A6
:10687600C0C0C0C080000000008080C0C0C0C08012
:10688600FEFEFE0000008080C0C0C0C080FEFEFE8E
:106896000000008080C0C0C0C0C080000000008032
:1068A60080C0C0C0C080FEFEFE00000000000000E8
:1068B60000000000000000000000000000000000D2
:1068C600FFFFFF8383838383800000FFFFFF0100B8
:1068D6000001FFFFFF01000001FFFFFF000000FFB6
:1068E600FFFFC1808080C1FFFF3E00003EFFFFCD5D
:1068F6008C8C8C8FCFCF00003EFFFFC1808080C183
:10690600FFFFFF00003EFFFFC1808080C1FFFFFF49
:1069160000003EFFFFCD8C8C8C8FCFCF00003EFF5A
:10692600FFC1808080C1FFFFFF0000000000000063
:106936000000000000000000000000000000000051
:106946000101010101010101010000010101000035
:10695600000001010100000000010101000000012A
:10696600010100010101010000000000000000011A
:106976000101010101000000000001010101010007
:1069860001010100000000010101010100010101F6
:1069960000000000000101010101010000000000EB
:1069A60001010101010001010100000000000000D9
:1069B600000000000000000000000000000000FCD5
:1069C600FCFC000000000000008080C0C0C0C0C009
:1069D60080000000FEFEFE80C0C0C0C0C080000077
:1069E60000008080C0C0C0C0C08080000000C0C061
:1069F600C080C0C0C00000008080C0C0C0C0C080D1
:106A06000000C0C0F8F8F8C0C0C000008080C0C058
:106A1600C0C0C08080000000C0C0C080C0C0C040F0
:106A2600C0C0800000000080C0C040000000000020
:106A3600000000000000000000000000000000FF51
:106A4600FFFF80808080800070F9FD9C8C8CCCFFDD
:106A5600FFFF0000FFFFFFC1808080C1FFFF3E00F7
:106A6600003EFFFFC1808080C1FFFF3E0000FFFFA8
:106A7600FF03010101000070F9FD9C8C8CCCFFFF27
:106A8600FF000000FFFFFF808080003EFFFFC18007
:106A96008080C1FFFF3E0000FFFFFF0301010100F0
:106AA600030F3FFEF8C0FCFF1F03000000000000BC
:106AB60000000000000000000000000000000001CF
:106AC60001010101010101000000010101010001B4
:106AD60001010000010101000101010100000000A7
:106AE6000000000001010101010000000000010199
:106AF6000100000000000000000101010100010189
:106B06000100000000010101010100000000010177
:106B16000101010000000000010101000000000069
:106B26000000181D1F0F03000000000000000000F9
:106B3600000000000000000000000000000000004F
:106B4600000000000000000000000000000000003F
:106B5600000000000000000000000000000000002F
:106B6600000000000000000000000000000000001F
:106B7600000000000000000000000000000000000F
:106B860000000000000000000000000000000000FF
:106B960000000000000000000000000000000000EF
:106BA60000000000000000000000000000000000DF
:106BB600000000000000001010205F000000000030
:106BC60000000000000000000000000000000000BF
:106BD600000000000000000000000000000000F8B7
:106BE600FCFCFCF8000000000000000000000000B3
:106BF6007373730000000000000000000000001E18
:106C06003E3E0000003E3E1E000000000000000068
:106C1600000000000000000000000000303030FEE0
:106C2600FE30303030FEFE30303000000C0C0C7F71
:106C36007F0C0C0C0C7F7F0C0C0C00000000F0F895
:106C460098FE9898FE989818000000000000181901
:106C5600197F19197F191F0F000000000000003866
:106C6600383880C0E0703800000000000000001CCA
:106C76000E0703011C1C1C0000000000000038FC6D
:106C8600C4C4FC38000000800000000000001E3F65
:106C96002121333F1E1E3723000000000000002084
:106CA6003C3C1C000000000000000000000000004A
:106CB600000000000000000000000000000000C00E
:106CC600E0F0381C0C040400000000000000000383
:106CD600070F1C38302020000000000000000004D0
:106CE600040C1C38F0E0C00000000000000000208A
:106CF6002030381C0F070300000000000080889039
:106D0600E0E0FCFCE0E09088800000000001110952
:106D160007073F3F07070911010000000000008038
:106D26008080F0F0808080000000000000000001FC
:106D360001010F0F0101010000000000000000002A
:106D460000000000000000000000000000000040FD
:106D56007878380000000000000000000000808005
:106D6600808080808080808000000000000001011B
:106D76000101010101010101000000000000000005
:106D860000000000000000000000000000000000FD
:106D96003838380000000000000000000000000045
:106DA6000000000080C0E070381C000000002030A9
:106DB600381C0E0703010000000000000000F8FC6C
:106DC600FC0484E474FCFCF80000000000001F3F93
:106DD6003F2E2721203F3F1F00000000000060607B
:106DE60060F0FCFC00000000000000000000202015
:106DF600203F3F3F20202000000000000000181C1C
:106E06001C040484CCFC78300000000000003038FC
:106E16003C2E272321383838000000000000181CBB
:106E26001C848484CC7C7830000000000000183874
:106E360038212121333E1E0C00000000000080C0D6
:106E4600603018FCFCFC000000000000000003039A
:106E56000323233F3F3F2323000000000000FCFCE8
:106E6600FC84848484840404000000000000193932
:106E760039212121333F1F0E000000000000E0F001
:106E8600F89C8C84848480000000000000001F3F72
:106E96003F212121213F3F1F0000000000003C3C14
:106EA6003C0404040484FCFC7C0000000000000098
:106EB60000383C3E07030100000000000000787C1B
:106EC600FCC4C48484FC7C780000000000001E3EE4
:106ED6003F212123233F3E1E000000000000F8FC56
:106EE600FC84848484FCFCF800000000000000019F
:106EF60021212131391F0F0700000000000000008A
:106F0600007070700000000000000000000000002B
:106F1600000E0E0E00000000000000000000000041
:106F2600007070700000000000000000000000000B
:106F3600101E1E0E0000000000000000000080C0B1
:106F4600E070381C0E06020000000000000001037D
:106F5600070E1C3870604000000000000060606092
:106F660060606060606060606000000000060606A9
:106F760006060606060606060600000000000206CD
:106F86000E1C3870E0C08000000000000000406069
:106F960070381C0E07030100000000000000181CDA
:106FA6000C0E0686CEFC7C380000000000000000B7
:106FB6000000737373000000000000000000FCFE78
:106FC600FE0202C2C2C2FEFEFC00000000003F3FFD
:106FD6007F60606363636343030000000000E0F0CA
:106FE600F81C0C0C1CF8F0E00000000000003F3F0D
:106FF6003F020202023F3F3F00000000000004FC87
:10700600FCFC848484FCFC78000000000000203F27
:107016003F3F2121213F3F1E000000000000F0F805
:10702600FC0C0404041C1C180000000000000F1FC8
:107036003F3020202038381800000000000004FCF3
:10704600FCFC04040CFCF8F0000000000000203FEB
:107056003F3F2020303F1F0F00000000000004FCCF
:10706600FCFC848484C4CC1C000000000000203F8B
:107076003F3F21212123333800000000000004FC9B
:10708600FCFC848484C4CC1C000000000000203F6B
:107096003F3F210101030300000000000000F0F85B
:1070A600FC0C0404043C3C380000000000000F1FE8
:1070B6003F302022223E3E3E000000000000FCFC45
:1070C600FC808080FCFCFC000000000000003F3FCC
:1070D6003F0101013F3F3F000000000000000004A7
:1070E60004FCFCFC0404000000000000000000207A
:1070F600203F3F3F2020000000000000000000006D
:1071060000000404FCFCFC0404000000001E1E3EFB
:10711600202020203F3F1F0000000000000004FC4C
:10712600FCFCC0E0703C1C0C000000000000203F8E
:107136003F3F03070E3C383000000000000004FC0F
:10714600FCFC040000000000000000000000203FDE
:107156003F3F20202030383C000000000000FCFCAF
:10716600FC78F0E0F078FCFCFC00000000003F3FFB
:107176003F00000100003F3F3F0000000000FCFC14
:10718600FC70E0C08000FCFCFC00000000003F3FFB
:107196003F00000103073F3F3F0000000000E0F012
:1071A600F81C0C0C0C1CF8F0E00000000000070FA7
:1071B6001F38303030381F0F07000000000004FC75
:1071C600FCFC848484FCFC78000000000000203F66
:1071D6003F3F210101010100000000000000E0F82E
:1071E600F81C0C040C1CF8F8E00000000000071F57
:1071F6001F18185C5E7E7F7F47000000000004FCBD
:10720600FCFC848484FCFC78000000000000203F25
:107216003F3F0101033F3F3C00000000000078FCB7
:10722600FC84848484BC3C380000000000001C3CC4
:107236003D212121213F3F1E0000000000001C0CC3
:107246000404FCFCFC04040C1C000000000000000C
:1072560020203F3F3F202000000000000000FCFCF3
:10726600FC000000FCFCFC000000000000001F3FCA
:107276003F2020203F3F1F00000000000000FCFCD4
:10728600FC000000FCFCFC00000000000000070FF2
:107296001F3830381F0F0700000000000000FCFCFC
:1072A600FC0000800000FCFCFC0000000000030F56
:1072B6003F3C3C0F3C3C3F0F0300000000001C3CE1
:1072C6007CE0C0E07C3C1C00000000000000383C74
:1072D6003E0703073E3C38000000000000007CFC2F
:1072E600FC800080FCFC7C00000000000000002008
:1072F600213F3F3F212000000000000000003C1C11
:107306000C0484C4E47C3C1C000000000000383CF3
:107316003E2723212030383C0000000000000000FA
:10732600FCFCFC0404040400000000000000000053
:107336003F3F3F20202020000000000000001C38B6
:1073460070E0C080000000000000000000000000A7
:1073560000000103070E1C1830202000000000006A
:1073660004040404FCFCFC00000000000000000013
:10737600202020203F3F3F0000000000000020307A
:10738600381C0E0E1C3830200000000000000000E3
:1073960000000000000000000000000000000000E7
:1073A600000000000000000000000000C0C0C0C0D7
:1073B600C0C0C0C0C0C0C0C0C0C0C00000000C0C6F
:1073C6003C3030000000000000000000000000001B
:1073D6000000000000000000000000000000004067
:1073E60040404040C0C080000000000000001C3E3D
:1073F6003E2222223F1F3F2000000000000004FC26
:10740600FCFC404040C0C080000000000000203F5F
:107416001F3F2020203F3F1F00000000000080C0CB
:10742600C0404040C0C080000000000000001F3F78
:107436003F2020203939190000000000000080C0DC
:10744600C0404044FCFCFC040000000000001F3F5C
:107456003F2020203F1F3F2000000000000080C08A
:10746600C0404040C0C080000000000000001F3F38
:107476003F2222223B3B1B000000000000008080D0
:10748600F8FCFC849C9C18000000000000002121F0
:107496003F3F3F212101000000000000000080C0A6
:1074A600C0404040C080C04000000000000047CF00
:1074B600DF989898FFFF7F0000000000000004FCA2
:1074C600FCFC804040C0C080000000000000203F5F
:1074D6003F3F0100003F3F3F00000000000000402A
:1074E6004040DCDCDC000000000000000000002062
:1074F60020203F3F3F202020000000000000000029
:1075060000404040DCDCDC000000000000002060A1
:10751600E08080C0FFFF7F0000000000000004FC48
:10752600FCFC000080C0C040000000000000203FBE
:107536003F3F02070F3D3830000000000000000406
:107546000404FCFCFC000000000000000000002019
:1075560020203F3F3F202020000000000000C0C048
:10756600C04040C04040C0C08000000000003F3F17
:107576003F00003F00003F3F3F0000000000C0C04A
:10758600C0404040C0C080000000000000003F3FF7
:107596003F0000003F3F3F0000000000000080C0A9
:1075A600C0404040C0C080000000000000001F3FF7
:1075B6003F2020203F3F1F0000000000000040C089
:1075C60080C0404040C0C08000000000000080FF36
:1075D600FFFF9010101F1F0F000000000080C0C0AA
:1075E600404040C080C0400000000000000F1F1F48
:1075F600101090FFFFFF800000000000000040C058
:10760600C0C080C0C0C0C080000000000000203F95
:107616003F3F21000001010100000000000080C082
:10762600C040404040C08000000000000000193B00
:10763600232626263C3D190000000000000040409D
:10764600E0F0F8404040400000000000000000006C
:107656001F3F3F2038381800000000000000C0C05F
:10766600C0000000C0C0C0000000000000001F3FB6
:107676003F2020203F1F3F20000000000000C0C028
:10768600C0000000C0C0C000000000000000070FDE
:107696001F3830381F0F0700000000000000C0C070
:1076A600C00000000000C0C0C00000000000070FBE
:1076B6003F38380E38383F0F070000000000C0C0C2
:1076C600C00000C0C0C0000000000000000030394B
:1076D6003F0F0F3F3930000000000000000000C0DF
:1076E600C0C0000000C0C0C00000000000008087CD
:1076F6008F9FD8F8783F0F07000000000000C0C039
:10770600404040C0C0C0000000000000000031380A
:107716003C2E272331380000000000000000808046
:10772600C0787C3C04040404000000000000010151
:10773600031E3E3C20202020000000000000000028
:107746000000FEFEFE000000000000000000000039
:1077560000007F7F7F00000000000000000004049E
:1077660004043C7C78C080800000000000002020DB
:1077760020203C3E1E0301010000000000383C3C76
:10778600040C1C3830203C3C1C00000000000000AB
:1077960000000000000000000000000810205F004C
:1077A60000000000000000000000000000000000D3
:1077B6000000F80000000000000033300000000068
:1077C600100C06100C06000000000000000000402F
:1077D600C07840C0784000043F04043F0404000021
:1077E6007088FC08300000001820FF211E0000F001
:1077F60008F000E018000000211C031E211E0000F6
:10780600F00888700000001E21232419272110107B
:10781600160E00000000000000000000000000003E
:107826000000E018040200000000071820400000D5
:10783600020418E000000000402018070000004085
:107846004080F0804040000202010F010202000069
:107856000000F0000000000101011F01010100000D
:107866000000000000000080B07000000000000072
:1078760000000000000000000101010101010100FB
:107886000000000000000000303000000000000092
:107896000000008060180400601806010000000067
:1078A600E010080810E000000F102020100F000064
:1078B6001010F8000000000020203F2020000000EB
:1078C6007008080888700000302824222130000043
:1078D600300888884830000018202020110E00004B
:1078E60000C02010F8000000070424243F240000F4
:1078F600F80888880808000019212020110E0000C9
:10790600E0108888180000000F112020110E0000DA
:10791600380808C83808000000003F0000000000D2
:1079260070880808887000001C222121221C000093
:10793600E010080810E0000000312222110F0000BC
:107946000000C0C000000000000030300000000051
:1079560000008000000000000080600000000000C1
:10796600008040201008000001020408102000409A
:107976004040404040400004040404040404000065
:1079860008102040800000002010080402010000BA
:107996007048080808F0000000003036010000C0FA
:1079A60030C828E810E0000718272423140B00002D
:1079B60000C038E0000000203C23020227382008DF
:1079C600F8888888700000203F202020110E00C013
:1079D600300808080838000718202020100800087A
:1079E600F808080810E000203F202020100F0008AB
:1079F600F88888E8081000203F2020232018000877
:107A0600F88888E8081000203F200003000000C026
:107A16003008080838000007182020221E02000837
:107A2600F808000008F808203F210101213F200046
:107A36000808F8080800000020203F202000000069
:107A4600000808F8080800C08080807F0000000851
:107A5600F888C028180800203F2001263820000892
:107A6600F8080000000000203F20202020300008F9
:107A7600F8F800F8F80800203F003F003F20000813
:107A8600F830C00008F808203F200007183F00E043
:107A96001008080810E0000F10202020100F000822
:107AA600F808080808F000203F210101010000E065
:107AB6001008080810E0000F18242438504F00085A
:107AC600F8888888887000203F2000030C3020004A
:107AD600708808080838000038202121221C001868
:107AE6000808F8080818000000203F2000000008D9
:107AF600F808000008F808001F202020201F0008B2
:107B060078880000C83808000007380E010000F821
:107B16000800F80008F800033C0700073C030008CB
:107B26001868808068180820302C03032C30200841
:107B360038C800C83808000000203F2000000010A8
:107B4600080808C838080020382621202018000018
:107B56000000FE020202000000007F4040400000DC
:107B66000C30C000000000000000010638C0000014
:107B7600020202FE000000004040407F00000000BC
:107B860000040202020400000000000000000000E1
:107B960000000000000000808080808080808000DF
:107BA60002020400000000000000000000000000C7
:107BB600008080808000000019242222223F2008B5
:107BC600F8008080000000003F112020110E000008
:107BD60000008080800000000E112020201100008F
:107BE6000000808088F800000E112020103F200041
:107BF60000808080800000001F22222222130000C5
:107C06008080F0888888180020203F20200000000F
:107C160000808080808000006B94949493600008BC
:107C2600F8008080800000203F210000203F2000D7
:107C3600809898000000000020203F2020000000CF
:107C46000000809898000000C08080807F000008B7
:107C5600F8000080808000203F24022D30200000A4
:107C66000808F8000000000020203F2020000080C7
:107C760080808080808000203F20003F20003F8061
:107C860080008080800000203F210000203F2000EF
:107C960000808080800000001F202020201F0080A0
:107CA6008000808000000080FFA12020110E0000CF
:107CB60000008080808000000E112020A0FF8080C0
:107CC6008080008080800020203F2120000100006D
:107CD6000080808080800000332424242419000042
:107CE6008080E0808000000000001F2020000080CF
:107CF60080000000808000001F202020103F208090
:107D06008080000080808000010E3008060100801F
:107D1600800080008080800F300C030C300F000044
:107D2600808000808080000020312E0E312000806F
:107D36008080000080808080818E7018060100009F
:107D4600808080808080000021302C22213000003D
:107D5600000000807C020200000000003F4040005E
:107D6600000000FF00000000000000FF000000000F
:107D760002027C800000000040403F00000000003E
:107D860006010102020404000000000000000006D3
:107D960008205F0000000000000000002F00000027
:107DA600000700070000147F147F1400242A7F2A8E
:107DB600120023130864620036495522500000055C
:107DC60003000000001C224100000041221C0000AC
:107DD60014083E08140008083E0808000000A060C9
:107DE6000000080808080800006060000000201075
:107DF600080402003E5149453E0000427F40000013
:107E06004261514946002141454B31001814127F09
:107E160010002745454539003C4A49493000017163
:107E260009050300364949493600064949291E0015
:107E360000363600000000563600000008142241C5
:107E46000000141414141400004122140800020146
:107E560051090600324959513E007C1211127C002C
:107E66007F49494936003E41414122007F41412236
:107E76001C007F49494941007F09090901003E412B
:107E860049497A007F0808087F0000417F410000C9
:107E96002040413F01007F08142241007F404040BE
:107EA60040007F020C027F007F0408107F003E41E5
:107EB60041413E007F09090906003E4151215E000D
:107EC6007F091929460046494949310001017F01C8
:107ED60001003F4040403F001F2040201F003F4020
:107EE60038403F0063140814630007087008070051
:107EF600615149454300007F41410000552A552AFA
:107F060055000041417F0000040201020400404088
:107F16004040400000010204000020545454780000
:107F26007F48444438003844444420003844444898
:107F36007F00385454541800087E0901020018A422
:107F4600A4A47C007F080404780000447D4000005F
:107F56004080847D00007F102844000000417F405F
:107F660000007C04180478007C0804047800384477
:107F760044443800FC242424180018242418FC0047
:107F86007C0804040800485454542000043F44402C
:107F960020003C4040207C001C2040201C003C402F
:107FA60030403C004428102844001CA0A0A07C00BF
:107FB6004464544C440000087700000000007F0031
:107FC60000000077080000001008100800141414C0
:107FD600141414004F4C4544204932432053534453
:107FE6003133303600436F6E2050494331384634C2
:097FF60035353000584338000015
:020000040020DA
:08000000FFFFFFFFFFFFFFFF00
:020000040030CA
:0E000000210E191EFF8181FF0FC00FE00F407F
:00000001FF
