:020000040000fa
:080000000001040000000000f3
:020000040000fa
:040008005e02000094
:020000040000fa
:04000c005e02000090
:020000040000fa
:040010005e0200008c
:020000040000fa
:040014005e02000088
:020000040000fa
:040018005e02000084
:020000040000fa
:04001c005e02000080
:020000040000fa
:040020005e0200007c
:020000040000fa
:040024005e02000078
:020000040000fa
:040028005e02000074
:020000040000fa
:04002c005e02000070
:020000040000fa
:040030005e0200006c
:020000040000fa
:040034005e02000068
:020000040000fa
:040038005e02000064
:020000040000fa
:04003c005e02000060
:020000040000fa
:040040005e0200005c
:020000040000fa
:040044005e02000058
:020000040000fa
:040048005e02000054
:020000040000fa
:04004c005e02000050
:020000040000fa
:040050005e0200004c
:020000040000fa
:040054005e02000048
:020000040000fa
:040058005e02000044
:020000040000fa
:04005c005e02000040
:020000040000fa
:040060005e0200003c
:020000040000fa
:040064005e02000038
:020000040000fa
:040068005e02000034
:020000040000fa
:04006c005e02000030
:020000040000fa
:040070005e0200002c
:020000040000fa
:040074005e02000028
:020000040000fa
:040078005e02000024
:020000040000fa
:04007c005e02000020
:020000040000fa
:040080005e0200001c
:020000040000fa
:040084005e02000018
:020000040000fa
:04008800c8010000ab
:020000040000fa
:04008c005e02000010
:020000040000fa
:040090005e0200000c
:020000040000fa
:040094005e02000008
:020000040000fa
:040098005e02000004
:020000040000fa
:04009c005e02000000
:020000040000fa
:0400a0005e020000fc
:020000040000fa
:0400a4005e020000f8
:020000040000fa
:0400a8005e020000f4
:020000040000fa
:0400ac005e020000f0
:020000040000fa
:0400b0005e020000ec
:020000040000fa
:0400b4005e020000e8
:020000040000fa
:0400b8005e020000e4
:020000040000fa
:0400bc005e020000e0
:020000040000fa
:0400c0005e020000dc
:020000040000fa
:0400c4005e020000d8
:020000040000fa
:0400c8005e020000d4
:020000040000fa
:0400cc005e020000d0
:020000040000fa
:0400d0005e020000cc
:020000040000fa
:0400d4005e020000c8
:020000040000fa
:0400d8005e020000c4
:020000040000fa
:040108005e02000093
:020000040000fa
:04010c005e0200008f
:020000040000fa
:040110005e0200008b
:020000040000fa
:040114005e02000087
:020000040000fa
:040118005e02000083
:020000040000fa
:04011c005e0200007f
:020000040000fa
:040120005e0200007b
:020000040000fa
:040124005e02000077
:020000040000fa
:040128005e02000073
:020000040000fa
:04012c005e0200006f
:020000040000fa
:040130005e0200006b
:020000040000fa
:040134005e02000067
:020000040000fa
:040138005e02000063
:020000040000fa
:04013c005e0200005f
:020000040000fa
:040140005e0200005b
:020000040000fa
:040144005e02000057
:020000040000fa
:040148005e02000053
:020000040000fa
:04014c005e0200004f
:020000040000fa
:040150005e0200004b
:020000040000fa
:040154005e02000047
:020000040000fa
:040158005e02000043
:020000040000fa
:04015c005e0200003f
:020000040000fa
:040160005e0200003b
:020000040000fa
:040164005e02000037
:020000040000fa
:040168005e02000033
:020000040000fa
:04016c005e0200002f
:020000040000fa
:040170005e0200002b
:020000040000fa
:040174005e02000027
:020000040000fa
:040178005e02000023
:020000040000fa
:04017c005e0200001f
:020000040000fa
:040180005e0200001b
:020000040000fa
:040184005e02000017
:020000040000fa
:04018800c8010000aa
:020000040000fa
:04018c005e0200000f
:020000040000fa
:040190005e0200000b
:020000040000fa
:040194005e02000007
:020000040000fa
:040198005e02000003
:020000040000fa
:04019c005e020000ff
:020000040000fa
:0401a0005e020000fb
:020000040000fa
:0401a4005e020000f7
:020000040000fa
:0401a8005e020000f3
:020000040000fa
:0401ac005e020000ef
:020000040000fa
:0401b0005e020000eb
:020000040000fa
:0401b4005e020000e7
:020000040000fa
:0401b8005e020000e3
:020000040000fa
:0401bc005e020000df
:020000040000fa
:0401c0005e020000db
:020000040000fa
:0401c4005e020000d7
:020000040000fa
:0401c8005e020000d3
:020000040000fa
:0401cc005e020000cf
:020000040000fa
:0401d0005e020000cb
:020000040000fa
:0401d4005e020000c7
:020000040000fa
:0401d8005e020000c3
:020000040000fa
:100200000f8120000eff20000e018800000000007a
:10021000000020000000e000020032000001200089
:100220002002880014000700a60007000000e0007c
:1002300003003a00c05a20000100200002003700ed
:100240000000200001002000810f7000010032003a
:1002500014000700000020000000e000020032004f
:1002600000000200000000009005020000000000f5
:100270000040da000000fe004440a900e002200037
:100280000000e0000300320000002000a001880010
:100290004440a800000006008a1f78008b1f7800e9
:1002a0000000060091018800800478000000eb0047
:1002b0001a003700e284440032a0b4009905ba0065
:1002c000e284440032a0b4009906ba00e2844400fb
:1002d00032a0b4000006eb00476fde00fd07b2005d
:1002e000636ce10003003a00ebff07000000eb0045
:1002f0000a003700606ce10004003a00005deb008a
:100300008b05e900fdff3e00040037006168e10055
:10031000010032000086eb000b00070019c7ba008d
:100320001905ba000e04e00003003a000a00e000dc
:10033000e0ff3a0000000600fe07b2009e018800c0
:100340008a047800f5ff3700395dba008b05e900b3
:100350000c003200295dba008b05e900080032006c
:100360000c00e00003003a00e284440032a0b40034
:10037000f5ff370019ddba008b05e900faff3a00f6
:100380008904e800e184440032a0b40000000600c3
:100390003600f800809fbe00829fbe00849fbe0092
:1003a000869fbe003400f80000002000a0018800f5
:1003b0000000fa008700a9000fc8bf000000fb0082
:1003c000e10f500015003200e10f500003003c0027
:1003d0000000e000060032002f003700e20f50005e
:1003e00018003200e30f5000200032002a003700ce
:1003f0004c000700018020009140780010c4b30039
:1004000080cf500023003a00402628008b010700cf
:1004100010c0b3000fe8b7001f00370071000700dd
:100420002027280085010700108020008301070095
:10043000d02728008101070020c0b3000fe8b700d3
:1004400015003700a9000700002828007b010700dd
:100450001080200079010700d027280077010700cd
:1004600030c0b3000fe8b7000b003700e000070012
:10047000c028280071010700108020006f010700cc
:10048000d02728006d01070030c0b3000fe8b70087
:1004900001003700000000008700a9000080fa007a
:1004a0003400f9004f03be004f02be004f01be00f2
:1004b0004f00be003600f900004006000040da00a0
:0804c0000000fe000000050031
:020000040000fa
:1004c800475000005320000052650000616400009e
:1004d80079210000210a00000d0000004c61000095
:1004e8007469000074750000646500003a2000001b
:1004f800000a00000d0000004c6f00006e6700004d
:100508006974000075640000653a0000200000006e
:0c05180044410000544500003a0000007f
:020000040000fa
:100524000400fa000040eb00004f78008000eb006c
:100534000e80e80001087800220037006c010700f3
:10054400018020009140780030c4b30080cf500077
:1005540017003a000040eb00004f78000700370016
:10056400630107000180200091407800c0c2b300fd
:1005740080cf500001003a001e4fe8001e40780072
:10058400e14f5000f6ff36005901070001802000ba
:100594009140780010c4b30080cf500009003a00a5
:1005a40091f720000e80e800010878000a00370067
:1005b4000e80e800100078008000e8000e80e8005b
:1005c400010878000e80e8009000780070f72000a1
:1005d400808f5000d9ff36000080fa00000006002a
:1005e4000200fa000040eb00004f78008040eb006e
:1005f4000e00e80001487800350037003c01070090
:10060400018020009140780030c4b30080cf5000b6
:100614002e003a008040eb000e00e800014878000c
:100624000b00370032010700018020009140780060
:10063400c0c2b30080cf500005003a000e00e800ad
:10064400104078008040e8000e00e800014878007f
:100654000e00e80010407800e24f5000f1ff360031
:100664008040eb000e00e800014878000e003700df
:100674001f0107000e00e800104078000081fb0015
:10068400018020009140780010802000000041008b
:10069400014878000e00e800104078008040e8002f
:1006a4000e00e800014878000e00e80010407800d1
:1006b400eb4f5000eeff36000d68ef000e68ef00c0
:1006c40050c8b300004f7800050037001e4fe80003
:1006d40030c8b3009e40780080cf5000c7ff36007a
:1006e4000080fa00000006000200fa000040eb005f
:1006f400004f78008040eb000e00e80001487800cd
:1007040034003700fa00070001802000914078008f
:1007140030c4b30080cf50002d003a008040eb007d
:100724000e00e800014878000b003700f0000700d5
:100734000180200091407800c0c2b30080cf5000f7
:1007440005003a000e00e800104078008040e80000
:100754000e00e800014878000e00e8001040780020
:10076400e44f5000f1ff36008040eb000e00e8003b
:10077400014878000e003700dd0007000e00e80095
:10078400104078000081fb00018020009140780037
:100794001080200000004100014878000e00e800ad
:1007a400104078008040e8000e00e800014878001e
:1007b4000e00e80010407800ec4f5000eeff3600c9
:1007c4000e68ef0050c8b300004f780005003700f2
:1007d4001e4fe80030c8b3009e40780080cf500020
:1007e400c8ff36000080fa00000006000200fa008c
:1007f4000040eb00004f78008040eb000e00e80062
:10080400014878004d003700b9000700018020003e
:100814009140780030c4b30080cf500046003a00c5
:10082400b30007008040eb000e00e80001487800a8
:100834000e003700ae0007000e00e80010407800fc
:100844000081fb000180200091407800108020008e
:1008540000004100014878000e00e80010407800d4
:100864008040e8000e00e800014878000e00e8002f
:1008740010407800e54f5000eeff36008040eb005a
:100884000e00e800014878000b00370098000700cc
:100894000180200091407800c0c2b30080cf500096
:1008a40005003a000e00e800104078008040e8009f
:1008b4000e00e800014878000e00e80010407800bf
:1008c400e74f5000f1ff36008040eb000e00e800d7
:1008d400014878000f003700850007000e00e8008b
:1008e400104078000080fb00660140000180200079
:1008f40091407800108020000000410001487800f9
:100904000e00e800104078008040e8000e00e80087
:10091400014878000e00e80010407800e54f5000d0
:10092400edff36000d68ef000e68ef0050c8b3000d
:10093400004f7800050037001e4fe80030c8b300b0
:100944009e40780080cf5000afff36008040eb001f
:100954000e00e80001487800060037006400070034
:100964000e00e800104078008040e8000e00e80027
:10097400014878000e00e80010407800e64f50006f
:10098400f6ff36000080fa00000006000000fa00be
:10099400de62a900de42a8006110800090ff2f00f3
:1009a40000806000601088000c02a900f0002000a4
:1009b400a01088000f42a8000080fa000000060082
:1009c4000000fa000de2a8000080fa000000060012
:1009d4000000fa000de2a9000080fa000000060001
:1009e4000200fa00004f780000000000711080003f
:1009f40000102000008060000000e000fbff3200d7
:100a04001e00fb00801088000080fa000000060031
:100a14000000fa0000000000701080006100600017
:100a24000000e000fcff32009010800000407800dd
:100a34000080fa00000006000200fa00000f7800af
:100a4400040037001e00780010407800e4ff07001f
:100a54001e0fe8001e007800104078000004e0003b
:100a6400f8ff3a000080fa00000006000000fa00d7
:100a7400de82a800dea2a900b110800090ff2f0042
:100a840000806000b01088001602a900f00b20005e
:100a9400f01088001942a8000080fa000000060047
:100aa4000000fa0017e2a8000080fa000000060027
:100ab4000000fa0017e2a9000080fa000000060016
:100ac4000200fa00004f780000000000c11080000e
:100ad40000102000008060000000e000fbff3200f6
:100ae4001e00fb00d01088000080fa000000060001
:100af4000000fa0000000000c010800061006000e7
:100b04000000e000fcff3200e010800000407800ac
:100b140000e8b7000080fa00000006000000fa00b8
:100b2400dfff0700d1ff0700a5ff070097ff0700bd
:100b34000105800080ff2f00008060000020a000dd
:100b4400000588008700a9008f00a8000f68ef0047
:040b5400ffff370068
:020000040000fa
:100b58000008000010000000000000000000000075
:020000040000fa
:0200000401f009
:04000000e7bf000056
:020000040000fa
:0200000401f009
:04000400ff7f00007a
:020000040000fa
:0200000401f009
:040008007dff000078
:020000040000fa
:0200000401f009
:04001400ffffff00eb
:020000040000fa
:0200000401f009
:04001800ffff0000e6
:00000001FF
