:0600000000F024EF03F004
:10000800FFFF2582D9CF0DF0DACF0EF0F6CF0FF033
:10001800F7CF10F0F8CF11F0F5CF12F09DAA17EF37
:1000280000F01AEF00F0FFFF14EF03F0FFFF9EAAA5
:1000380020EF00F023EF00F0FFFF14EF03F0FFFFC5
:10004800B7EC03F0176EDDEF02F0FFFFD7EC04F01A
:10005800300E41EC05F014EF03F0FFFF310E41ECD8
:1000680005F034EC03F0176E580E1718D8A43FEFBC
:1000780000F042EF00F0FFFF46EF00F0FFFFAB8813
:1000880055EF00F0FFFF310E1718D8A44EEF00F01F
:1000980051EF00F0FFFF55EF00F0FFFF1850C5ECDF
:1000A80005F0FFFF175066EC04F014EF03F0FFFFB4
:1000B800320E41EC05F034EC03F0176E580E1718A9
:1000C800D8A469EF00F06CEF00F0FFFF70EF00F0CC
:1000D800FFFFAB887FEF00F0FFFF320E1718D8A4A0
:1000E80078EF00F07BEF00F0FFFF7FEF00F0FFFFFD
:1000F800185089EC05F0FFFF175066EC04F014EF78
:1001080003F0FFFF330E41EC05F034EC03F0176EFB
:10011800580E1718D8A493EF00F096EF00F0FFFFE1
:100128009AEF00F0FFFFAB88A9EF00F0FFFF330E56
:100138001718D8A4A2EF00F0A5EF00F0FFFFA9EF71
:1001480000F0FFFF18502CEC05F0FFFF175066EC8D
:1001580004F014EF03F0FFFF340E41EC05F034EC2B
:1001680003F0176E580E1718D8A4BDEF00F0C0EFB3
:1001780000F0FFFFC4EF00F0FFFFAB88D7EF00F0FF
:10018800FFFF340E1718D8A4CCEF00F0CFEF00F023
:10019800FFFFD7EF00F0FFFF19C002F01AC003F00D
:1001A8001850A9EC05F0FFFF175066EC04F014EFA7
:1001B80003F0FFFF350E41EC05F034EC03F0176E49
:1001C800580E1718D8A4EBEF00F0EEEF00F0FFFF81
:1001D800F2EF00F0FFFFAB8807EF01F0FFFF350EED
:1001E8001718D8A4FAEF00F0FDEF00F0FFFF07EFB3
:1001F80001F0FFFF19C002F01AC003F01BC004F0A1
:10020800185054EC05F0FFFF175066EC04F014EF9B
:1002180003F0FFFF360E41EC05F034EC03F0176EE7
:10022800580E1718D8A41BEF01F01EEF01F0FFFFBE
:1002380025EF01F0FFFF175066EC04F0AB8814EFD0
:1002480003F0FFFF360E1718D8A42DEF01F030EF9A
:1002580001F0FFFF14EF03F0FFFF8B9418C013F0B9
:1002680019C014F0000E156E6CEF01F0FFFF000EC0
:10027800166EFFFF82B843EF01F046EF01F0FFFF73
:100288003DEF01F0FFFF440E66EC05F0000E66EC52
:1002980005F0186E000E66EC05F0196E000E66EC9F
:1002A80005F01A6E000E66EC05F01B6E360E66EC55
:1002B80004F0162A090E166464EF01F067EF01F0E6
:1002C800FFFF3DEF01F0FFFF1450F7EC04F0152A93
:1002D800FFFFFF0E066EFF0E076E1350086E096AC9
:1002E800065008260750092215500A6E0B6A085056
:1002F8000A5C0B50800A0C6E0950800A0C58D8A072
:1003080088EF01F08BEF01F0FFFF3AEF01F0FFFFFC
:10031800000E166EFFFF82B894EF01F097EF01F020
:10032800FFFF8EEF01F0FFFF440E66EC05F0000EB4
:1003380066EC05F0186E000E66EC05F0196E000EFE
:1003480066EC05F01A6E000E66EC05F01B6E360EB4
:1003580066EC04F0162A090E1664B5EF01F0B8EF42
:1003680001F0FFFF8EEF01F0FFFF8B8414EF03F025
:10037800FFFF370E41EC05F034EC03F0176E580E12
:100388001718D8A4CAEF01F0CDEF01F0FFFFD1EFA5
:1003980001F0FFFFAB8850EF02F0FFFF370E171890
:1003A800D8A4D9EF01F0DCEF01F0FFFF50EF02F025
:1003B800FFFF10EF02F0FFFF400E816E43EF02F0E7
:1003C800FFFF600E816E43EF02F0FFFF800E816E2B
:1003D80043EF02F0FFFFA00E816E43EF02F0FFFF34
:1003E800B00E816E43EF02F0FFFF500E816E43EFB7
:1003F80002F0FFFF700E816E43EF02F0FFFF900ED8
:10040800816E43EF02F0FFFFC00E816E43EF02F0F2
:10041800FFFF00F043EF02F0FFFF1850066E076A77
:100428000750000AD8B41BEF02F00CEF02F0FFFFF0
:100438000650310AD8B4DFEF01F0030AD8B4E4EF6C
:1004480001F0010AD8B4E9EF01F0070AD8B4EEEFD9
:1004580001F0010AD8B4F3EF01F0030AD8B4F8EFB9
:1004680001F0010AD8B4FDEF01F00F0AD8B402EF89
:1004780002F0010AD8B407EF02F00CEF02F0FFFF18
:10048800020E076EE00E066E0E0EFFFFE82EFDD779
:10049800062EFBD7072EF9D7FFFF175066EC04F09E
:1004A80014EF03F0FFFF380E41EC05F08B94010EBA
:1004B80066EC05F0000E66EC05F01C0E66EC05F027
:1004C80000F000F0FFFF82B86CEF02F06FEF02F06F
:1004D800FFFF66EF02F0FFFF440E66EC05F0000E2A
:1004E80066EC05F0186E000E66EC05F0196E000E4D
:1004F80066EC05F01A6E000E66EC05F01B6E8B8438
:10050800380E66EC04F014EF03F0FFFF390E41ECEF
:1005180005F034EC03F0176E580E1718D8A497EFAF
:1005280002F09AEF02F0FFFF9EEF02F0FFFFAB88A8
:10053800D0EF02F0FFFF390E1718D8A4A6EF02F08B
:10054800A9EF02F0FFFFD0EF02F0FFFF8B94010E3E
:1005580066EC05F0185066EC05F0195066EC05F0ED
:1005680000F000F0FFFF82B8BCEF02F0BFEF02F02E
:10057800FFFFB6EF02F0FFFF440E66EC05F0000E39
:1005880066EC05F0186E000E66EC05F0196E000EAC
:1005980066EC05F01A6E8B84FFFF175066EC04F0CA
:1005A80014EF03F0FFFF580E41EC05F0AB8814EF91
:1005B80003F0FFFF1750066E076A0750000AD8B409
:1005C800E8EF02F0D6EF02F0FFFF0650300AD8B489
:1005D80029EF00F0010AD8B431EF00F0030AD8B4CB
:1005E8005BEF00F0010AD8B485EF00F0070AD8B431
:1005F800AFEF00F0010AD8B4DDEF00F0030AD8B479
:100608000DEF01F0010AD8B4BCEF01F00F0AD8B41D
:1006180056EF02F0010AD8B489EF02F0D6EF02F0E3
:10062800FFFF12C0F5FF11C0F8FF10C0F7FF0FC0A1
:10063800F6FF0EC0DAFF0DC0D9FF25921100FFFFAB
:1006480015EF05F0004E4E4E4E4A524F434D4400B2
:0F0658004E4E4E4E4A524F444154000A0D000080
:10066800FFFF000E046EFFFF23EC04F0036E4A0E3A
:100678000318D8A442EF03F045EF03F0FFFF48EF5B
:1006880003F0FFFF53EF03F0FFFF042A090E046491
:1006980050EF03F053EF03F0FFFF37EF03F0FFFFD6
:1006A8000A0E04605AEF03F05DEF03F0FFFFB1EFAD
:1006B80003F0FFFF23EC04F0036E520E0318D8A4D6
:1006C80068EF03F06BEF03F0FFFFB1EF03F0FFFFFC
:1006D80023EC04F0036E4F0E0318D8A476EF03F052
:1006E80079EF03F0FFFFB1EF03F0FFFF23EC04F015
:1006F800036E440E0318D8A484EF03F087EF03F0C9
:10070800FFFFB1EF03F0FFFF23EC04F0036E23ECCF
:1007180004F0036E23EC04F0246E000E046EFFFF59
:10072800180E0424D96EDA6A000EDA2223EC04F0DB
:10073800DF6E042A0B0E0464A4EF03F0A7EF03F0A6
:10074800FFFF93EF03F0FFFF23EC04F0036E23ECAD
:1007580004F0036E2450B4EF03F0FFFFAB98580E7B
:10076800FFFF1200FFFFFFFF000E036EFFFF23ECE9
:1007780004F0046E4A0E0418D8A4C5EF03F0C8EFBD
:1007880003F0FFFFCBEF03F0FFFFD6EF03F0FFFF0F
:10079800032A090E0364D3EF03F0D6EF03F0FFFF3B
:1007A800BAEF03F0FFFF0A0E0360DDEF03F0E0EF9E
:1007B80003F0FFFF1DEF04F0FFFF23EC04F0046ECD
:1007C800520E0418D8A4EBEF03F0EEEF03F0FFFF8E
:1007D8001DEF04F0FFFF23EC04F0046E4F0E041825
:1007E800D8A4F9EF03F0FCEF03F0FFFF1DEF04F0CE
:1007F800FFFF23EC04F0046E430E0418D8A407EF9F
:1008080004F00AEF04F0FFFF1DEF04F0FFFF23ECF4
:1008180004F0046E23EC04F0046E23EC04F0246E60
:1008280023EC04F0046E23EC04F0046E245020EF53
:1008380004F0FFFFAB98580EFFFF1200FFFFFFFF09
:10084800000E016E0268000ECC6ECA8456EF04F0EA
:10085800FFFF9EBA32EF04F035EF04F0FFFF3EEFE2
:1008680004F0FFFF9EA23BEF04F03EEF04F0FFFF11
:100878002CEF04F0FFFF9E92012A9EBA46EF04F087
:1008880049EF04F0FFFF53EF04F0FFFF030E01648C
:1008980050EF04F053EF04F0FFFF56EF04F0FFFFB2
:1008A800000E026EFFFF0250D8A45DEF04F060EF67
:1008B80004F0FFFF2CEF04F0FFFF9E92CA94AE50A5
:1008C8001200FFFFFFFF046E580E026E060E036E45
:1008D800B4EC04F0045078EC05F0000E056EFFFF50
:1008E800180E0524D96EDA6A000EDA22DF5078EC89
:1008F80005F0052A0B0E056484EF04F087EF04F079
:10090800FFFF73EF04F0FFFF630E026E060E036E27
:10091800B4EC04F01200FFFFFFFFC150F00B070911
:10092800C16E000E896E000E8A6E000E8B6E000E70
:10093800926E000E936E000E946E8B84B8EC05F0E8
:10094800DDEC05F09AEC05F0D9EC05F0D09E000E30
:10095800F26EF28CF28EFFFFAFEF04F024EF03F09B
:10096800FFFFC3EF04F0FFFF02C0F6FF03C0F7FF6D
:100978000800FFFFF55078EC05F0024A032AFFFF54
:1009880002C0F6FF03C0F7FF0800FFFFF55000099B
:10099800D8A4D1EF04F0D4EF04F0FFFFB7EF04F0D0
:1009A800FFFF1200FFFFFFFF8B94000E036EFFFF97
:1009B800FF0E66EC05F0032A080E0364E6EF04F068
:1009C800E9EF04F0FFFFDBEF04F0FFFF8B841D0E5F
:1009D800026EBD0EFFFFE82EFDD7022EFBD700D01A
:1009E80000F01200FFFFFFFF026E000E036E07EF1C
:1009F80005F0FFFF0A0E016E940EFFFFE82EFDD7EB
:100A0800012EFBD7032AFFFF0250035CD8A00FEF8B
:100A180005F012EF05F0FFFFFDEF04F0FFFF1200F5
:100A2800FFFFA40EF66E0B0EF76E000EF86E00EECA
:100A380018F010EE0DF00900F5CFEEFFE550E1508B
:100A4800FAE125902592000EF86E000190EF04F06F
:100A5800FFFF026E8B94025066EC05F0000E66EC08
:100A680005F0186E000E66EC05F0196E000E66ECC7
:100A780005F01A6E8B841200FFFFFFFF046E4D0E07
:100A8800026E060E036EB4EC04F0045078EC05F028
:100A9800630E026E060E036EB4EC04F01200FFFF44
:100AA800FFFF056E8B94055066EC05F0025066EC6E
:100AB80005F0035066EC05F0045066EC05F08B84F5
:100AC8001200FFFFFFFF016EC95001C0C9FFFFFF01
:100AD800C7A071EF05F074EF05F0FFFF6BEF05F0AD
:100AE800FFFFC9501200FFFFFFFF016E01C0ADFFFD
:100AF80000F0FFFFACA283EF05F086EF05F0FFFFE3
:100B08007DEF05F0FFFF1200FFFFFFFF026E8B94E1
:100B1800025066EC05F0000E66EC05F0186E000E4B
:100B280066EC05F0196E8B841200FFFFFFFF949CA2
:100B3800948E240EAC6E100EAB6E3F0EAF6E9D8A77
:100B48007B0ECA6ECB681200FFFFFFFF046E8B940A
:100B5800045066EC05F0025066EC05F0035066ECB4
:100B680005F08B841200FFFFFFFF94969488949AF7
:100B7800000EC76EC688C650F00B0109C66E12007B
:100B8800FFFFFFFF026E8B94025066EC05F0000E2B
:100B980066EC05F0186E8B841200FFFF5858585801
:090BA80058585858585858580084
:100BB200FFFFAB8E1200FFFFFFFFC68A1200FFFF8E
:100BC200FFFFAB9E1200FFFFFFFFC69A1200FFFF5E
:020BD200FFFF23
:020000040020DA
:08000000FFFFFFFFFFFFFFFF00
:020000040030CA
:04000000FF260E0EBB
:0800060080FF0FC00FE00F4066
:00000001FF
