:020000040000FA
:040000008A11112828
:10000800FE00030E83120313C4000408C5000A0887
:10001800C6007F08C7008A11AF298A1113288313E5
:10002800483084006E308A11B7258A1183018A11FD
:10003800AC2C83120313B4002030AC002C08AF00A2
:100048009C292530370603192A282B2830283708F9
:100058008A11AA258A119C29B501B601B30139284C
:1000680033150130AC002C08B407340884008A1119
:1000780026238A11AC00AD012D08003A0319452842
:100088004A282C08303A031934284A2834088400AE
:100098008A1126238A118A1189258A11031C552859
:1000A80056288E2883120313B501B6010A30F000D2
:1000B8000030F100831203133608F3003508F2000C
:1000C8008A11E0248A11710883120313B60070089C
:1000D800B500340884008A1126238A11D03EAC006A
:1000E800FF3003180030AD002C08B5070318B60A16
:1000F8002D08B6070130AC002C08B407340884007A
:100108008A1126238A118A1189258A1103188D28B4
:100118008E285A28013083120313B407FF3034079E
:1001280084008A1126238A11B700AC00AD012D087E
:10013800003A0319A0289C292C08003A0319AE2973
:10014800643A0319AB280D3A0319AB289C292F08E8
:10015800840083130008B100840A0008B20002304A
:10016800AC002C08AF07B21FBA28BB28C42803303C
:10017800AC002C08B304B109B209B10A0319B20AD8
:10018800B701B70A3708AC002C07013E84008A1172
:1001980026238A11AD008A1126238A11AE002E0863
:1001A8003202031DD9282D0831020318DC28DD2866
:1001B800DE28E8280130AC002C08B70705303706E0
:1001C800031DE728E828C628350836040319ED2852
:1001D800EE28FA28330803390319F328F428FA28F3
:1001E800FF30B5070318B60AFF30B6073608803A5D
:1001F800803C031D01293508370203180429052905
:100208001129831203133708AC00AD012C08B5027D
:100218002D08031CB603B602152983120313B50172
:10022800B601331D182919293E2933080339031942
:100238001E291F2923292D308A11AA258A118312E4
:1002480003133508360403192A292B29602930306D
:100258008A11AA258A11FF3083120313B5070318E0
:10026800B60AFF30B60735083604031D3C293D2978
:100278002B296029350836040319432944295629AE
:1002880020308A11AA258A11FF3083120313B5077B
:100298000318B60AFF30B60735083604031D55297A
:1002A800562944293308033903195B295C29602935
:1002B8002D308A11AA258A11831203133708AC003E
:1002C8002C08B00091290A30F8000030F9003008F5
:1002D800AC002C07013E84008A1126238A11F00005
:1002E8008A1126238A11F1003208F3003108F2003E
:1002F8008A112E248A117108FB007008FA008A11ED
:1003080072248A117808303E83120313AD002D0839
:10031800B70037088A11AA258A11FF308312031300
:10032800AC002C08B007300A031D9B299C296729BB
:10033800013083120313B407FF30340784008A1195
:1003480026238A11AC002C08B7003708031DAD29F5
:10035800AE29252808000C1CB229B329A42A831623
:1003680003130C1CB829B929A42A831203130C10EF
:1003780009308E004C308F000130B8003808DB0798
:100388000A305B06031DC929CA29A42ADB01861580
:100398008A11B0228A118312031355080F39B80045
:1003A8003808E80055087039B8003808E900E90E3F
:1003B8000F30E9050A30B8003808F00069088A11DA
:1003C80060258A11831203136807B9003908E10010
:1003D80056080F39B8003808EB0056087039B800CD
:1003E8003808EA00EA0E0F30EA050A30B800380883
:1003F800F0006A088A1160258A11831203136B07BB
:10040800B9003908E00057080F39B8003808ED007E
:1004180057083039B8003808EC00EC0E0F30EC05FE
:100428000A30B8003808F0006C088A1160258A1173
:10043800831203136D07B9003908DF0058080F3914
:10044800B8003808E70058087039B8003808E600DE
:10045800E60E0F30E6050A30B8003808F0006608E6
:100468008A1160258A11831203136707B9003908B6
:10047800DE0059080F39B8003808E5005908703906
:10048800B8003808E400E40E0F30E4050A30B8007C
:100498003808F00064088A1160258A118312031352
:1004A8006507B9003908DD005A080F39B80038085F
:1004B800E2005A087039B8003808E300E30E0F303C
:1004C800E3050A30B8003808F00063088A1160258F
:1004D8008A11831203136207B9003908DC005F0828
:1004E800B800B9013808A0003908A1006008BA00AE
:1004F800BB013A08A2003B08A3006108BC00BD018B
:100508003C08A4003D08A5005E08BE00BF013E08E7
:10051800A6003F08A7005D08C000C1014008A80068
:100528004108A9005C08C200C3014208AA004308A8
:10053800AB000B308A111D208A1183120313861118
:1005480083124708FF0046088A0045088400440EC5
:100558008300FE0E7E0E09008A1175258A11D0309F
:100568008A118B238A11F4007408F5007508031D9D
:10057800BE2ABF2A252B00308A118B238A11F4004A
:100588007408F5007508031DCA2ACB2A252B8A1181
:1005980075258A11D1308A118B238A11F4007408C9
:1005A800F5007508031DD92ADA2A252B8A11DE23BE
:1005B8008A11F400740883120313D5008A110525E3
:1005C8008A118A11DE238A11F40074088312031336
:1005D800D6008A1105258A118A11DE238A11F400B2
:1005E800740883120313D7008A1105258A118A110A
:1005F800DE238A118A1105258A118A11DE238A11C0
:10060800F400740883120313D8008A1105258A118F
:100618008A11DE238A11F400740883120313D900A7
:100628008A1105258A118A11DE238A11F4007408BB
:1006380083120313DA008A1143258A118A112625A9
:100648008A11080003308A000408840A82070034EB
:10065800013400340A34003464340034E834033498
:100668001034273424344734503452344D3443340E
:100678002C34253430343234643425343034323434
:10068800643425343034323464342C3441342C34DA
:1006980031343134353437342E3434343034323420
:1006A80039342C3453342C343034373436343534EC
:1006B80032342E3435343534373436342C345734D8
:1006C8002C343034303430342E3430342C3430340C
:1006D800303430342E3430342C3425343034323401
:1006E800643425343034323464342534303432348C
:1006F80064342C343034303430342E3434342C34A4
:1007080045342A34373431340A340D340034F10096
:10071800F201831203130612831603130612F11F44
:10072800962B972B992B86169F2B831203138612D1
:100738008316031386120230F000F00BA12BA42BB2
:100748008316031306160230F000F00BA92BAC2B0E
:100758000310F10D0130F0007008F2070830720242
:10076800031CB72BB82B8D2B831203130612831689
:100778000313061286160230F000F00BC12BC42BAF
:100788008316031306160230F000F00BC92BCC2B8E
:1007980083120313861ED12BD22BD72BFF30F000E8
:1007A8007008F300D82BF301061283160313061200
:1007B80073080800831603138616F101F2018312E9
:1007C80006128316031306120230F000F00BEA2B10
:1007D800ED2B8316031306160230F000F00BF22BF4
:1007E800F52B83120313861EFA2BFB2B002C7208A1
:1007F8000138F0007008F2000310F20D0130F0002B
:100808007008F10707307102031C0B2C0C2CE32B2A
:1008180006128316031306120230F000F00B122C96
:10082800152C8316031306160230F000F00B1A2C51
:100838001D2C83120313861E222C232C282C7208AD
:100848000138F0007008F20006128316031306122E
:1008580072080800F501F601700871040319352CB7
:10086800362C6D2CF701F70A442C01300310F00DDB
:10087800F10DFF3E031D3A2C0130F4007408F70710
:10088800F11F472C482C392C01300310F50DF60DBB
:10089800FF3E031D492C71087302031D552C700877
:1008A8007202031C582C592C602C7008F202710833
:1008B800031CF303F302751401300310F10CF00C60
:1008C800FF3E031D612C0130F702031D6C2C6D2CBB
:1008D800482C7608F1007508F000080078087904BB
:1008E8000319772C782CA72CFD01FD0A862C0130E2
:1008F8000310F80DF90DFF3E031D7C2C0130FC00A0
:100908007C08FD07F91F892C8A2C7B2C79087B022F
:10091800031D902C78087A02031C932C942C9A2C93
:100928007808FA027908031CFB03FB020130031064
:10093800F90CF80CFF3E031D9B2C0130FD02031D32
:10094800A62CA72C8A2C7B08F9007A08F800080046
:100958000730831203139F0485018601831603134E
:100968008501860186160616183083160313A10022
:10097800EE30A000A00BBE2CA10BBE2CC32C831202
:100988000313DB011008CF39203890009011901024
:1009980009308E004C308F0010140C10831603138E
:1009A8000C140B178B178A119B258A118A11BF25E6
:1009B8008A11DD2C8A111128F401F501701CE52C2F
:1009C800E62CEC2C7208F4070318F50A7308F507EF
:1009D80001300310F20DF30DFF3E031DED2C013025
:1009E8000310F10CF00CFF3E031DF42C7008710489
:1009F800031DFF2C002DE22C7508F1007408F0008F
:100A080008008312031306128316031306128312B7
:100A1800031386128316031386120230F000F00BBC
:100A2800132D162D8316031306160230F000F00B53
:100A38001B2D1E2D83120313061283160313061291
:100A48008616080083120313861283160313861270
:100A58008312031306128316031306120230F000E2
:100A6800F00B342D372D8316031306160230F000D1
:100A7800F00B3C2D3F2D83160313861608008316B2
:100A88000313861683120313061283160313061222
:100A98000230F000F00B4E2D512D8316031306166D
:100AA8000230F000F00B562D592D83120313061255
:100AB8008316031306120800F300F201731C652D58
:100AC800662D6A2D7008F1007108F2070310F00D09
:100AD8000310F30C7308031D722D732D622D720819
:100AE80008008316031306160230F000F00B7A2D67
:100AF8007D2D831203138612831603138612023088
:100B0800F000F00B852D882D0800F100F0013A3037
:100B180071020318902D912D992D30307102031C0C
:100B2800962D972D992DF001F00A700C0800831668
:100B38000313061186142030980010308312031313
:100B4800980002308316031399000800F00070081B
:100B5800831203139900000083160313981CB52D04
:100B6800B62DB02D080064008001840A040603191C
:100B780000340406B82D8312031398170800831253
:060B88000313981308009E
:02400E00023F6F
:00000001FF
