:060000000A128A11FC2F18
:100F7E00831603131F08F03906389F0083120313DC
:100F8E00850186018701831603138501860187017A
:100F9E0083120313071783160313061406168715F9
:100FAE0087168312031305140730F2003C30F1004C
:100FBE00D130F000F00BE12FF10BE12FF20BE12F0E
:100FCE00E82F8312031305100730F2003C30F100B6
:100FDE00D130F000F00BF12FF10BF12FF20BF12FBE
:100FEE00F82FD82F0A128A11002883010A128A11AB
:020FFE00BF2F03
:08400000FF3FFF3FFF3FFF3FC0
:02400E00323F3F
:00000001FF
