:060000000A128A11122809
:10000800FE00030E83120313E7000408E8000A0841
:10001800E9007F08EA000A128A15B22C0A128A112E
:10002800152883132030840050300A128A11F527CE
:100038000A128A11A0308400B5300A128A11F527F5
:100048000A128A1183010A168A11242F36300A16D9
:100058008A1146260A128A110C308312031386006D
:10006800173083120313E4005530E300E30B3A28FA
:10007800E40B3A280000003083160313A700003071
:10008800A6000030A5000030A40080300A168A11AE
:1000980011260A128A1183120313D60100300A129C
:1000A8008A15E7220A128A1183120313EC018030A1
:1000B8000A168A1111260A128A1183120313D6010D
:1000C80001300A128A15E7220A128A1183120313D1
:1000D800590883160313A3008312031358088316C1
:1000E8000313A20083120313570883160313A100F6
:1000F80083120313560883160313A000240820074D
:1001080083120313E300003003180130831603132E
:10011800250783120313E5010318E50A8316031361
:10012800210783120313E4000318E50A8316031357
:100138002608831203136507E6010318E60A8316E7
:100148000313220783120313E5000318E60A831634
:100158000313270883120313660783160313230761
:1001680083120313E600660883160313A70083129D
:100178000313650883160313A60083120313640888
:1001880083160313A500831203136308831603134E
:10019800A4000130FF007F0883120313EC07053029
:1001A8006C02031CD828D9285B280030F3000030E3
:1001B800F2000030F1000530F00083160313270821
:1001C800F7002608F6002508F5002408F4000A12AE
:1001D8008A154A220A128A11730883160313A30088
:1001E8007208A2007108A1007008A0002308F4009A
:1001F8002208F3002108F2002008F1000A168A11EB
:10020800E9260A128A11B32F37300A168A114626B0
:100218000A128A11B32F38300A168A1146260A1292
:100228008A11033083120313CE00831603130113BC
:100238008B100B16B32F051510308F0006308E006B
:10024800313090000C10831603130C1439300A1641
:100258008A1146260A128A11C0300A168A111126F6
:100268000A128A1183120313CC01CD010130F10067
:100278008030F2000A168A119B260A128A110A1681
:100288008A1131260A128A11383083120313860024
:100298008617173083120313E4005530E300E30B8D
:1002A8005329E40B53290000003083120313C700BD
:1002B8000030C6000030C5000030C400D601003050
:1002C8000A128A15E7220A128A1183120313EC0113
:1002D800D60101300A128A15E7220A128A118312FE
:1002E80003135908B3005808B2005708B10056085C
:1002F800B00044083007E300003003180130450718
:10030800E5010318E50A3107E4000318E50A460881
:100318006507E6010318E60A3207E5000318E60A4E
:10032800470866073307E6006608C7006508C60081
:100338006408C5006308C4000130FF007F08EC07AB
:1003480005306C02031CA929AA296C2986130A16F0
:100358008A1131260A128A11183083120313860073
:10036800173083120313E4005530E300E30BBA2976
:10037800E40BBA290000003083120313C3000030D5
:10038800C2000030C1000030C000D60100300A129F
:100398008A15E7220A128A1183120313EC01D60187
:1003A80001300A128A15E7220A128A1183120313EE
:1003B8005908AF005808AE005708AD005608AC0001
:1003C80040082C07E3000030031801304107E5011D
:1003D8000318E50A2D07E4000318E50A4208650733
:1003E800E6010318E60A2E07E5000318E60A4308A3
:1003F80066072F07E6006608C3006508C2006408A0
:10040800C1006308C0000130FF007F08EC07053019
:100418006C02031C102A112AD3290A168A113126C4
:100428000A128A11283083120313860017308312A8
:100438000313E4005530E300E30B202AE40B202AE1
:100448000000003083120313BF000030BE000030EC
:10045800BD000030BC00D60100300A128A15E72220
:100468000A128A1183120313EC01D60101300A1211
:100478008A15E7220A128A11831203135908AB005E
:100488005808AA005708A9005608A8003C082807D9
:10049800E3000030031801303D07E5010318E50AC1
:1004A8002907E4000318E50A3E086507E601031872
:1004B800E60A2A07E5000318E60A3F0866072B073D
:1004C800E6006608BF006508BE006408BD00630852
:1004D800BC000130FF007F08EC0705306C02031CEC
:1004E800762A772A392A0A168A1131260A128A1197
:1004F8000830831203138600173083120313E400B5
:100508005530E300E30B862AE40B862A000000300E
:1005180083120313BB000030BA000030B90000306A
:10052800B800D60100300A128A15E7220A128A1189
:1005380083120313EC01D60101300A128A15E7224F
:100548000A128A11831203135908A7005808A60033
:100558005708A5005608A40038082407E30000300F
:10056800031801303907E5010318E50A2507E400F7
:100578000318E50A3A086507E6010318E60A26079C
:10058800E5000318E60A3B0866072707E600660841
:10059800BB006508BA006408B9006308B8000130F8
:1005A800FF007F08EC0705306C02031CDC2ADD2AFB
:1005B8009F2A0A168A1131260A128A1104308312D8
:1005C80003138600173083120313E4005530E30049
:1005D800E30BEC2AE40BEC2A00000030831203132F
:1005E800B7000030B6000030B5000030B400D601C6
:1005F80000300A128A15E7220A128A11831203139D
:10060800EC01D60101300A128A15E7220A128A1172
:10061800831203135908A3005808A2005708A10021
:100628005608A00034082007E30000300318013002
:100638003507E5010318E50A2107E4000318E50A70
:1006480036086507E6010318E60A2207E5000318DD
:10065800E60A370866072307E6006608B700650854
:10066800B6006408B5006308B4000130FF007F08D5
:10067800EC0705306C02031C422B432B052B003082
:10068800F3000030F2000030F1000530F0004708B8
:10069800F7004608F6004508F5004408F4000A1279
:1006A8008A154A220A128A11730883120313B300A7
:1006B8007208B2007108B1007008B0000030F30091
:1006C8000030F2000030F1000530F0004308F70078
:1006D8004208F6004108F5004008F4000A128A159D
:1006E8004A220A128A11730883120313AF00720890
:1006F800AE007108AD007008AC000030F3000030A7
:10070800F2000030F1000530F0003F08F7003E0825
:10071800F6003D08F5003C08F4000A128A154A2242
:100728000A128A11730883120313AB007208AA0015
:100738007108A9007008A8000030F3000030F2002A
:100748000030F1000530F0003B08F7003A08F600E9
:100758003908F5003808F4000A128A154A220A12E4
:100768008A11730883120313A7007208A600710880
:10077800A5007008A4000030F3000030F20000303B
:10078800F1000530F0003708F7003608F6003508A4
:10079800F5003408F4000A128A154A220A128A114E
:1007A800730883120313A3007208A2007108A10042
:1007B8007008A0003930F1008030F2000A168A1162
:1007C8009B260A128A11831203134C080A128A15EF
:1007D80001200A128A11831203133308F400320825
:1007E800F3003108F2003008F1000A168A11E926F0
:1007F8000A128A11831203132F08F4002E08F3003B
:100808002D08F2002C08F1000A168A11E9260A12AE
:100818008A11831203132B08F4002A08F30029080D
:10082800F2002808F1000A168A11E9260A128A112C
:10083800831203132708F4002608F3002508F200A2
:100848002408F1000A168A11E9260A128A1183126D
:1008580003132308F4002208F3002108F2002008FB
:10086800F1000A168A11E9260A128A111630F100D7
:100878008030F2000A168A119B260A128A11831206
:1008880003130511B32F58300A168A1146260A1287
:100898008A11831203131816B32F6B08E300E401BF
:1008A8006408003A0319592C472C6308303A0A1295
:1008B8008A1503190B2C013A0319212C033A031941
:1008C800312C013A0319412C073A0319982C0A12C2
:1008D8008A11013A0319C32F033A03192A28013A46
:1008E800031908290F3A03190F29013A03191F2977
:1008F800472C83120C1C812C822CB32F83160313D4
:100908000C1C872C882CB32F8312031305150C108D
:1009180010308F0006308E000130FF007F08CC07B2
:100928000A168A1131260A128A11383083120313E3
:1009380086008617173083120313E4005530E3004E
:10094800E30BA42CE40BA42C000000308312031347
:10095800C7000030C6000030C5000030C400D60112
:1009680000300A128A15E7220A128A118312031329
:10097800EC01D60101300A128A15E7220A128A11FF
:10098800831203135908B3005808B2005708B1007E
:100998005608B00044083007E3000030031801305F
:1009A8004507E5010318E50A3107E4000318E50ADD
:1009B80046086507E6010318E60A3207E50003184A
:1009C800E60A470866073307E6006608C7006508B1
:1009D800C6006408C5006308C4000130FF007F0832
:1009E800EC0705306C02031CFA2CFB2CBD2C86137B
:1009F8000A168A1131260A128A1118308312031333
:100A08008600173083120313E4005530E300E30B2C
:100A18000B2DE40B0B2D0000003083120313C300D1
:100A28000030C2000030C1000030C000D6010030E4
:100A38000A128A15E7220A128A1183120313EC019B
:100A4800D60101300A128A15E7220A128A11831286
:100A580003135908AF005808AE005708AD005608F0
:100A6800AC0040082C07E3000030031801304107B0
:100A7800E5010318E50A2D07E4000318E50A420812
:100A88006507E6010318E60A2E07E5000318E60ADB
:100A9800430866072F07E6006608C3006508C2001A
:100AA8006408C1006308C0000130FF007F08EC073C
:100AB80005306C02031C612D622D242D0A168A1143
:100AC80031260A128A112830831203138600173040
:100AD80083120313E4005530E300E30B712DE40B9C
:100AE800712D0000003083120313BF000030BE00D8
:100AF8000030BD000030BC00D60100300A128A1553
:100B0800E7220A128A1183120313EC01D60101307D
:100B18000A128A15E7220A128A1183120313590846
:100B2800AB005808AA005708A9005608A8003C08B6
:100B38002807E3000030031801303D07E5010318DA
:100B4800E50A2907E4000318E50A3E086507E601F7
:100B58000318E60A2A07E5000318E60A3F086607AD
:100B68002B07E6006608BF006508BE006408BD00E4
:100B78006308BC000130FF007F08EC0705306C02F9
:100B8800031CC72DC82D8A2D0A168A1131260A1270
:100B98008A11083083120313860017308312031357
:100BA800E4005530E300E30BD72DE40BD72D00000C
:100BB800003083120313BB000030BA000030B900C4
:100BC8000030B800D60100300A128A15E7220A124E
:100BD8008A1183120313EC01D60101300A128A1517
:100BE800E7220A128A11831203135908A70058082A
:100BF800A6005708A5005608A40038082407E300F3
:100C08000030031801303907E5010318E50A250704
:100C1800E4000318E50A3A086507E6010318E60A3E
:100C28002607E5000318E60A3B0866072707E600DB
:100C38006608BB006508BA006408B9006308B80014
:100C48000130FF007F08EC0705306C02031C2D2ED5
:100C58002E2EF02D0A168A1131260A128A11043016
:100C6800831203138600173083120313E4005530F0
:100C7800E300E30B3D2EE40B3D2E00000030831211
:100C88000313B7000030B6000030B5000030B400E0
:100C9800D60100300A128A15E7220A128A11831235
:100CA8000313EC01D60101300A128A15E7220A1251
:100CB8008A11831203135908A3005808A200570881
:100CC800A1005608A00034082007E30000300318EC
:100CD80001303507E5010318E50A2107E400031888
:100CE800E50A36086507E6010318E60A2207E50063
:100CF8000318E60A370866072307E6006608B70000
:100D08006508B6006408B5006308B4000130FF0048
:100D18007F08EC0705306C02031C932E942E562E88
:100D28000030F3000030F2000030F1000530F00030
:100D38004708F7004608F6004508F5004408F4009F
:100D48000A128A154A220A128A1173088312031397
:100D5800B3007208B2007108B1007008B00000302A
:100D6800F3000030F2000030F1000530F0004308D5
:100D7800F7004208F6004108F5004008F4000A129E
:100D88008A154A220A128A11730883120313AF00C4
:100D98007208AE007108AD007008AC000030F300B6
:100DA8000030F2000030F1000530F0003F08F70095
:100DB8003E08F6003D08F5003C08F4000A128A15C2
:100DC8004A220A128A11730883120313AB007208AD
:100DD800AA007108A9007008A8000030F3000030CC
:100DE800F2000030F1000530F0003B08F7003A0847
:100DF800F6003908F5003808F4000A128A154A2264
:100E08000A128A11730883120313A7007208A60036
:100E18007108A5007008A4000030F3000030F2004B
:100E28000030F1000530F0003708F7003608F6000A
:100E38003508F5003408F4000A128A154A220A1205
:100E48008A11730883120313A3007208A2007108A1
:100E5800A1007008A0003930F1008030F2000A16B5
:100E68008A119B260A128A11831203134C080A124C
:100E78008A1501200A128A11831203133308F40019
:100E88003208F3003108F2003008F1000A168A111E
:100E9800E9260A128A11831203132F08F4002E0878
:100EA800F3002D08F2002C08F1000A168A11E92631
:100EB8000A128A11831203132B08F4002A08F3007C
:100EC8002908F2002808F1000A168A11E9260A12F0
:100ED8008A11831203132708F4002608F300250853
:100EE800F2002408F1000A168A11E9260A128A116A
:100EF800831203132308F4002208F3002108F200E8
:100F08002008F1000A168A11E9260A128A111630F9
:100F1800F1008030F2000A168A119B260A128A1103
:100F280083120313051104304C06031D9C2F9D2FBB
:100F3800B32F831603130C10831203134D03031DE1
:100F4800A62FA72FAA2F8B100B16B32FFF30D60072
:100F580000300A128A15E7220A128A11B32F831267
:100F680003136A08FF0069088A0068088400670E8E
:100F78008300FE0E7E0E09000A128A15C12C0A1281
:100F88008A15012CF3002430F1008030F2000A1693
:100F98008A119B260A128A1173080A128A150120DF
:100FA8000A128A11F4017408A83E84008313000809
:100FB8000A128A1501200A128A110130FF007F08DF
:100FC800F4070C307402031CEA2FEB2FD72F1630CE
:100FD800F1008030F2000A168A119B260A128A1143
:100FE800080064008001840A04060319003404061A
:020FF800F62FD2
:10100200F000700883120313990000008312031387
:101012000C1E0C280D2807280800F10071080A167A
:101022008A1111260A128A1500300A168A1111260F
:101032000A128A1583120313C80000300A168A1195
:1010420011260A128A1583120313C90000300A16E8
:101052008A1111260A128A1583120313CA0000305C
:101062000A168A1111260A128A1583120313CB005B
:101072000800F40182280A168A11B0270A128A157A
:101082004330831203134F06031D482849287E2844
:10109200F5015C280A168A11B0270A128A152C302B
:1010A200831203134F06031D572858285C2801306A
:1010B200FF007F08F50705307502031C61286228CE
:1010C2004B28F5010A168A11B0270A128A157508EB
:1010D200A83E8400831203134F088313800001305B
:1010E200FF007F08F5070C307502031C79287A2867
:1010F200632883160313B40188280130FF007F0898
:10110200F40796307402031C872888283C282D3067
:10111200F300AD30F200F20B8C28F30B8C289128EF
:101122000800F401DB280A168A11B0270A128A1570
:101132004330831203134F06031DA028A128D7288A
:10114200F501B4280A168A11B0270A128A152C3022
:10115200831203134F06031DAF28B028B4280130B1
:10116200FF007F08F50703307502031CB928BA286F
:10117200A328F5010A168A11B0270A128A157508E2
:10118200A83E8400831203134F08831380000130AA
:10119200FF007F08F5070B307502031CD128D22807
:1011A200BB2883160313B301B401E1280130FF0009
:1011B2007F08F40796307402031CE028E128942883
:1011C2002D30F300AD30F200F20BE528F30BE528E9
:1011D200EA280800F0010A168A1121260A128A1545
:1011E200F1004A307106031DF728F828F92803296F
:1011F2000130FF007F08F0070A307002031C022949
:101202000329EC280A3070020318082909295129F8
:101212000A168A1121260A128A15F1005230710625
:10122200031D1429152951290A168A1121260A1289
:101232008A15F1004F307106031D202921295129F9
:101242000A168A1121260A128A15F1004330710604
:10125200031D2C292D2951290A168A1121260A1229
:101262008A15F1000A168A1121260A128A15F1003E
:101272000A168A1121260A128A1583160313B4004C
:101282000A168A1121260A128A15F1000A168A11F3
:1012920021260A128A15F1008316031334085529F0
:1012A20083120313181258300800F201BB290A16E0
:1012B2008A11B0270A128A154330831203134F068C
:1012C200031D64296529B7290A168A11B0270A1253
:1012D2008A15F3010A168A11B0270A128A157308B1
:1012E200A83E8400831203134F0883138000013049
:1012F200FF007F08F30706307302031C812982294D
:101302006B29F30195290A168A11B0270A128A1548
:101312002C30831203134F06031D9029912995291E
:101322000130FF007F08F30708307302031C9A297B
:101332009B298429F3010A168A11B0270A128A15F9
:101342007308AE3E8400831203134F088313800098
:101352000130FF007F08F30706307302031CB22935
:10136200B3299C2983160313B401C1290130FF005C
:101372007F08F20796307202031CC029C12958293E
:101382000800F201F301402A0A168A11B0270A1254
:101392008A154330831203134F06031DD129D22924
:1013A2003A2A0A168A11B0270A128A15F4010A1675
:1013B2008A11B0270A128A157408A83E8400831283
:1013C20003134F08831380000130FF007F08F407E6
:1013D20006307402031CEE29EF29D8290A168A1155
:1013E200B0270A128A150A168A11B0270A128A151C
:1013F2004130831203134F06031D002A012A402A9B
:10140200F401142A0A168A11B0270A128A152C30FE
:10141200831203134F06031D0F2A102A142A0130C8
:10142200FF007F08F40707307402031C192A1A2AE6
:10143200032AF4010A168A11B0270A128A157408BF
:10144200AE3E8400831203134F08831380000130E1
:10145200FF007F08F40706307402031C312A322A87
:101462001B2A83160313B401413083120313CF00E6
:10147200492A0130F2070318F30A0030F30710304B
:101482007302683003197202031C482A492AC529CB
:10149200080083120313D101F31F502A512A5E2A36
:1014A200F009F109F209F309F00A0319F10A031923
:1014B200F20A0319F30AD101D10AF71F612A622A3B
:1014C200712AF409F509F609F709F40A0319F50A6C
:1014D2000319F60A0319F70A0130FF007F08D10643
:1014E2000030D5000030D4000030D3000030D200EC
:1014F20073087204710470040319802A812ACE2AA7
:10150200D001D00A912A0130F8000310F00DF10D3C
:10151200F20DF30DF80B862A0130FF007F08D00789
:10152200F31F942A952A842A0130F8000310D20D61
:10153200D30DD40DD50DF80B972A73087702031D2E
:10154200AC2A72087602031DAC2A71087502031DCB
:10155200AC2A70087402031CAF2AB02ABF2A700892
:10156200F4027108031C710FF5027208031C720F5A
:10157200F6027308031C730FF702521401300310B2
:10158200F30CF20CF10CF00CFF3E031DC02A0130EB
:10159200D002031DCD2ACE2A952A51080319D22A38
:1015A200D32ADE2AD209D309D409D509D20A0319CA
:1015B200D30A0319D40A0319D50A5508F3005408AB
:1015C200F2005308F1005208F0000800F9008312FB
:1015D2000313071AED2AEE2AE82A56080A128A1578
:1015E2000E200A128A150030FD000030FC00003087
:1015F200FB000030FA0079080319002B012B922B13
:101602007A0883120313DA007B08DB007C08DC0013
:101612007D08DD004808DE00DF01E001E10118304D
:101622000310DE0DDF0DE00DE10DFF3E031D112B5A
:101632005E08DA045F08DB046008DC046108DD048C
:101642005D08FD005C08FC005B08FB005A08FA001C
:101652007A08DA007B08DB007C08DC007D08DD000C
:101662004908DE00DF01E001E10110300310DE0D68
:10167200DF0DE00DE10DFF3E031D372B5E08DA049E
:101682005F08DB046008DC046108DD045D08FD001E
:101692005C08FC005B08FB005A08FA007A08DA00D2
:1016A2007B08DB007C08DC007D08DD004A08DE00E8
:1016B200DF01E001E10108300310DE0DDF0DE00D76
:1016C200E10DFF3E031D5D2B5E08DA045F08DB04BB
:1016D2006008DC046108DD045D08FD005C08FC00B4
:1016E2005B08FB005A08FA000030F3000030F200F9
:1016F2000130F1000030F0007D08F7007C08F600B0
:101702007B08F5007A08F4000A128A154A220A12A6
:101712008A157308FD007208FC007108FB0070084E
:10172200FA007D0883120313D9007C08D8007B08D5
:10173200D7007A08D60008000A128A1592200A12E7
:101742008A1531300A128A11C6270A128A150A121C
:101752008A11B32F0A128A153A200A128A153230D8
:101762000A128A11C6270A128A15A82B0A128A158A
:10177200C2210A128A154130831203134F06031D38
:10178200C32BC42BCB2B38300A128A11C6270A125C
:101792008A15A82B30300A128A11C6270A128A1516
:1017A200A82B0000A82B4E08E300E4016408003ACD
:1017B2000319DC2BD22B6308003A0319AF2C013A30
:1017C20003199D2B033A0319AB2B013A0319B72BCB
:1017D200D22B8C1EED2BF02B0A128A117D2C831634
:1017E20003138C1EF52BF62BED2B0A128A15EB2018
:1017F2000A128A1583120313EB000A128A11512C62
:1018020035300A168A1146260A128A1583120313E4
:10181200CD01A82B30300A168A1146260A128A15E3
:10182200563083160313A8003230A9003030AA00C4
:10183200B40130300A128A11C6270A128A15A82B5F
:1018420031300A168A1146260A128A1583120313A8
:10185200CE01CE0A8316031301138B100B16A82B8D
:1018620032300A168A1146260A128A15023083126B
:101872000313CE008316031301138B100B16A82B30
:1018820033300A168A1146260A128A150A168A1156
:1018920063270A128A1583160313A8000A168A11EF
:1018A2007D260A128A1509300A128A150E200A129A
:1018B2008A1583120313480883160313A90083129F
:1018C2000313490883160313AA00831203134A0859
:1018D20083160313AB00831203134B0883160313FF
:1018E200AC000A300A128A150E200A128A158312D7
:1018F2000313480883160313AD0083120313490828
:1019020083160313AE00831203134A0883160313CC
:10191200AF00831203134B0883160313B000B40104
:1019220033300A128A11C6270A128A15A82B3430BC
:101932000A168A1146260A128A1583120313CE0149
:10194200CD01CD0AC0300A168A1111260A128A1553
:101952008316031301138B100B16A82B0A128A117C
:10196200C02F8B1CB52CB82C0A128A15EA2B0B1E21
:10197200BB2CBC2CB52C8B100B120A128A15D42B43
:101982004D03031DC52CC82C0A128A11B32F05154D
:1019920010308F0006308E00313090000C1083160C
:1019A20003130C1483120313CC0186170A128A152F
:1019B20056210A128A158312031386132F30F1005F
:1019C2008030F2000A168A119B260A128A15A83064
:1019D200F1000030F2000A168A119B260A128A15BB
:1019E2001630F1008030F2000A168A119B260A1284
:1019F2008A150A168A1131260A128A15383083127C
:101A0200031386008617173083120313E400553040
:101A1200E300E30B0A2DE40B0A2D000000308312D1
:101A22000313C7000030C6000030C5000030C400F8
:101A3200D60100300A128A15E7220A128A15831289
:101A42000313EC01D60101300A128A15E7220A12A9
:101A52008A15831203135908B3005808B2005708B5
:101A6200B1005608B00044083007E3000030031804
:101A720001304507E5010318E50A3107E4000318C0
:101A8200E50A46086507E6010318E60A3207E5009B
:101A92000318E60A470866073307E6006608C70028
:101AA2006508C6006408C5006308C4000130FF0071
:101AB2007F08EC0705306C02031C602D612D232D7D
:101AC20086130A168A1131260A128A1518308312D1
:101AD20003138600173083120313E4005530E3002A
:101AE200E30B712DE40B712D000000308312031300
:101AF200C3000030C2000030C1000030C000D60177
:101B020000300A128A15E7220A128A158312031379
:101B1200EC01D60101300A128A15E7220A128A154F
:101B2200831203135908AF005808AE005708AD00DE
:101B32005608AC0040082C07E300003003180130BF
:101B42004107E5010318E50A2D07E4000318E50A39
:101B520042086507E6010318E60A2E07E5000318A6
:101B6200E60A430866072F07E6006608C300650811
:101B7200C2006408C1006308C0000130FF007F0892
:101B8200EC0705306C02031CC72DC82D8A2D0A16DE
:101B92008A1131260A128A1528308312031386000D
:101BA200173083120313E4005530E300E30BD72D03
:101BB200E40BD72D0000003083120313BF00003066
:101BC200BE000030BD000030BC00D60100300A1259
:101BD2008A15E7220A128A1583120313EC01D60131
:101BE20001300A128A15E7220A128A158312031398
:101BF2005908AB005808AA005708A9005608A800BF
:101C02003C082807E3000030031801303D07E501D6
:101C12000318E50A2907E4000318E50A3E086507E8
:101C2200E6010318E60A2A07E5000318E60A3F0858
:101C320066072B07E6006608BF006508BE00640859
:101C4200BD006308BC000130FF007F08EC070530CF
:101C52006C02031C2D2E2E2EF02D0A168A1131260F
:101C62000A128A1508308312031386001730831272
:101C72000313E4005530E300E30B3D2EE40B3D2E4D
:101C82000000003083120313BB000030BA000030A2
:101C9200B9000030B800D60100300A128A15E722D6
:101CA2000A128A1583120313EC01D60101300A12BB
:101CB2008A15E7220A128A15831203135908A7000C
:101CC2005808A6005708A5005608A400380824079B
:101CD200E3000030031801303907E5010318E50A73
:101CE2002507E4000318E50A3A086507E601031828
:101CF200E60A2607E5000318E60A3B0866072707F7
:101D0200E6006608BB006508BA006408B90063080B
:101D1200B8000130FF007F08EC0705306C02031C9D
:101D2200932E942E562E0A168A1131260A128A15DD
:101D32000430831203138600173083120313E40066
:101D42005530E300E30BA32EE40BA32E000000307A
:101D520083120313B7000030B6000030B500003024
:101D6200B400D60100300A128A15E7220A128A1537
:101D720083120313EC01D60101300A128A15E722FD
:101D82000A128A15831203135908A3005808A200E5
:101D92005708A1005608A00034082007E3000030CD
:101DA200031801303507E5010318E50A2107E400AD
:101DB2000318E50A36086507E6010318E60A220752
:101DC200E5000318E60A370866072307E6006608F7
:101DD200B7006508B6006408B5006308B4000130B6
:101DE200FF007F08EC0705306C02031CF92EFA2E67
:101DF200BC2E0030F3000030F2000030F10005305C
:101E0200F0004708F7004608F6004508F5004408C8
:101E1200F4000A128A154A220A128A1573088312DA
:101E22000313B3007208B2007108B1007008B00069
:101E32000030F3000030F2000030F1000530F00015
:101E42004308F7004208F6004108F5004008F40094
:101E52000A128A154A220A128A1573088312031378
:101E6200AF007208AE007108AD007008AC0000301F
:101E7200F3000030F2000030F1000530F0003F08BE
:101E8200F7003E08F6003D08F5003C08F4000A128F
:101E92008A154A220A128A15730883120313AB00A9
:101EA2007208AA007108A9007008A8000030F300A7
:101EB2000030F2000030F1000530F0003B08F7007E
:101EC2003A08F6003908F5003808F4000A128A15B3
:101ED2004A220A128A15730883120313A700720892
:101EE200A6007108A5007008A4000030F3000030BD
:101EF200F2000030F1000530F0003708F700360834
:101F0200F6003508F5003408F4000A128A154A2250
:101F12000A128A15730883120313A3007208A2001F
:101F22007108A1007008A0003930F1008030F20081
:101F32000A168A119B260A128A15831203134C0869
:101F42000A128A1501200A128A1583120313330812
:101F5200F4003208F3003108F2003008F1000A16EA
:101F62008A11E9260A128A15831203132F08F40034
:101F72002E08F3002D08F2002C08F1000A168A112F
:101F8200E9260A128A15831203132B08F4002A0881
:101F9200F3002908F2002808F1000A168A11E9263E
:101FA2000A128A15831203132708F4002608F30085
:101FB2002508F2002408F1000A168A11E9260A12FD
:101FC2008A15831203132308F4002208F300210860
:101FD200F2002008F1000A168A11E9260A128A156F
:101FE2001630F1008030F2000A168A119B260A127E
:101FF2008A158312031305110A128A11B32FFF1BCC
:102002000A2883137F1883170008840A0319FF0A1A
:10201200080010308A000408840A8207003447341A
:102022002D344A3452344F344434413454344534D8
:10203200583458345834583458345834583458343E
:1020420058345834583458340A340D3400344E3429
:102052004E344E344E344A3452344F3443344D3479
:10206200443400344E344E344E344E344A345234B6
:102072004F34443441345434003447342D344A34D8
:1020820052344F34443441345434453400344A34A5
:0C20920052344F34413444345134003493
:102BE400831203139412080083120313981308002A
:102BF4008312031394160800831203139817080012
:102C0400831603138711071687129413141783125C
:102C1400031314121408F039013894000800F0006A
:102C24008312031313087008930083160313141CF0
:102C34001C2E1D2E172E8312031313080800831253
:102C44000313910112158C1A282E292E2D2E8C1C5B
:102C54002C2E2D2E252E12118C101A0808000C3043
:102C6400831203138600503083120313E200E20B35
:102C7400392E3C2E83120313D60100300A128A1512
:102C8400E7220A168A110800F3001930F100803097
:102C9400F2000A168A119B260A168A1173080A1270
:102CA4008A1501200A168A111630F1008030F200CC
:102CB4000A168A119B260A168A1108008316031322
:102CC40007138717243098001030831203139800D9
:102CD4000F308316031399007A3083120313920082
:102CE400FF30831603139200831203138C10831690
:102CF40003138C1608000B300A128A150E200A16CC
:102D04008A1183120313C81403300A168A11C126C8
:102D14000A168A11053083120313C800C90105304D
:102D2400CA00CB0105300A168A11C1260A168A1177
:102D34000800B02E7208FF00710884000A168A1178
:102D440000200A168A110A128A1501200A168A110D
:102D54000130F1070318F20A0030F20772088312F7
:102D64000313FF00710884000A168A1100200A1652
:102D74008A11003A031DBF2EC02E9C2E0800F100BC
:102D840071080A168A1111260A168A11831203136E
:102D940048080A168A1111260A168A118312031387
:102DA40049080A168A1111260A168A118312031376
:102DB4004A080A168A1111260A168A118312031365
:102DC4004B080A168A1111260A168A11080071087E
:102DD400F5007208F6007308F7007408F800103064
:102DE400F900780DF80CF70CF60CF50CF90BF32E32
:102DF4007508FC007108F5007208F6007308F70006
:102E04007408F8000830F900780DF80CF70CF60C8B
:102E1400F50CF90B062F7508FB007108FA007A0807
:102E24000A128A1501200A168A117B080A128A15C9
:102E340001200A168A117C080A128A1501200A1632
:102E44008A1108000630831603139F0083120313AC
:102E540085018514860187010130831603138500DB
:102E64000130860087018113023083160313B700F3
:102E74004030B6002730B500B50B3E2FB60B3E2FC1
:102E8400B70B3E2F0A168A1102260A168A110A1651
:102E94008A11FA250A168A110A168A1160260A1658
:102EA4008A110A168A11FE250A168A110B178B1726
:102EB400831203130511861306135F2F0A128A1156
:102EC4001228F401FF300A168A1111260A168A11F3
:102ED4000130FF007F08F4070F307402031C732FC6
:102EE400742F642FFE300A168A1111260A168A11CD
:102EF4000730F3006030F200F20B7E2FF30B7E2FCD
:102F0400832F0B300A128A150E200A168A11831297
:102F14000313C81603300A168A11C1260A168A1129
:102F24001430F200F20B942FDF30FF007F0883127D
:102F34000313C80503300A168A11C1260A168A111A
:102F44001430F200F20BA42F0B300A128A150E2053
:102F54000A168A1183120313480808008312031304
:102F6400CF010618B62FB72FB32F0B30F000F00B9C
:102F7400B92FBC2FF1010B30F000F00BBF2FC22F83
:102F84000000000083120313061CC92FCA2FCE2F82
:102F94004F088038CF00D42F00000000000000004C
:102FA40000000000031083120313CF0C0130FF0054
:102FB4007F08F10707307102031CE12FE22FBD2FB8
:102FC4000B30F000F00BE42FE72F000000000000AE
:102FD40083120313061CEF2FF02FF42F4F088038B1
:102FE400CF00FA2F000000000000000000000000E5
:0C2FF4000930F000F00BFC2F000008007A
:08400000FF3FFF3FFF3FFF3FC0
:02400E00323F3F
:00000001FF
