:0600000000F00FEF08F014
:10000800FFFF5E82E1CF54F0E2CF55F0D9CF56F032
:10001800DACF57F0F6CF58F0F7CF59F0F8CF5AF0BB
:10002800F5CF5BF09DAA1BEF00F01EEF00F0FFFF7D
:1000380092EF04F0FFFF9EAA24EF00F027EF00F0F4
:10004800FFFF92EF04F0FFFF23EC0AF05C6E5BEF1A
:1000580004F0FFFF71EC0BF0300E4C6EE70EFFFF63
:10006800E82EFDD74C2EFBD700D0010E2D6E000ECA
:100078002E6E2C0E2F6EE7EC0BF0300E4C6EE70E4A
:10008800FFFFE82EFDD74C2EFBD700D0200E2D6E9B
:100098001F0E2E6E000E2F6EE7EC0BF0300E4C6E1E
:1000A800E70EFFFFE82EFDD74C2EFBD700D0020E3F
:1000B8002D6E000E2E6E020E2F6EE7EC0BF0300E3A
:1000C8004C6EE70EFFFFE82EFDD74C2EFBD700D075
:1000D800280E2D6E050E2E6E070E2F6EE7EC0BF018
:1000E800300E91EC0BF0FBEF07F0FFFF310E91ECB7
:1000F8000BF0FBEF07F0FFFF320E91EC0BF0FBEF7C
:1001080007F0FFFF330E91EC0BF0500EC7EC0BF02D
:100118002DC075F02EC076F00A0E4C6E940EFFFFBF
:10012800E82EFDD74C2EFBD7600EC7EC0BF02DC088
:1001380077F02EC078F00A0E4C6E940EFFFFE82E72
:10014800FDD74C2EFBD7680EC7EC0BF02DC079F00D
:100158002EC07AF00A0E4C6E940EFFFFE82EFDD7E3
:100168004C2EFBD7420EC7EC0BF02DC07BF02EC0F7
:100178007CF00A0E4C6E940EFFFFE82EFDD74C2E35
:10018800FBD7470EC7EC0BF02DC07DF02EC07EF0DC
:100198000A0E4C6E940EFFFFE82EFDD74C2EFBD7AF
:1001A800400E02EC0CF02DC07FF0010E2D6E000EFB
:1001B8002E6E0C0E2F6EE7EC0BF0330E01EC0BF0ED
:1001C800FBEF07F0FFFF340E91EC0BF0FBEF07F0AD
:1001D800FFFF000E306E350E91EC0BF0FBEF07F0D1
:1001E800FFFF360E91EC0BF0FBEF07F0FFFF370E29
:1001F80091EC0BF0FBEF07F0FFFF380E91EC0BF0E2
:10020800FBEF07F0FFFF8982100ED76E3D0ED66E0A
:10021800830ED56EF294F28AF298000E316E000EBB
:10022800306E390E91EC0BF0230E336E100E346ED7
:100238004EEC0BF020EE11F0070EDE6AE806FDE248
:1002480020EE09F0070EDE6AE806FDE220EE01F076
:10025800070EDE6AE806FDE220EE68F0070EDE6AA9
:10026800E806FDE220EE60F0070EDE6AE806FDE231
:100278008B9489841DEC0CF0300E4C6EE70EFFFF5A
:10028800E82EFDD74C2EFBD700D009EC09F033C07F
:1002980029F034C02AF035C02BF036C02CF0000EFF
:1002A8005D6EFFFF09EC09F033C029F034C02AF075
:1002B80035C02BF036C02CF029C04CF02AC04DF0C8
:1002C8002BC04EF02CC04FF0506A4FBE506850C043
:1002D80051F050C052F050C053F011504C24116EE0
:1002E80012504D20126E13504E20136E14504F2092
:1002F800146E15505020156E16505120166E17505A
:100308005220176E18505320186E5D2A090E5D642E
:1003180090EF01F093EF01F0FFFF55EF01F0FFFFC1
:1003280016EC0CF0300E4C6EE70EFFFFE82EFDD7F2
:100338004C2EFBD700D009EC09F033C025F034C0AF
:1003480026F035C027F036C028F0000E5D6EFFFF9E
:1003580009EC09F033C025F034C026F035C027F089
:1003680036C028F025C04CF026C04DF027C04EF00E
:1003780028C04FF0506A4FBE506850C051F050C06E
:1003880052F050C053F009504C24096E0A504D20C9
:100398000A6E0B504E200B6E0C504F200C6E0D50F9
:1003A80050200D6E0E5051200E6E0F5052200F6EC1
:1003B80010505320106E5D2A090E5D64E6EF01F0BF
:1003C800E9EF01F0FFFFABEF01F0FFFF0FEC0CF0DE
:1003D800300E4C6EE70EFFFFE82EFDD74C2EFBD7F4
:1003E80000D009EC09F033C021F034C022F035C048
:1003F80023F036C024F0000E5D6EFFFF09EC09F013
:1004080033C021F034C022F035C023F036C024F0C8
:1004180021C04CF022C04DF023C04EF024C04FF054
:10042800506A4FBE506850C051F050C052F050C092
:1004380053F001504C24016E02504D20026E0350BF
:100448004E20036E04504F20046E05505020056E58
:1004580006505120066E07505220076E0850532050
:10046800086E5D2A090E5D643CEF02F03FEF02F072
:10047800FFFF01EF02F0FFFF2BEC0CF0300E4C6E8B
:10048800E70EFFFFE82EFDD74C2EFBD700D009EC76
:1004980009F033C01DF034C01EF035C01FF036C05F
:1004A80020F0000E5D6EFFFF09EC09F033C01DF06F
:1004B80034C01EF035C01FF036C020F01DC04CF00F
:1004C8001EC04DF01FC04EF020C04FF0506A4FBE06
:1004D800506850C051F050C052F050C053F0000165
:1004E80068514C24686F69514D20696F6A514E20DC
:1004F8006A6F6B514F206B6F6C5150206C6F6D5150
:1005080051206D6F6E5152206E6F6F5153206F6F77
:100518005D2A090E5D6493EF02F096EF02F0FFFF8B
:1005280057EF02F0FFFF24EC0CF0300E4C6EE70E94
:10053800FFFFE82EFDD74C2EFBD700D009EC09F0C1
:1005480033C019F034C01AF035C01BF036C01CF0A7
:10055800000E5D6EFFFF09EC09F033C019F034C0DE
:100568001AF035C01BF036C01CF019C04CF01AC088
:100578004DF01BC04EF01CC04FF0506A4FBE506883
:1005880050C051F050C052F050C053F000016051BB
:100598004C24606F61514D20616F62514E20626F33
:1005A80063514F20636F64515020646F655151202F
:1005B800656F66515220666F67515320676F5D2AD9
:1005C800090E5D64EAEF02F0EDEF02F0FFFFAEEF17
:1005D80002F0FFFF11C032F012C033F013C034F044
:1005E80014C035F015C036F016C037F017C038F013
:1005F80018C039F00A0E3A6E000E3B6E000E3C6EC3
:10060800000E3D6E000E3E6E000E3F6E000E406EF8
:10061800000E416E2FEC08F032C04CF033C04DF0A4
:1006280034C04EF035C04FF036C050F037C051F0EE
:1006380038C052F039C053F04CC029F04DC02AF0F0
:100648004EC02BF04FC02CF009C032F00AC033F076
:100658000BC034F00CC035F00DC036F00EC037F0CA
:100668000FC038F010C039F00A0E3A6E000E3B6E1B
:10067800000E3C6E000E3D6E000E3E6E000E3F6E8C
:10068800000E406E000E416E2FEC08F032C04CF0A8
:1006980033C04DF034C04EF035C04FF036C050F086
:1006A80037C051F038C052F039C053F04CC025F073
:1006B8004DC026F04EC027F04FC028F001C032F0E0
:1006C80002C033F003C034F004C035F005C036F082
:1006D80006C037F007C038F008C039F00A0E3A6E85
:1006E800000E3B6E000E3C6E000E3D6E000E3E6E20
:1006F800000E3F6E000E406E000E416E2FEC08F0AB
:1007080032C04CF033C04DF034C04EF035C04FF01D
:1007180036C050F037C051F038C052F039C053F0ED
:100728004CC021F04DC022F04EC023F04FC024F041
:1007380068C032F069C033F06AC034F06BC035F07D
:100748006CC036F06DC037F06EC038F06FC039F04D
:100758000A0E3A6E000E3B6E000E3C6E000E3D6EA9
:10076800000E3E6E000E3F6E000E406E000E416E93
:100778002FEC08F032C04CF033C04DF034C04EF0CE
:1007880035C04FF036C050F037C051F038C052F085
:1007980039C053F04CC01DF04DC01EF04EC01FF0C4
:1007A8004FC020F060C032F061C033F062C034F056
:1007B80063C035F064C036F065C037F066C038F005
:1007C80067C039F00A0E3A6E000E3B6E000E3C6EA2
:1007D800000E3D6E000E3E6E000E3F6E000E406E27
:1007E800000E416E2FEC08F032C04CF033C04DF0D3
:1007F80034C04EF035C04FF036C050F037C051F01D
:1008080038C052F039C053F04CC019F04DC01AF03E
:100818004EC01BF04FC01CF0510E336E100E346EDC
:100828004EEC0BF03150B6EC0BF029C033F02AC077
:1008380034F02BC035F02CC036F09BEC09F025C005
:1008480033F026C034F027C035F028C036F09BECD2
:1008580009F021C033F022C034F023C035F024C0A1
:1008680036F09BEC09F01DC033F01EC034F01FC0F9
:1008780035F020C036F09BEC09F019C033F01AC0EF
:1008880034F01BC035F01CC036F09BEC09F0590E53
:10089800336E100E346E4EEC0BF08994FBEF07F0BC
:1008A800FFFF580E91EC0BF0AB88FBEF07F0FFFF52
:1008B8005C504C6E4D6A4D50000AD8B466EF04F097
:1008C80054EF04F0FFFF4C50300AD8B42DEF00F07D
:1008D800010AD8B479EF00F0030AD8B47FEF00F02A
:1008E800010AD8B485EF00F0070AD8B4E6EF00F0A3
:1008F800010AD8B4ECEF00F0030AD8B4F4EF00F022
:10090800010AD8B4FAEF00F00F0AD8B400EF01F0EA
:10091800010AD8B406EF01F054EF04F0FFFFF2AA81
:1009280098EF04F09BEF04F0FFFFFBEF07F0FFFFE9
:10093800F2A4A1EF04F0A4EF04F0FFFFFBEF07F02F
:10094800FFFFF294100ED76E3D0ED66E312A20EEC0
:1009580011F0070EDE6AE806FDE220EE09F0070E48
:10096800DE6AE806FDE220EE01F0070EDE6AE80620
:10097800FDE220EE68F0070EDE6AE806FDE220EEF2
:1009880060F0070EDE6AE806FDE289841DEC0CF0D3
:10099800300E4C6EE70EFFFFE82EFDD74C2EFBD72E
:1009A80000D009EC09F033C029F034C02AF035C072
:1009B8002BF036C02CF0000E5D6EFFFF09EC09F03D
:1009C80033C029F034C02AF035C02BF036C02CF0E3
:1009D80029C04CF02AC04DF02BC04EF02CC04FF06F
:1009E800506A4FBE506850C051F050C052F050C0CD
:1009F80053F011504C24116E12504D20126E1350AA
:100A08004E20136E14504F20146E15505020156E42
:100A180016505120166E17505220176E185053203A
:100A2800186E5D2A090E5D641CEF05F01FEF05F0D6
:100A3800FFFFE1EF04F0FFFF16EC0CF0300E4C6EF8
:100A4800E70EFFFFE82EFDD74C2EFBD700D009ECB0
:100A580009F033C025F034C026F035C027F036C081
:100A680028F0000E5D6EFFFF09EC09F033C025F099
:100A780034C026F035C027F036C028F025C04CF029
:100A880026C04DF027C04EF028C04FF0506A4FBE28
:100A9800506850C051F050C052F050C053F0095047
:100AA8004C24096E0A504D200A6E0B504E200B6ED6
:100AB8000C504F200C6E0D5050200D6E0E505120D2
:100AC8000E6E0F5052200F6E10505320106E5D2A7C
:100AD800090E5D6472EF05F075EF05F0FFFF37EF63
:100AE80005F0FFFF0FEC0CF0300E4C6EE70EFFFF29
:100AF800E82EFDD74C2EFBD700D009EC09F033C007
:100B080021F034C022F035C023F036C024F0000EA6
:100B18005D6EFFFF09EC09F033C021F034C022F00C
:100B280035C023F036C024F021C04CF022C04DF06F
:100B380023C04EF024C04FF0506A4FBE506850C0DA
:100B480051F050C052F050C053F001504C24016E87
:100B580002504D20026E03504E20036E04504F2069
:100B6800046E05505020056E06505120066E075041
:100B78005220076E08505320086E5D2A090E5D64E6
:100B8800C8EF05F0CBEF05F0FFFF8DEF05F0FFFF95
:100B98002BEC0CF0300E4C6EE70EFFFFE82EFDD765
:100BA8004C2EFBD700D009EC09F033C01DF034C03F
:100BB8001EF035C01FF036C020F0000E5D6EFFFF3E
:100BC80009EC09F033C01DF034C01EF035C01FF029
:100BD80036C020F01DC04CF01EC04DF01FC04EF0B6
:100BE80020C04FF0506A4FBE506850C051F050C0FE
:100BF80052F050C053F0000168514C24686F69519D
:100C08004D20696F6A514E206A6F6B514F206B6F90
:100C18006C5150206C6F6D5151206D6F6E51522088
:100C28006E6F6F5153206F6F5D2A090E5D641FEF61
:100C380006F022EF06F0FFFFE3EF05F0FFFF24ECDC
:100C48000CF0300E4C6EE70EFFFFE82EFDD74C2E51
:100C5800FBD700D009EC09F033C019F034C01AF002
:100C680035C01BF036C01CF0000E5D6EFFFF09ECAE
:100C780009F033C019F034C01AF035C01BF036C083
:100C88001CF019C04CF01AC04DF01BC04EF01CC02F
:100C98004FF0506A4FBE506850C051F050C052F0EB
:100CA80050C053F0000160514C24606F61514D20D9
:100CB800616F62514E20626F63514F20636F6451C0
:100CC8005020646F65515120656F66515220666FE0
:100CD80067515320676F5D2A090E5D6476EF06F051
:100CE80079EF06F0FFFF3AEF06F0FFFF11C032F090
:100CF80012C033F013C034F014C035F015C036F00C
:100D080016C037F017C038F018C039F00A0E3A6E1E
:100D1800000E3B6E000E3C6E000E3D6E000E3E6EE9
:100D2800000E3F6E000E406E000E416E2FEC08F074
:100D380032C04CF033C04DF034C04EF035C04FF0E7
:100D480036C050F037C051F038C052F039C053F0B7
:100D58004CC029F04DC02AF04EC02BF04FC02CF0EB
:100D680009C032F00AC033F00BC034F00CC035F0C3
:100D78000DC036F00EC037F00FC038F010C039F093
:100D88000A0E3A6E000E3B6E000E3C6E000E3D6E73
:100D9800000E3E6E000E3F6E000E406E000E416E5D
:100DA8002FEC08F032C04CF033C04DF034C04EF098
:100DB80035C04FF036C050F037C051F038C052F04F
:100DC80039C053F04CC025F04DC026F04EC027F076
:100DD8004FC028F001C032F002C033F003C034F035
:100DE80004C035F005C036F006C037F007C038F04B
:100DF80008C039F00A0E3A6E000E3B6E000E3C6ECB
:100E0800000E3D6E000E3E6E000E3F6E000E406EF0
:100E1800000E416E2FEC08F032C04CF033C04DF09C
:100E280034C04EF035C04FF036C050F037C051F0E6
:100E380038C052F039C053F04CC021F04DC022F0F8
:100E48004EC023F04FC024F068C032F069C033F0C0
:100E58006AC034F06BC035F06CC036F06DC037F046
:100E68006EC038F06FC039F00A0E3A6E000E3B6E55
:100E7800000E3C6E000E3D6E000E3E6E000E3F6E84
:100E8800000E406E000E416E2FEC08F032C04CF0A0
:100E980033C04DF034C04EF035C04FF036C050F07E
:100EA80037C051F038C052F039C053F04CC01DF073
:100EB8004DC01EF04EC01FF04FC020F060C032F091
:100EC80061C033F062C034F063C035F064C036F0FE
:100ED80065C037F066C038F067C039F00A0E3A6E60
:100EE800000E3B6E000E3C6E000E3D6E000E3E6E18
:100EF800000E3F6E000E406E000E416E2FEC08F0A3
:100F080032C04CF033C04DF034C04EF035C04FF015
:100F180036C050F037C051F038C052F039C053F0E5
:100F28004CC019F04DC01AF04EC01BF04FC01CF059
:100F3800510E336E100E346E4EEC0BF03150B6EC91
:100F48000BF029C033F02AC034F02BC035F02CC088
:100F580036F09BEC09F025C033F026C034F027C0EA
:100F680035F028C036F09BEC09F021C033F022C0E0
:100F780034F023C035F024C036F09BEC09F01DC0D6
:100F880033F01EC034F01FC035F020C036F09BECA3
:100F980009F019C033F01AC034F01BC035F01CC07A
:100FA80036F09BEC09F0590E336E100E346E4EEC91
:100FB8000BF08994080E3164E4EF07F0E7EF07F0CF
:100FC800FFFFFBEF07F0FFFFF29A3004D8A4EFEF22
:100FD80007F0F2EF07F0FFFFF7EF07F0FFFFF292DD
:100FE800F288F9EF07F0FFFF8B84FFFF8992FFFF7C
:100FF8005BC0F5FF5AC0F8FF59C0F7FF58C0F6FFAD
:1010080057C0DAFF56C0D9FF55C0E2FF54C0E1FF10
:101018005E921100FFFF2BEF0BF000472D4A524F55
:10102800444154455858585858585858585858587A
:101038000A0D004E4E4E4E4A524F434D44004E4EFE
:101048004E4E4A524F444154004A524F4144512C4B
:10105800002C0A0D0000FFFF000E436E41BE3AEF60
:1010680008F037EF08F0FFFF4DEF08F0FFFF411ED3
:10107800401E3F1E3E1E3D1E3C1E3B1E3A6C000E8F
:101088003B223C223D223E223F2240224122010EA9
:10109800436EFFFF39BE56EF08F053EF08F0FFFF2D
:1010A80069EF08F0FFFF391E381E371E361E351E41
:1010B800341E331E326C000E33223422352236227F
:1010C800372238223922010E431AFFFF20EE44F05E
:1010D800070EDE6AE806FDE23A503B103C103D1070
:1010E8003E103F1040104110D8B47DEF08F080EF5B
:1010F80008F0FFFFDBEF08F0FFFF010E426E90EFF4
:1011080008F0FFFFD8903A363B363C363D363E363F
:101118003F3640364136422AFFFF41AE96EF08F08F
:1011280099EF08F0FFFF85EF08F0FFFFFFFFD89069
:101138004436453646364736483649364A364B36BB
:101148003A50325C3B5033583C5034583D50355837
:101158003E5036583F50375840503858415039580B
:10116800D8A0B9EF08F0BCEF08F0FFFFCEEF08F009
:10117800FFFF3A50325E3B50335A3C50345A3D5090
:10118800355A3E50365A3F50375A4050385A4150D7
:10119800395A4480FFFFD890413240323F323E32C4
:1011A8003D323C323B323A32422E9AEF08F0FFFF92
:1011B8004350D8B4E2EF08F0E5EF08F0FFFFF6EF90
:1011C80008F0FFFF4B1E4A1E491E481E471E461EBA
:1011D800451E446C000E45224622472248224922D9
:1011E8004A224B22FFFF44C032F045C033F046C0CC
:1011F80034F047C035F048C036F049C037F04AC02F
:1012080038F04BC039F01200FFFFFFFFFFFF82B834
:1012180010EF09F013EF09F0FFFF0AEF09F0FFFFE5
:10122800440EA4EC0BF0000EA4EC0BF03F6E000E85
:10123800A4EC0BF0406E000EA4EC0BF0416E000E17
:10124800A4EC0BF0426E000E436E000E446E000ECE
:10125800456E000E466E3FC037F0386A396A3A6A02
:1012680037C03AF0396A386A376A43503710436EE4
:1012780044503810446E45503910456E46503A1067
:10128800466E40C037F0386A396A3A6A38C03AF070
:1012980037C039F0386A376A43503710436E4450C4
:1012A8003810446E45503910456E46503A10466E17
:1012B80041C037F0386A396A3A6A39C03AF038C0FA
:1012C80039F037C038F0376A43503710436E44500E
:1012D8003810446E45503910456E46503A10466EE7
:1012E80043504210436E4450446E4550456E46503C
:1012F800466E000E4318436E000E4418446E000EEE
:101308004518456E800E4618466E43C03BF044C0F3
:101318003CF045C03DF046C03EF03BC033F03CC019
:1013280034F03DC035F03EC036F01200FFFFFFFF3D
:1013380020EE70F010EE3CF0040EDBCFE3FFE80681
:10134800FCE2180E376E33C038F034C039F035C0BF
:101358003AF036C03BF0FFFF3766B5EF09F0BEEF55
:1013680009F0FFFF3B343B323A3239323832372EFC
:10137800AFEF09F0FFFF38C042F039C043F03AC080
:1013880044F03BC045F042C03FF0100E376E33C00A
:1013980038F034C039F035C03AF036C03BF0FFFFC2
:1013A8003766D9EF09F0E2EF09F0FFFF3B343B3233
:1013B8003A3239323832372ED3EF09F0FFFF38C0CE
:1013C80042F039C043F03AC044F03BC045F042C057
:1013D8003EF034C037F035C038F036C039F03A6ADC
:1013E80039BE3A6837C042F038C043F039C044F0DB
:1013F8003AC045F042C03DF033C042F034C043F03B
:1014080035C044F036C045F042C03CF0000E416E95
:10141800FFFF3C0E4124D96EDA6A000EDA22DF5053
:10142800B6EC0BF0412A030E41641DEF0AF020EFE1
:101438000AF0FFFF0CEF0AF0FFFF1200FFFFFFFFAB
:10144800000E356EFFFF91EC0AF0366E4A0E361824
:10145800D8A431EF0AF034EF0AF0FFFF37EF0AF0B3
:10146800FFFF42EF0AF0FFFF352A090E35643FEF10
:101478000AF042EF0AF0FFFF26EF0AF0FFFF0A0E1C
:10148800356049EF0AF04CEF0AF0FFFF8BEF0AF0E6
:10149800FFFF91EC0AF0366E520E3618D8A457EFBB
:1014A8000AF05AEF0AF0FFFF8BEF0AF0FFFF91EC0A
:1014B8000AF0366E4F0E3618D8A465EF0AF068EFBA
:1014C8000AF0FFFF8BEF0AF0FFFF91EC0AF0366E8F
:1014D800430E3618D8A473EF0AF076EF0AF0FFFF30
:1014E8008BEF0AF0FFFF91EC0AF0366E91EC0AF0F0
:1014F800366E91EC0AF00001816F91EC0AF0366EBD
:1015080091EC0AF0366E000181518EEF0AF0FFFF70
:10151800AB98580EFFFF1200FFFFFFFF000E336E5F
:101528003468000ECC6ECA84C4EF0AF0FFFF9EBA7E
:10153800A0EF0AF0A3EF0AF0FFFFACEF0AF0FFFFFD
:101548009EA2A9EF0AF0ACEF0AF0FFFF9AEF0AF0AB
:10155800FFFF9E92332A9EBAB4EF0AF0B7EF0AF063
:10156800FFFFC1EF0AF0FFFF030E3364BEEF0AF07E
:10157800C1EF0AF0FFFFC4EF0AF0FFFF000E346E60
:10158800FFFF3450D8A4CBEF0AF0CEEF0AF0FFFFEC
:101598009AEF0AF0FFFF9E92CA94AECF32F0325013
:1015A8001200FFFFFFFFC150F00B0709C16E000ECC
:1015B800896E000E8A6E000E8B6E000E926E000E03
:1015C800936E000E946E938089928994000E316E0A
:1015D800000E306E8B84F5EC0BF03DEC0CF0D8EC83
:1015E8000BF039EC0CF0D09E000EF26EF28CF28EFD
:1015F800FFFFFCEF0AF00FEF08F0FFFF356E460E15
:10160800336E100E346E4EEC0BF03550B6EC0BF01A
:10161800000E366EFFFF750E3624D96EDA6A000E9C
:10162800DA22DF50B6EC0BF0362A0B0E36641FEFC9
:101638000BF022EF0BF0FFFF0EEF0BF0FFFF5A0E3F
:10164800336E100E346E4EEC0BF01200FFFF640E7A
:10165800F66E180EF76E000EF86E00EE75F010EECE
:101668000DF00900F5CFEEFFE550E150FAE100EE8C
:1016780060F0150EEE6AE806FDE100EE01F0310EAD
:10168800EE6AE806FDE15E905E92000EF86E0001DB
:10169800D6EF0AF0FFFF5DEF0BF0FFFF33C0F6FF58
:1016A80034C0F7FF0800FFFFF550B6EC0BF0334AE3
:1016B800342AFFFF33C0F6FF34C0F7FF0800FFFFEE
:1016C800F5500009D8A46BEF0BF06EEF0BF0FFFF9D
:1016D80051EF0BF0FFFF1200FFFFFFFF8B94000E8E
:1016E800346EFFFFFF0EA4EC0BF0342A080E3464AE
:1016F80080EF0BF083EF0BF0FFFF75EF0BF0FFFFB0
:101708008B841D0E336EBD0EFFFFE82EFDD7332EE2
:10171800FBD700D000F01200FFFFFFFF356E3B0E35
:10172800336E100E346E4EEC0BF03550B6EC0BF0F9
:101738005A0E336E100E346E4EEC0BF01200FFFF93
:10174800FFFF326EC95032C0C9FFFFFFC7A0AFEF1D
:101758000BF0B2EF0BF0FFFFA9EF0BF0FFFFC95042
:101768001200FFFFFFFF326E32C0ADFF00F0FFFF37
:10177800ACA2C1EF0BF0C4EF0BF0FFFFBBEF0BF017
:10178800FFFF1200FFFFFFFF336E8B943350A4EC72
:101798000BF0000EA4EC0BF02D6E000EA4EC0BF079
:1017A8002E6E8B841200FFFFFFFF949C948E240EF4
:1017B800AC6E100EAB6E3F0EAF6E9D8A7B0ECA6E7E
:1017C800CB681200FFFFFFFF8B942D50A4EC0BF0A9
:1017D8002E50A4EC0BF02F50A4EC0BF08B841200CD
:1017E800FFFFFFFF94969488949A000EC76EC688F0
:1017F800C650F00B0109C66E1200FFFFFFFF336EE3
:101808008B943350A4EC0BF0000EA4EC0BF02D6E6F
:101818008B841200FFFFFFFF898A89988B908B9237
:101828001200FFFFFFFF899A89888B808B92120034
:10183800FFFFFFFF899A89888B908B921200FFFF28
:10184800FFFF898A89988B808B821200FFFFFFFF38
:10185800898A89988B808B921200FFFF58585858B4
:09186800585858585858585800B7
:10187200FFFFAB8E1200FFFFFFFFC68A1200FFFFC1
:10188200FFFFAB9E1200FFFFFFFFC69A1200FFFF91
:02189200FFFF56
:020000040020DA
:08000000FFFFFFFFFFFFFFFF00
:020000040030CA
:04000000FF260E0EBB
:0800060080FF0FC00FE00F4066
:00000001FF
