:0600000000F078EF00F0B3
:10000800FFFF4A82E9CF08F0EACF09F0D9CF0AF01A
:10001800DACF0BF0F6CF0CF0F7CF0DF0F8CF0EF0EB
:10002800F5CF0FF09DA01BEF00F01EEF00F0FFFFD3
:100038002DEF00F0FFFF9EA024EF00F027EF00F067
:10004800FFFF2DEF00F0FFFF9E900001A62B64EF4D
:1000580000F0FFFFF2A833EF00F036EF00F0FFFFEB
:1000680064EF00F0FFFFF2A23CEF00F03FEF00F07A
:10007800FFFF64EF00F0FFFFF292000ED76E000E54
:10008800D66E830ED56E89EC0BF0D59ED6CF2AF0AE
:10009800D7CF2BF0380E66EC0DF0130E076EB70EA7
:1000A800066E9A0EFFFFE82EFDD7062EFBD7072E09
:1000B800F9D7370E026E000E036E05EC0DF0F298BC
:1000C800FFFF0FC0F5FF0EC0F8FF0DC0F7FF0CC013
:1000D800F6FF0BC0DAFF0AC0D9FF09C0EAFF08C063
:0C00E800E9FF4A921100FFFFB0EF0DF09D
:10060000004E4E4E4E4A524F434D44004E4E4E4EBB
:100610004A524F444154004A524F41445130392CC0
:10062000002C0A0D0000FFFFC150F00B0709C16E3E
:10063000000E896E000E8A6E000E8B6E000E926E9A
:10064000000E936E000E946E93808B845FEC0EF020
:100650007BEC0EF06CEC0EF077EC0EF0D09E000E02
:10066000F26EF28CF28E89948992FFFF02EC0CF00C
:100670000001A46FDDEF08F0FFFF90EC0DF0000E1D
:10068000116E2C0E126E010E27EC0EF0300E0001D2
:10069000606FE70EFFFFE82EFDD7602FFBD700F05D
:1006A0001F0E116E000E126E200E27EC0EF0300E93
:1006B0000001606FE70EFFFFE82EFDD7602FFBD72C
:1006C00000F0000E116E020E126E020E27EC0EF0FC
:1006D000300ECFEC0DF035EF03F0FFFF310ECFEC15
:1006E0000DF006EC0BF00001A46F580EA419D8A46D
:1006F0007CEF03F07FEF03F0FFFF83EF03F0FFFFDA
:10070000AB8835EF03F0FFFF310EA419D8A48BEFAF
:1007100003F08EEF03F0FFFF10EF09F0FFFF2BC097
:1007200011F02CC012F02A5027EC0EF035EF03F038
:10073000FFFF320ECFEC0DF006EC0BF00001A46FC2
:10074000580EA419D8A4A7EF03F0AAEF03F0FFFFF7
:10075000AEEF03F0FFFFAB8835EF03F0FFFF320E83
:10076000A419D8A4B6EF03F0B9EF03F0FFFF10EF20
:1007700009F0FFFF2A5005EC0EF00001A4513CECFB
:100780000DF035EF03F0FFFF330ECFEC0DF006EC6C
:100790000BF00001A46F580EA419D8A4D2EF03F0F7
:1007A000D5EF03F0FFFFD9EF03F0FFFFAB8835EF84
:1007B00003F0FFFF330EA419D8A4E1EF03F0E4EF38
:1007C00003F0FFFF10EF09F0FFFF28EF04F0FFFF39
:1007D000899A89888B908B925BEF04F0FFFF899A4E
:1007E00089888B808B925BEF04F0FFFF898A899860
:1007F0008B908B925BEF04F0FFFF898A89988B8046
:100800008B925BEF04F0FFFF898A89988B808B8243
:100810005BEF04F0FFFF899A89888B908B825BEFF6
:1008200004F0FFFF899A89888B808B825BEF04F04C
:10083000FFFF898A89988B908B825BEF04F0FFFF22
:10084000898A89885BEF04F0FFFF00F05BEF04F01A
:10085000FFFF2A50606F616B6151000AD8B433EF1B
:1008600004F024EF04F0FFFF6051310AD8B40AEF1E
:1008700004F0030AD8B411EF04F0010AD8B418EF59
:1008800004F0700AD8B4FCEF03F0040AD8B41FEFE8
:1008900004F0140AD8B403EF04F00B0AD8B4E7EF5D
:1008A00003F0010AD8B4EEEF03F0030AD8B4F5EF71
:1008B00003F024EF04F0FFFF0001A4513CEC0DF025
:1008C00035EF03F0FFFF340ECFEC0DF08B94010EEB
:1008D000E2EC0DF0000EE2EC0DF01C0EE2EC0DF07F
:1008E000000E0001A66F000ECF6E000ECE6EB10E90
:1008F000CD6E9E909D80EFEC09F011C0A0F012C06B
:10090000A1F013C0A2F014C0A3F08B84CD909D90F1
:10091000CECF2AF0CFCF2BF0A6C02CF0340E3CEC7B
:100920000DF0FFFF130E0001616FB70E606F990E9F
:10093000FFFFE82EFDD7602FFBD7612FF9D700D03E
:1009400000F0A0C011F0A1C012F0A2C013F0A3C02B
:1009500014F081EC0AF035EF03F0FFFF350ECFEC19
:100960000DF020EE98F0070EDE6AE806FDE2000EBC
:100970000001A66F000ECF6E000ECE6EB10ECD6ED2
:100980009E909D808B94000EA56FFFFFEFEC09F009
:1009900011C0A0F012C0A1F013C0A2F014C0A3F0C7
:1009A000A0C060F0A1C061F0A2C062F0A3C063F07B
:1009B0000001646B63BF646964C065F064C066F085
:1009C00064C067F098516025986F99516121996FC3
:1009D0009A5162219A6F9B5163219B6F9C516421B4
:1009E0009C6F9D5165219D6F9E5166219E6F9F5109
:1009F00067219F6FA52B090EA56501EF05F004EF98
:100A000005F0FFFFC5EF04F0FFFF8B8498C010F0E6
:100A100099C011F09AC012F09BC013F09CC014F062
:100A20009DC015F09EC016F09FC017F00A0E186EFC
:100A3000000E196E000E1A6E000E1B6E000E1C6E5C
:100A4000000E1D6E000E1E6E000E1F6E15EC09F0DE
:100A500010C060F011C061F012C062F013C063F00A
:100A600014C064F015C065F016C066F017C067F0DA
:100A700060C0A0F061C0A1F062C0A2F063C0A3F0AA
:100A8000CD909D90CECF2AF0CFCF2BF0A6C02CF0EA
:100A9000350E3CEC0DF091EF04F0FFFF360ECFEC7D
:100AA0000DF0400E52EC0EF0360E3CEC0DF035EF32
:100AB00003F0FFFF370ECFEC0DF0000E0001A66F24
:100AC000000ECF6E000ECE6EB10ECD6E9E909D804C
:100AD000898220EE98F0070EDE6AE806FDE220EE3D
:100AE00068F0070EDE6AE806FDE220EE70F0070E01
:100AF000DE6AE806FDE220EE78F0070EDE6AE80620
:100B0000FDE220EE80F0070EDE6AE806FDE28B943F
:100B1000899A89888B908B92300E0001606FE70E66
:100B2000FFFFE82EFDD7602FFBD700F08984EFECA4
:100B300009F0000E0001A56FFFFFEFEC09F011C0F6
:100B4000A0F012C0A1F013C0A2F014C0A3F0A0C086
:100B500060F0A1C061F0A2C062F0A3C063F0000128
:100B6000646B63BF646964C065F064C066F064C0B0
:100B700067F098516025986F99516121996F9A514A
:100B800062219A6F9B5163219B6F9C5164219C6FE2
:100B90009D5165219D6F9E5166219E6F9F516721DA
:100BA0009F6FA52B090EA565D8EF05F0DBEF05F0CB
:100BB000FFFF9CEF05F0FFFF8994899A89888B805D
:100BC0008B92300E0001606FE70EFFFFE82EFDD71D
:100BD000602FFBD700F08984EFEC09F011C088F09A
:100BE00012C089F013C08AF014C08BF0000E00010F
:100BF000A56FFFFFEFEC09F011C088F012C089F07B
:100C000013C08AF014C08BF088C060F089C061F016
:100C10008AC062F08BC063F00001646B63BF6469DB
:100C200064C065F064C066F064C067F06851602518
:100C3000686F69516121696F6A5162216A6F6B51F6
:100C400063216B6F6C5164216C6F6D5165216D6F09
:100C50006E5166216E6F6F5167216F6FA52B090E64
:100C6000A56535EF06F038EF06F0FFFFF9EF05F068
:100C7000FFFF8994898A89988B908B92300E0001AE
:100C8000606FE70EFFFFE82EFDD7602FFBD700F067
:100C90008984EFEC09F011C08CF012C08DF013C004
:100CA0008EF014C08FF0000E0001A56FFFFFEFEC77
:100CB00009F011C08CF012C08DF013C08EF014C07A
:100CC0008FF08CC060F08DC061F08EC062F08FC07C
:100CD00063F00001646B63BF646964C065F064C065
:100CE00066F064C067F070516025706F71516121CA
:100CF000716F72516221726F73516321736F7451FE
:100D00006421746F75516521756F76516621766F18
:100D100077516721776FA52B090EA56592EF06F035
:100D200095EF06F0FFFF56EF06F0FFFF8994898AE2
:100D300089988B808B92300E0001606FE70EFFFF69
:100D4000E82EFDD7602FFBD700F08984EFEC09F087
:100D500011C090F012C091F013C092F014C093F043
:100D6000000E0001A56FFFFFEFEC09F011C090F03D
:100D700012C091F013C092F014C093F090C060F0D4
:100D800091C061F092C062F093C063F00001646BA7
:100D900063BF646964C065F064C066F064C067F0F6
:100DA00078516025786F79516121796F7A5162218C
:100DB0007A6F7B5163217B6F7C5164217C6F7D5105
:100DC00065217D6F7E5166217E6F7F5167217F6F28
:100DD000A52B090EA565EFEF06F0F2EF06F0FFFF79
:100DE000B3EF06F0FFFF8994898A89988B808B8204
:100DF000300E0001606FE70EFFFFE82EFDD7602F79
:100E0000FBD700F08984EFEC09F011C094F012C018
:100E100095F013C096F014C097F0000E0001A56F76
:100E2000FFFFEFEC09F011C094F012C095F013C071
:100E300096F014C097F094C060F095C061F096C031
:100E400062F097C063F00001646B63BF646964C0C3
:100E500065F064C066F064C067F080516025806F03
:100E600081516121816F82516221826F835163219F
:100E7000836F84516421846F85516521856F86510C
:100E80006621866F87516721876FA52B090EA5659F
:100E90004CEF07F04FEF07F0FFFF10EF07F0FFFFF9
:100EA00089948B84898498C010F099C011F09AC0FD
:100EB00012F09BC013F09CC014F09DC015F09EC0B2
:100EC00016F09FC017F00A0E186E000E196E000E75
:100ED0001A6E000E1B6E000E1C6E000E1D6E000EB4
:100EE0001E6E000E1F6E15EC09F010C060F011C0F0
:100EF00061F012C062F013C063F014C064F015C05A
:100F000065F016C066F017C067F060C0A0F061C061
:100F1000A1F062C0A2F063C0A3F068C010F069C085
:100F200011F06AC012F06BC013F06CC014F06DC009
:100F300015F06EC016F06FC017F00A0E186E000E96
:100F4000196E000E1A6E000E1B6E000E1C6E000E47
:100F50001D6E000E1E6E000E1F6E15EC09F010C007
:100F600060F011C061F012C062F013C063F014C0F1
:100F700064F015C065F016C066F017C067F060C079
:100F800088F061C089F062C08AF063C08BF070C0E5
:100F900010F071C011F072C012F073C013F074C081
:100FA00014F075C015F076C016F077C017F00A0E71
:100FB000186E000E196E000E1A6E000E1B6E000EDB
:100FC0001C6E000E1D6E000E1E6E000E1F6E15ECC8
:100FD00009F010C060F011C061F012C062F013C0DF
:100FE00063F014C064F015C065F016C066F017C059
:100FF00067F060C08CF061C08DF062C08EF063C09D
:101000008FF078C010F079C011F07AC012F07BC078
:1010100013F07CC014F07DC015F07EC016F07FC0C8
:1010200017F00A0E186E000E196E000E1A6E000EE2
:101030001B6E000E1C6E000E1D6E000E1E6E000E4E
:101040001F6E15EC09F010C060F011C061F012C005
:1010500062F013C063F014C064F015C065F016C0F0
:1010600066F017C067F060C090F061C091F062C098
:1010700092F063C093F080C010F081C011F082C084
:1010800012F083C013F084C014F085C015F086C040
:1010900016F087C017F00A0E186E000E196E000EBB
:1010A0001A6E000E1B6E000E1C6E000E1D6E000EE2
:1010B0001E6E000E1F6E15EC09F010C060F011C01E
:1010C00061F012C062F013C063F014C064F015C088
:1010D00065F016C066F017C067F060C094F061C09C
:1010E00095F062C096F063C097F08994170E116E68
:1010F000060E126ECEEC0CF0A0C011F0A1C012F0E2
:10110000A2C013F0A3C014F081EC0AF088C011F063
:1011100089C012F08AC013F08BC014F081EC0AF081
:101120008CC011F08DC012F08EC013F08FC014F07F
:1011300081EC0AF090C011F091C012F092C013F04F
:1011400093C014F081EC0AF094C011F095C012F035
:1011500096C013F097C014F081EC0AF0210E116EC6
:10116000060E126ECEEC0CF08992CD909D90CECFF3
:101170002AF0CFCF2BF0A6C02CF0130E0001616F28
:10118000B70E606F990EFFFFE82EFDD7602FFBD7DB
:10119000612FF9D700D000F0350E3CEC0DF035EFA3
:1011A00003F0FFFF380ECFEC0DF0F19CF292F288C5
:1011B0009D90FFFF00F035EF03F0FFFFA451606F3B
:1011C000616B6151000AD8B4E8EF08F0D9EF08F07C
:1011D000FFFF6051300AD8B43CEF03F0010AD8B4E5
:1011E0006DEF03F0030AD8B498EF03F0010AD8B406
:1011F000C3EF03F0070AD8B462EF04F0010AD8B4D1
:10120000ADEF04F0030AD8B44DEF05F0010AD8B4ED
:1012100059EF05F00F0AD8B4D1EF08F0D9EF08F074
:10122000FFFF35EF03F078EF00F0FFFF000E216EB7
:101230001FBE20EF09F01DEF09F0FFFF33EF09F0AB
:10124000FFFF1F1E1E1E1D1E1C1E1B1E1A1E191E0A
:10125000186C000E19221A221B221C221D221E228B
:101260001F22010E216EFFFF17BE3CEF09F039EF80
:1012700009F0FFFF4FEF09F0FFFF171E161E151EA6
:10128000141E131E121E111E106C000E11221222AB
:1012900013221422152216221722010E211AFFFFF3
:1012A00020EE22F0070EDE6AE806FDE21850191063
:1012B0001A101B101C101D101E101F10D8B463EF45
:1012C00009F066EF09F0FFFFC1EF09F0FFFF010E23
:1012D000206E76EF09F0FFFFD890183619361A36CF
:1012E0001B361C361D361E361F36202AFFFF1FAE4A
:1012F0007CEF09F07FEF09F0FFFF6BEF09F0FFFFD4
:10130000FFFFD89022362336243625362636273658
:10131000283629361850105C195011581A50125896
:101320001B5013581C5014581D5015581E50165859
:101330001F501758D8A09FEF09F0A2EF09F0FFFF48
:10134000B4EF09F0FFFF1850105E1950115A1A50EF
:10135000125A1B50135A1C50145A1D50155A1E5025
:10136000165A1F50175A2280FFFFD8901F321E3284
:101370001D321C321B321A3219321832202E80EFE5
:1013800009F0FFFF2150D8B4C8EF09F0CBEF09F006
:10139000FFFFDCEF09F0FFFF291E281E271E261E77
:1013A000251E241E231E226C000E23222422252209
:1013B0002622272228222922FFFF22C010F023C044
:1013C00011F024C012F025C013F026C014F027C07D
:1013D00015F028C016F029C017F01200FFFFFFFF1C
:1013E000FFFF82B8F6EF09F0F9EF09F0FFFFF0EF29
:1013F00009F0FFFF440EE2EC0DF0000EE2EC0DF000
:101400001D6E000EE2EC0DF01E6E000EE2EC0DF013
:101410001F6E000EE2EC0DF0206E000E216E000E2D
:10142000226E000E236E000E246E1DC015F0166A8B
:10143000176A186A15C018F0176A166A156A2150DB
:101440001510216E22501610226E23501710236E95
:1014500024501810246E1EC015F0166A176A186AF8
:1014600016C018F015C017F0166A156A215015102D
:10147000216E22501610226E23501710236E245016
:101480001810246E1FC015F0166A176A186A17C064
:1014900018F016C017F015C016F0156A2150151077
:1014A000216E22501610226E23501710236E2450E6
:1014B0001810246E21502010216E2250226E2350CD
:1014C000236E2450246E000E2118216E000E221867
:1014D000226E000E2318236E800E2418246E21C065
:1014E00019F022C01AF023C01BF024C01CF019C050
:1014F00011F01AC012F01BC013F01CC014F012003F
:10150000FFFFFFFF20EE1AF0040EDE6AE806FDE2A0
:10151000180E156E11C016F012C017F013C018F097
:1015200014C019F0FFFF156698EF0AF0A1EF0AF05A
:10153000FFFF19341932183217321632152E92EF76
:101540000AF0FFFF16C020F017C021F018C022F0EB
:1015500019C023F020C01DF0100E156E11C016F03A
:1015600012C017F013C018F014C019F0FFFF156671
:10157000BCEF0AF0C5EF0AF0FFFF19341932183238
:1015800017321632152EB6EF0AF0FFFF16C020F004
:1015900017C021F018C022F019C023F020C01CF0A1
:1015A00012C015F013C016F014C017F0186A17BE59
:1015B000186815C020F016C021F017C022F018C01E
:1015C00023F020C01BF011C020F012C021F013C086
:1015D00022F014C023F020C01AF0000E1F6EFFFF8F
:1015E0001A0E1F24D96EDA6A000EDA22DF50F4ECEC
:1015F0000DF01F2A030E1F6400EF0BF003EF0BF03A
:10160000FFFFEFEF0AF0FFFF1200FFFFFFFF000EEA
:10161000116EFFFF36EC0EF0106E4A0E1018D8A4B3
:1016200014EF0BF017EF0BF0FFFF1AEF0BF0FFFFBB
:1016300025EF0BF0FFFF112A090E116422EF0BF0CA
:1016400025EF0BF0FFFF09EF0BF0FFFF0A0E116013
:101650002CEF0BF02FEF0BF0FFFF83EF0BF0FFFFF2
:1016600036EC0EF0106E520E1018D8A43AEF0BF0B4
:101670003DEF0BF0FFFF83EF0BF0FFFF36EC0EF0BA
:10168000106E4F0E1018D8A448EF0BF04BEF0BF074
:10169000FFFF83EF0BF0FFFF36EC0EF0106E440EF1
:1016A0001018D8A456EF0BF059EF0BF0FFFF83EFA3
:1016B0000BF0FFFF36EC0EF0106E36EC0EF0106EF5
:1016C00036EC0EF0366E000E116EFFFF2A0E11245E
:1016D000D96EDA6A000EDA2236EC0EF0DF6E112ACD
:1016E0000B0E116476EF0BF079EF0BF0FFFF65EF57
:1016F0000BF0FFFF36EC0EF0106E36EC0EF0106EB5
:10170000365086EF0BF0FFFFAB98580EFFFF12002C
:10171000FFFFFFFF000E026EF5EF0BF0FFFF6EEC18
:101720000CF0022A430E4918D8A499EF0BF09CEF55
:101730000BF0FFFFF5EF0BF0FFFF6EEC0CF0022A51
:10174000000E036EFFFF6EEC0CF0022A370E03242E
:10175000D96EDA6A000EDA2249C0DFFF032A050ECD
:101760000364B5EF0BF0B8EF0BF0FFFFA2EF0BF047
:10177000FFFF000E036ECDEF0BF0FFFF6EEC0CF0E1
:10178000022A2C0E4918D8A4C8EF0BF0CBEF0BF0AF
:10179000FFFFCDEF0BF0FFFF032AFFFF070E0364EF
:1017A000D4EF0BF0D7EF0BF0FFFFBDEF0BF0FFFF17
:1017B000000E036EFFFF6EEC0CF0022A3D0E0324B8
:1017C000D96EDA6A000EDA2249C0DFFF032A050E5D
:1017D0000364EDEF0BF0F0EF0BF0FFFFDAEF0BF02F
:1017E000FFFF000E436EFFEF0BF0FFFF8B0E026456
:1017F000FCEF0BF0FFEF0BF0FFFF8EEF0BF0FFFFA6
:101800001200FFFFFFFF000E106EFFFF36EC0EF020
:10181000116E4A0E1118D8A410EF0CF013EF0CF053
:10182000FFFF16EF0CF0FFFF21EF0CF0FFFF102A77
:10183000090E10641EEF0CF021EF0CF0FFFF05EF16
:101840000CF0FFFF0A0E106028EF0CF02BEF0CF0ED
:10185000FFFF68EF0CF0FFFF36EC0EF0116E520E3A
:101860001118D8A436EF0CF039EF0CF0FFFF68EF39
:101870000CF0FFFF36EC0EF0116E4F0E1118D8A4CD
:1018800044EF0CF047EF0CF0FFFF68EF0CF0FFFFA8
:1018900036EC0EF0116E430E1118D8A452EF0CF076
:1018A00055EF0CF0FFFF68EF0CF0FFFF36EC0EF089
:1018B000116E36EC0EF0116E36EC0EF0366E36EC24
:1018C0000EF0116E36EC0EF0116E36506BEF0CF020
:1018D000FFFFAB98580EFFFF1200FFFFFFFF000E47
:1018E000496EFFFF81B077EF0CF07AEF0CF0FFFF4D
:1018F00071EF0CF0FFFF1D0EFFFFE82EFDD700F08B
:1019000000F000F000F000F000F000F0000E016EBA
:10191000FFFF3A0EFFFFE82EFDD700D000F000F0E9
:1019200000F000F000F000F081A099EF0CF09CEFC7
:101930000CF0FFFFA0EF0CF0FFFF49508009496E4B
:10194000FFFFD8904932012A060E0164AAEF0CF07D
:10195000ADEF0CF0FFFF88EF0CF0FFFF3A0EFFFF3A
:10196000E82EFDD700D000F000F000F000F000F00D
:1019700000F081A0BEEF0CF0C1EF0CF0FFFFC5EF4F
:101980000CF0FFFF49508009496EFFFF3A0EFFFF40
:10199000E82EFDD700D000F01200FFFFFFFFE7EFB9
:1019A0000CF0FFFF11C0F6FF12C0F7FFF86A050E3A
:1019B000F76404D00800FFFFF55005D0F6CFE9FF2B
:1019C000F7CFEAFFEF50F4EC0DF0114A122AFFFFB7
:1019D00011C0F6FF12C0F7FFF86A050EF76404D0D5
:1019E0000800FFFFF55005D0F6CFE9FFF7CFEAFF7B
:1019F000EF500009D8A4FFEF0CF002EF0DF0FFFF4D
:101A0000D1EF0CF0FFFF1200FFFFFFFF1EEF0DF004
:101A1000FFFF02C0F6FF03C0F7FFF86A050EF76488
:101A200004D00800FFFFF55005D0F6CFE9FFF7CF4F
:101A3000EAFFEF5016EC0EF0024A032AFFFF02C045
:101A4000F6FF03C0F7FFF86A050EF76404D008003C
:101A5000FFFFF55005D0F6CFE9FFF7CFEAFFEF50D3
:101A60000009D8A436EF0DF039EF0DF0FFFF08EFB5
:101A70000DF0FFFF1200FFFFFFFF136E0C0E116E43
:101A8000060E126ECEEC0CF01350F4EC0DF0000EBE
:101A9000146EFFFF2A0E1424D96EDA6A000EDA22C1
:101AA000DF50F4EC0DF0142A0B0E14645AEF0DF015
:101AB0005DEF0DF0FFFF49EF0DF0FFFF220E116EFD
:101AC000060E126ECEEC0CF01200FFFFFFFF046E4C
:101AD0000C0E026E060E036E05EC0DF0045016ECB3
:101AE0000EF0000E056EFFFF2A0E0524D96EDA6A8D
:101AF000000EDA22DF5016EC0EF0052A0B0E0564FC
:101B000084EF0DF087EF0DF0FFFF73EF0DF0FFFF97
:101B1000220E026E060E036E05EC0DF01200FFFFA2
:101B2000FFFF8B94000E126EFFFFFF0EE2EC0DF034
:101B3000122A080E12649FEF0DF0A2EF0DF0FFFFC6
:101B400094EF0DF0FFFF8B841D0E116EBD0EFFFF95
:101B5000E82EFDD7112EFBD700D000F01200FFFFBA
:101B60008A0EF66E1C0EF76E000EF86E00EE2AF06E
:101B700010EE1AF00900F5CFEEFFE550E150FAE162
:101B80000001A66B496A486A476A466A456A446A20
:101B90004A904A92000EF86E000113EF03F0FFFF27
:101BA000136E010E116E060E126ECEEC0CF0135079
:101BB000F4EC0DF0220E116E060E126ECEEC0CF04F
:101BC0001200FFFFFFFF106EC95010C0C9FFFFFFDA
:101BD000C7A0EDEF0DF0F0EF0DF0FFFFE7EF0DF018
:101BE000FFFFC9501200FFFFFFFF106E10C0ADFFD6
:101BF00000F0FFFFACA2FFEF0DF002EF0EF0FFFFD1
:101C0000F9EF0DF0FFFF1200FFFFFFFF116E8B9445
:101C10001150E2EC0DF0000EE2EC0DF02A6E000E19
:101C2000E2EC0DF02B6E8B841200FFFFFFFF016EC4
:101C300001C0ADFF00F0FFFFACA221EF0EF024EFDA
:101C40000EF0FFFF1BEF0EF0FFFF1200FFFFFFFF84
:101C5000136E8B941350E2EC0DF01150E2EC0DF08A
:101C60001250E2EC0DF08B841200FFFFFFFF00F03A
:101C7000FFFF9EAA3EEF0EF041EF0EF0FFFF38EFA0
:101C80000EF0FFFFAE501200FFFF5858585858583A
:101C9000585858585858005858585858585858581C
:101CA00058585800FFFF116E8B941150E2EC0DF064
:101CB000000EE2EC0DF02A6E8B841200FFFFFFFF96
:101CC00094969488949A000EC76EC688C650F00BFE
:101CD0000109C66E1200FFFFFFFF949C948E240E34
:101CE000AC6E100EAB6E3F0EAF6E1200FFFFFFFF2B
:101CF000AB8E1200FFFFFFFFC68A1200FFFFFFFF3F
:101D0000AB9E1200FFFFFFFFC69A1200FFFFFFFF0E
:020000040020DA
:08000000FFFFFFFFFFFFFFFF00
:020000040030CA
:04000000FF260E0EBB
:0800060080FF0FC00FE00F4066
:00000001FF
