:020000040000fa
:080000000001040000000000f3
:020000040000fa
:04000800580200009a
:020000040000fa
:04000c005802000096
:020000040000fa
:040010005802000092
:020000040000fa
:04001400580200008e
:020000040000fa
:04001800580200008a
:020000040000fa
:04001c005802000086
:020000040000fa
:040020005802000082
:020000040000fa
:04002400580200007e
:020000040000fa
:04002800580200007a
:020000040000fa
:04002c005802000076
:020000040000fa
:040030005802000072
:020000040000fa
:04003400580200006e
:020000040000fa
:04003800580200006a
:020000040000fa
:04003c005802000066
:020000040000fa
:040040005802000062
:020000040000fa
:04004400580200005e
:020000040000fa
:04004800580200005a
:020000040000fa
:04004c00c8010000e7
:020000040000fa
:040050005802000052
:020000040000fa
:04005400580200004e
:020000040000fa
:04005800580200004a
:020000040000fa
:04005c005802000046
:020000040000fa
:040060005802000042
:020000040000fa
:04006400580200003e
:020000040000fa
:04006800580200003a
:020000040000fa
:04006c005802000036
:020000040000fa
:040070005802000032
:020000040000fa
:04007400580200002e
:020000040000fa
:04007800580200002a
:020000040000fa
:04007c005802000026
:020000040000fa
:040080005802000022
:020000040000fa
:04008400580200001e
:020000040000fa
:040088002002000052
:020000040000fa
:04008c005802000016
:020000040000fa
:040090005802000012
:020000040000fa
:04009400580200000e
:020000040000fa
:04009800580200000a
:020000040000fa
:04009c005802000006
:020000040000fa
:0400a0005802000002
:020000040000fa
:0400a40058020000fe
:020000040000fa
:0400a80058020000fa
:020000040000fa
:0400ac0058020000f6
:020000040000fa
:0400b00058020000f2
:020000040000fa
:0400b40058020000ee
:020000040000fa
:0400b80058020000ea
:020000040000fa
:0400bc0058020000e6
:020000040000fa
:0400c00058020000e2
:020000040000fa
:0400c40058020000de
:020000040000fa
:0400c80058020000da
:020000040000fa
:0400cc0058020000d6
:020000040000fa
:0400d00058020000d2
:020000040000fa
:0400d40058020000ce
:020000040000fa
:0400d80058020000ca
:020000040000fa
:040108005802000099
:020000040000fa
:04010c005802000095
:020000040000fa
:040110005802000091
:020000040000fa
:04011400580200008d
:020000040000fa
:040118005802000089
:020000040000fa
:04011c005802000085
:020000040000fa
:040120005802000081
:020000040000fa
:04012400580200007d
:020000040000fa
:040128005802000079
:020000040000fa
:04012c005802000075
:020000040000fa
:040130005802000071
:020000040000fa
:04013400580200006d
:020000040000fa
:040138005802000069
:020000040000fa
:04013c005802000065
:020000040000fa
:040140005802000061
:020000040000fa
:04014400580200005d
:020000040000fa
:040148005802000059
:020000040000fa
:04014c00c8010000e6
:020000040000fa
:040150005802000051
:020000040000fa
:04015400580200004d
:020000040000fa
:040158005802000049
:020000040000fa
:04015c005802000045
:020000040000fa
:040160005802000041
:020000040000fa
:04016400580200003d
:020000040000fa
:040168005802000039
:020000040000fa
:04016c005802000035
:020000040000fa
:040170005802000031
:020000040000fa
:04017400580200002d
:020000040000fa
:040178005802000029
:020000040000fa
:04017c005802000025
:020000040000fa
:040180005802000021
:020000040000fa
:04018400580200001d
:020000040000fa
:040188002002000051
:020000040000fa
:04018c005802000015
:020000040000fa
:040190005802000011
:020000040000fa
:04019400580200000d
:020000040000fa
:040198005802000009
:020000040000fa
:04019c005802000005
:020000040000fa
:0401a0005802000001
:020000040000fa
:0401a40058020000fd
:020000040000fa
:0401a80058020000f9
:020000040000fa
:0401ac0058020000f5
:020000040000fa
:0401b00058020000f1
:020000040000fa
:0401b40058020000ed
:020000040000fa
:0401b80058020000e9
:020000040000fa
:0401bc0058020000e5
:020000040000fa
:0401c00058020000e1
:020000040000fa
:0401c40058020000dd
:020000040000fa
:0401c80058020000d9
:020000040000fa
:0401cc0058020000d5
:020000040000fa
:0401d00058020000d1
:020000040000fa
:0401d40058020000cd
:020000040000fa
:0401d80058020000c9
:020000040000fa
:100200000f8120000eff20000e018800000000007a
:10021000000020000000e000020032000001200089
:100220002002880014000700a30007000000e0007f
:1002300003003a00c06820000100200002003700df
:100240000000200001002000810f7000010032003a
:1002500014000700000020000000e000020032004f
:1002600000000200000000005e0602000000000026
:100270000040da000000fe004440a900a001200078
:100280000000e0000300320000002000a001880010
:100290004440a800000006008a1f78008b1f7800e9
:1002a0000000060091018800800478000000eb0047
:1002b0001a003700e284440032a0b4009905ba0065
:1002c000e284440032a0b4009906ba00e2844400fb
:1002d00032a0b4000006eb00476fde00fd07b2005d
:1002e000636ce10003003a00ebff07000000eb0045
:1002f0000a003700606ce10004003a00005deb008a
:100300008b05e900fdff3e00040037006168e10055
:10031000010032000086eb000b00070019c7ba008d
:100320001905ba000e04e00003003a000a00e000dc
:10033000e0ff3a0000000600fe07b2009e018800c0
:100340008a047800f5ff3700395dba008b05e900b3
:100350000c003200295dba008b05e900080032006c
:100360000c00e00003003a00e284440032a0b40034
:10037000f5ff370019ddba008b05e900faff3a00f6
:100380008904e800e184440032a0b40000000600c3
:100390003600f800809fbe00829fbe00849fbe0092
:1003a000869fbe000200fa00610480000020200049
:1003b000008060000000e0001a003200210480008c
:1003c00000202000008060000000e00015003200e6
:1003d0008520a90082010700004f78001e00fb0065
:1003e00001032000810f500008003200110320009b
:1003f000810f50000a003a0025020700cb22a80016
:1004000010c3b3006a010700060037002602070088
:10041000cb42a90000c3b30065010700010037000b
:10042000000000000080fa004f03be004f02be0033
:100430004f01be004f00be003600f900004006002c
:100440003600f800809fbe00829fbe00849fbe00e1
:10045000869fbe000000fa0071048000001020009a
:10046000008060000000e0000a00320031048000db
:1004700000102000008060000000e0000500320055
:100480008700a900f701070000c8bf004801070066
:10049000cb42a8000080fa004f03be004f02be000e
:1004a0004f01be004f00be003600f90000400600bc
:0c04b0000040da000000fe000000050023
:020000040000fa
:1004bc004e4e00004e4e00004a5200004f430000ca
:1004cc004d440000000a00000d0000004e4e0000dc
:1004dc004e4e00004a5200004f44000041540000b0
:0404ec00000000000c
:020000040000fa
:1004f0000400fa000040eb00004f78008000eb00a1
:100500000e80e8000108780022003700d5010700be
:10051000018020009140780030c4b30080cf5000ab
:1005200017003a000040eb00004f7800070037004a
:10053000cc0107000180200091407800c0c2b300c8
:1005400080cf500001003a001e4fe8001e407800a6
:10055000e14f5000f6ff3600c20107000180200085
:100560009140780010c4b30080cf500009003a00d9
:1005700091f720000e80e800010878000a0037009b
:100580000e80e800100078008000e8000e80e8008f
:10059000010878000e80e8009000780070f72000d5
:1005a000808f5000d9ff36000080fa00000006005e
:1005b0000200fa000040eb00004f78008040eb00a2
:1005c0000e00e8000148780035003700a50107005b
:1005d000018020009140780030c4b30080cf5000eb
:1005e0002e003a008040eb000e00e8000148780041
:1005f0000b0037009b01070001802000914078002c
:10060000c0c2b30080cf500005003a000e00e800e1
:10061000104078008040e8000e00e80001487800b3
:100620000e00e80010407800e24f5000f1ff360065
:100630008040eb000e00e800014878000e00370013
:10064000880107000e00e800104078000081fb00e0
:1006500001802000914078001080200000004100bf
:10066000014878000e00e800104078008040e80063
:100670000e00e800014878000e00e8001040780005
:10068000eb4f5000eeff36000d68ef000e68ef00f4
:1006900050c8b300004f7800050037001e4fe80037
:1006a00030c8b3009e40780080cf5000c7ff3600ae
:1006b0000080fa00000006000200fa000040eb0093
:1006c000004f78008040eb000e00e8000148780001
:1006d000340037006301070001802000914078005a
:1006e00030c4b30080cf50002d003a008040eb00b2
:1006f0000e00e800014878000b00370059010700a0
:100700000180200091407800c0c2b30080cf50002b
:1007100005003a000e00e800104078008040e80034
:100720000e00e800014878000e00e8001040780054
:10073000e44f5000f1ff36008040eb000e00e8006f
:10074000014878000e003700460107000e00e8005f
:10075000104078000081fb0001802000914078006b
:100760001080200000004100014878000e00e800e1
:10077000104078008040e8000e00e8000148780052
:100780000e00e80010407800ec4f5000eeff3600fd
:100790000e68ef0050c8b300004f78000500370026
:1007a0001e4fe80030c8b3009e40780080cf500054
:1007b000c8ff36000080fa00000006000200fa00c0
:1007c0000040eb00004f78008040eb000e00e80096
:1007d000014878004d003700220107000180200009
:1007e0009140780030c4b30080cf500046003a00fa
:1007f0001c0107008040eb000e00e8000148780073
:100800000e003700170107000e00e80010407800c6
:100810000081fb00018020009140780010802000c2
:1008200000004100014878000e00e8001040780008
:100830008040e8000e00e800014878000e00e80063
:1008400010407800e54f5000eeff36008040eb008e
:100850000e00e800014878000b0037000101070096
:100860000180200091407800c0c2b30080cf5000ca
:1008700005003a000e00e800104078008040e800d3
:100880000e00e800014878000e00e80010407800f3
:10089000e74f5000f1ff36008040eb000e00e8000b
:1008a000014878000f003700ee0007000e00e80056
:1008b000104078000080fb006601400001802000ad
:1008c000914078001080200000004100014878002d
:1008d0000e00e800104078008040e8000e00e800bc
:1008e000014878000e00e80010407800e54f500005
:1008f000edff36000d68ef000e68ef0050c8b30042
:10090000004f7800050037001e4fe80030c8b300e4
:100910009e40780080cf5000afff36008040eb0053
:100920000e00e8000148780006003700cd000700ff
:100930000e00e800104078008040e8000e00e8005b
:10094000014878000e00e80010407800e64f5000a3
:10095000f6ff36000080fa00000006000000fa00f2
:10096000de62a900de42a8006110800090ff2f0027
:1009700000806000601088000c02a900f0002000d8
:10098000a01088000f42a8000080fa0000000600b6
:100990000000fa000de2a8000080fa000000060046
:1009a0000000fa000de2a9000080fa000000060035
:1009b0000200fa00004f7800000000007110800073
:1009c00000102000008060000000e000fbff32000b
:1009d0001e00fb00801088000080fa000000060066
:1009e0000000fa000000000070108000610060004c
:1009f0000000e000fcff3200901080000040780012
:100a00000080fa00000006000200fa00000f7800e3
:100a1000040037001e00780010407800e4ff070053
:100a20001e0fe8001e007800104078000004e0006f
:100a3000f8ff3a000080fa00000006000400fa0007
:100a40000000eb00000f78000a003700e4ff070009
:100a50008000fb000e80e800010878000e80e800ae
:100a600090007800a0042000808f50000500320024
:100a70001e0fe8001e007800e90f5000f3ff34005d
:100a800001003700000000001e007800e90f500050
:100a90002f003c00d2ff07008000fb000e80e80022
:100aa000010878000e80e800900078002005200002
:100ab000808f500026003a00c9ff07008000fb002d
:100ac0000e80e800010878000e80e80090007800b1
:100ad000f0042000808f50001d003a00c0ff070086
:100ae0008000fb000e80e800010878000e80e8001e
:100af0009000780030042000808f500014003a00ed
:100b0000b7ff07008000fb000e80e80001087800b6
:100b1000b3ff07008000fb000e80e80001087800aa
:100b2000afff07000de8b700adff07008000fb0036
:100b30000e80e80001087800a9ff07008000fb0094
:100b40000e80e800010878000dc8bf0001003700e2
:100b500080c5b3000080fa00000006000200fa0021
:100b6000004f7800e0252800a7ff07001e4078000e
:100b70008fff070090262800a3ff07000080fa00df
:100b8000000006000400fa008e80e800804878002b
:100b9000c02628009cff07000e80e8001040780067
:100ba00083ff07000000eb00000f7800050037000e
:100bb000108020001e004000104078007cff0700dd
:100bc0001e0fe8001e007800eb0f5000f8ff340005
:100bd000902628008cff07000080fa000000060025
:100be0000000fa00de82a800dea2a900b110800099
:100bf00090ff2f0000806000b01088001602a9004e
:100c0000f00b2000f01088001942a8000080fa00c4
:100c1000000006000000fa0017e2a8000080fa00b9
:100c2000000006000000fa0017e2a9000080fa00a8
:100c3000000006000200fa00004f780000000000eb
:100c4000c110800000102000008060000000e00063
:100c5000fbff32001e00fb00d01088000080fa006d
:100c6000000006000000fa0000000000c010800034
:100c7000610060000000e000fcff3200e010800036
:100c80000040780000e8b7000080fa00000006008d
:100c90000000fa008700a9001822a9008f00a80010
:100ca0000080fa00000006000000fa008700a9009a
:100cb0008f00a9000080fa00000006000000fa0082
:100cc000f0ff210040158800c722a900c742a900f3
:100cd000cb22a900cb42a900ceff0700c0ff07002e
:100ce0002bff07001dff0700c10480000007200044
:100cf00001007000c00488008520a9008d20a80094
:100d00000105800080ff2f00008060006000b300bc
:080d100000058800ffff370019
:020000040000fa
:100d180000080000100000000000000000000000b3
:020000040000fa
:0200000401f009
:04000000e7bf000056
:020000040000fa
:0200000401f009
:04000400ff7f00007a
:020000040000fa
:0200000401f009
:040008007dff000078
:020000040000fa
:0200000401f009
:04001400ffffff00eb
:020000040000fa
:0200000401f009
:04001800ffff0000e6
:00000001FF
