:020000040000fa
:080000000001040000000000f3
:020000040000fa
:04000800ec01000007
:020000040000fa
:04000c00ec01000003
:020000040000fa
:04001000ec010000ff
:020000040000fa
:04001400ec010000fb
:020000040000fa
:04001800ec010000f7
:020000040000fa
:04001c00ec010000f3
:020000040000fa
:04002000ec010000ef
:020000040000fa
:04002400ec010000eb
:020000040000fa
:04002800ec010000e7
:020000040000fa
:04002c00ec010000e3
:020000040000fa
:04003000ec010000df
:020000040000fa
:04003400c8010000ff
:020000040000fa
:04003800ec010000d7
:020000040000fa
:04003c00ec010000d3
:020000040000fa
:04004000ec010000cf
:020000040000fa
:04004400ec010000cb
:020000040000fa
:04004800ec010000c7
:020000040000fa
:04004c00ec010000c3
:020000040000fa
:04005000ec010000bf
:020000040000fa
:04005400ec010000bb
:020000040000fa
:04005800ec010000b7
:020000040000fa
:04005c00ec010000b3
:020000040000fa
:04006000ec010000af
:020000040000fa
:04006400ec010000ab
:020000040000fa
:04006800ec010000a7
:020000040000fa
:04006c00ec010000a3
:020000040000fa
:04007000ec0100009f
:020000040000fa
:04007400ec0100009b
:020000040000fa
:04007800ec01000097
:020000040000fa
:04007c00ec01000093
:020000040000fa
:04008000ec0100008f
:020000040000fa
:04008400ec0100008b
:020000040000fa
:04008800ec01000087
:020000040000fa
:04008c00ec01000083
:020000040000fa
:04009000ec0100007f
:020000040000fa
:04009400ec0100007b
:020000040000fa
:04009800ec01000077
:020000040000fa
:04009c00ec01000073
:020000040000fa
:0400a000ec0100006f
:020000040000fa
:0400a400ec0100006b
:020000040000fa
:0400a800ec01000067
:020000040000fa
:0400ac00ec01000063
:020000040000fa
:0400b000ec0100005f
:020000040000fa
:0400b400ec0100005b
:020000040000fa
:0400b800ec01000057
:020000040000fa
:0400bc00ec01000053
:020000040000fa
:0400c000ec0100004f
:020000040000fa
:0400c400ec0100004b
:020000040000fa
:0400c800ec01000047
:020000040000fa
:0400cc00ec01000043
:020000040000fa
:0400d000ec0100003f
:020000040000fa
:0400d400ec0100003b
:020000040000fa
:0400d800ec01000037
:020000040000fa
:04010800ec01000006
:020000040000fa
:04010c00ec01000002
:020000040000fa
:04011000ec010000fe
:020000040000fa
:04011400ec010000fa
:020000040000fa
:04011800ec010000f6
:020000040000fa
:04011c00ec010000f2
:020000040000fa
:04012000ec010000ee
:020000040000fa
:04012400ec010000ea
:020000040000fa
:04012800ec010000e6
:020000040000fa
:04012c00ec010000e2
:020000040000fa
:04013000ec010000de
:020000040000fa
:04013400c8010000fe
:020000040000fa
:04013800ec010000d6
:020000040000fa
:04013c00ec010000d2
:020000040000fa
:04014000ec010000ce
:020000040000fa
:04014400ec010000ca
:020000040000fa
:04014800ec010000c6
:020000040000fa
:04014c00ec010000c2
:020000040000fa
:04015000ec010000be
:020000040000fa
:04015400ec010000ba
:020000040000fa
:04015800ec010000b6
:020000040000fa
:04015c00ec010000b2
:020000040000fa
:04016000ec010000ae
:020000040000fa
:04016400ec010000aa
:020000040000fa
:04016800ec010000a6
:020000040000fa
:04016c00ec010000a2
:020000040000fa
:04017000ec0100009e
:020000040000fa
:04017400ec0100009a
:020000040000fa
:04017800ec01000096
:020000040000fa
:04017c00ec01000092
:020000040000fa
:04018000ec0100008e
:020000040000fa
:04018400ec0100008a
:020000040000fa
:04018800ec01000086
:020000040000fa
:04018c00ec01000082
:020000040000fa
:04019000ec0100007e
:020000040000fa
:04019400ec0100007a
:020000040000fa
:04019800ec01000076
:020000040000fa
:04019c00ec01000072
:020000040000fa
:0401a000ec0100006e
:020000040000fa
:0401a400ec0100006a
:020000040000fa
:0401a800ec01000066
:020000040000fa
:0401ac00ec01000062
:020000040000fa
:0401b000ec0100005e
:020000040000fa
:0401b400ec0100005a
:020000040000fa
:0401b800ec01000056
:020000040000fa
:0401bc00ec01000052
:020000040000fa
:0401c000ec0100004e
:020000040000fa
:0401c400ec0100004a
:020000040000fa
:0401c800ec01000046
:020000040000fa
:0401cc00ec01000042
:020000040000fa
:0401d000ec0100003e
:020000040000fa
:0401d400ec0100003a
:020000040000fa
:0401d800ec01000036
:020000040000fa
:100200000f8020000eff20000e018800000000007b
:10021000000020000000e000020032000001200089
:1002200020028800140007006d0007000000e000b5
:1002300003003a0000002000010020000200370007
:100240000000200001002000810f7000010032003a
:1002500014000700000020000000e000020032004f
:100260000000020000000000f20102000000000097
:100270000040da000000fe004440a9000000200019
:100280000000e0000300320000002000a001880010
:100290004440a800000006008a1f78008b1f7800e9
:1002a0000000060091018800800478000000eb0047
:1002b0001a003700e284440032a0b4009905ba0065
:1002c000e284440032a0b4009906ba00e2844400fb
:1002d00032a0b4000006eb00476fde00fd07b2005d
:1002e000636ce10003003a00ebff07000000eb0045
:1002f0000a003700606ce10004003a00005deb008a
:100300008b05e900fdff3e00040037006168e10055
:10031000010032000086eb000b00070019c7ba008d
:100320001905ba000e04e00003003a000a00e000dc
:10033000e0ff3a0000000600fe07b2009e018800c0
:100340008a047800f5ff3700395dba008b05e900b3
:100350000c003200295dba008b05e900080032006c
:100360000c00e00003003a00e284440032a0b40034
:10037000f5ff370019ddba008b05e900faff3a00f6
:100380008904e800e184440032a0b40000000600c3
:10039000809fbe000000fa008460a9005016800013
:1003a0004900de00614060000004a200614060007e
:1003b0000080fb00610060004900dd0051168000f4
:1003c0000190a10001007000501688000080fa0022
:1003d0004f00be00004006000040da000000fe00b2
:0403e0000000050014
:020000040000fa
:1003e4000000fa00f0ff210040158800c722a90090
:1003f400cb22a900020007000e000700ffff370010
:100404000000fa0005e1a90004c1a9002108800048
:10041400f0fc2f00008060000050a000200888003d
:100424000421a90000402b00100888000080fa0075
:10043400000006000000fa00a1048000000027006c
:1004440001007000a00488008460a9008c60a800ea
:100454000021ef0005e1a8000080fa00000006007a
:0c0464000000fa000080fa000000060012
:020000040000fa
:0200000401f009
:04000000e7bf000056
:020000040000fa
:0200000401f009
:04000400ff7f00007a
:020000040000fa
:0200000401f009
:040008007dff000078
:020000040000fa
:0200000401f009
:04001400ffffff00eb
:020000040000fa
:0200000401f009
:04001800ffff0000e6
:00000001FF
