:020000040000fa
:080000000001040000000000f3
:020000040000fa
:04000800940200005e
:020000040000fa
:04000c00940200005a
:020000040000fa
:040010009402000056
:020000040000fa
:040014009402000052
:020000040000fa
:04001800940200004e
:020000040000fa
:04001c00940200004a
:020000040000fa
:040020009402000046
:020000040000fa
:040024009402000042
:020000040000fa
:04002800c80100000b
:020000040000fa
:04002c00940200003a
:020000040000fa
:040030009402000036
:020000040000fa
:040034009402000032
:020000040000fa
:04003800940200002e
:020000040000fa
:04003c00940200002a
:020000040000fa
:040040009402000026
:020000040000fa
:040044009402000022
:020000040000fa
:04004800940200001e
:020000040000fa
:04004c00940200001a
:020000040000fa
:040050009402000016
:020000040000fa
:040054009402000012
:020000040000fa
:04005800940200000e
:020000040000fa
:04005c00940200000a
:020000040000fa
:040060009402000006
:020000040000fa
:040064009402000002
:020000040000fa
:040068005002000042
:020000040000fa
:04006c0094020000fa
:020000040000fa
:0400700094020000f6
:020000040000fa
:0400740094020000f2
:020000040000fa
:0400780094020000ee
:020000040000fa
:04007c0094020000ea
:020000040000fa
:0400800094020000e6
:020000040000fa
:040084000c0200006a
:020000040000fa
:0400880094020000de
:020000040000fa
:04008c0094020000da
:020000040000fa
:0400900094020000d6
:020000040000fa
:0400940094020000d2
:020000040000fa
:0400980094020000ce
:020000040000fa
:04009c0094020000ca
:020000040000fa
:0400a00094020000c6
:020000040000fa
:0400a40094020000c2
:020000040000fa
:0400a80094020000be
:020000040000fa
:0400ac0094020000ba
:020000040000fa
:0400b00094020000b6
:020000040000fa
:0400b40094020000b2
:020000040000fa
:0400b80094020000ae
:020000040000fa
:0400bc0094020000aa
:020000040000fa
:0400c00094020000a6
:020000040000fa
:0400c40094020000a2
:020000040000fa
:0400c800940200009e
:020000040000fa
:0400cc00940200009a
:020000040000fa
:0400d0009402000096
:020000040000fa
:0400d4009402000092
:020000040000fa
:0400d800940200008e
:020000040000fa
:04010800940200005d
:020000040000fa
:04010c009402000059
:020000040000fa
:040110009402000055
:020000040000fa
:040114009402000051
:020000040000fa
:04011800940200004d
:020000040000fa
:04011c009402000049
:020000040000fa
:040120009402000045
:020000040000fa
:040124009402000041
:020000040000fa
:04012800c80100000a
:020000040000fa
:04012c009402000039
:020000040000fa
:040130009402000035
:020000040000fa
:040134009402000031
:020000040000fa
:04013800940200002d
:020000040000fa
:04013c009402000029
:020000040000fa
:040140009402000025
:020000040000fa
:040144009402000021
:020000040000fa
:04014800940200001d
:020000040000fa
:04014c009402000019
:020000040000fa
:040150009402000015
:020000040000fa
:040154009402000011
:020000040000fa
:04015800940200000d
:020000040000fa
:04015c009402000009
:020000040000fa
:040160009402000005
:020000040000fa
:040164009402000001
:020000040000fa
:040168005002000041
:020000040000fa
:04016c0094020000f9
:020000040000fa
:0401700094020000f5
:020000040000fa
:0401740094020000f1
:020000040000fa
:0401780094020000ed
:020000040000fa
:04017c0094020000e9
:020000040000fa
:0401800094020000e5
:020000040000fa
:040184000c02000069
:020000040000fa
:0401880094020000dd
:020000040000fa
:04018c0094020000d9
:020000040000fa
:0401900094020000d5
:020000040000fa
:0401940094020000d1
:020000040000fa
:0401980094020000cd
:020000040000fa
:04019c0094020000c9
:020000040000fa
:0401a00094020000c5
:020000040000fa
:0401a40094020000c1
:020000040000fa
:0401a80094020000bd
:020000040000fa
:0401ac0094020000b9
:020000040000fa
:0401b00094020000b5
:020000040000fa
:0401b40094020000b1
:020000040000fa
:0401b80094020000ad
:020000040000fa
:0401bc0094020000a9
:020000040000fa
:0401c00094020000a5
:020000040000fa
:0401c40094020000a1
:020000040000fa
:0401c800940200009d
:020000040000fa
:0401cc009402000099
:020000040000fa
:0401d0009402000095
:020000040000fa
:0401d4009402000091
:020000040000fa
:0401d800940200008d
:020000040000fa
:100200000f8020000eff20000e018800000000007b
:10021000000020000000e000020032000001200089
:100220002002880014000700c10007000000e00061
:1002300003003a0000002000010020000200370007
:100240000000200001002000810f7000010032003a
:1002500014000700000020000000e000020032004f
:1002600000000200000000009a02020000000000ee
:100270000040da000000fe004440a9000000200019
:100280000000e0000300320000002000a001880010
:100290004440a800000006008a1f78008b1f7800e9
:1002a0000000060091018800800478000000eb0047
:1002b0001a003700e284440032a0b4009905ba0065
:1002c000e284440032a0b4009906ba00e2844400fb
:1002d00032a0b4000006eb00476fde00fd07b2005d
:1002e000636ce10003003a00ebff07000000eb0045
:1002f0000a003700606ce10004003a00005deb008a
:100300008b05e900fdff3e00040037006168e10055
:10031000010032000086eb000b00070019c7ba008d
:100320001905ba000e04e00003003a000a00e000dc
:10033000e0ff3a0000000600fe07b2009e018800c0
:100340008a047800f5ff3700395dba008b05e900b3
:100350000c003200295dba008b05e900080032006c
:100360000c00e00003003a00e284440032a0b40034
:10037000f5ff370019ddba008b05e900faff3a00f6
:100380008904e800e184440032a0b40000000600c3
:100390003600f800809fbe00829fbe00849fbe0092
:1003a000869fbe000000fa008400a900000028001b
:1003b000610120009a0007001116800000802000d3
:1003c000008060000000e0000c003a005016800041
:1003d0004900de00614060000004a200614060004e
:1003e0000080fb00610060004900dd0051168000c4
:1003f0000190a10001007000501688000080fa00f2
:100400004f03be004f02be004f01be004f00be00b2
:100410003600f900004006003600f800809fbe005c
:10042000829fbe00849fbe00869fbe000000fa002f
:1004300086e0a90000002800610120007800070084
:10044000a116800000202000008060000000e00075
:100450000c003a00501680004900de006140600048
:100460000004a200614060000080fb0061006000a9
:100470004900dd00511680000190a10001007000cc
:10048000501688000080fa004f03be004f02be00e5
:100490004f01be004f00be003600f90000400600cc
:1004a0003600f800809fbe00829fbe00849fbe0081
:1004b000869fbe000000fa008600a9000000280008
:1004c0006101200056000700a116800000102000e6
:1004d000008060000000e0000c003a005016800030
:1004e0004900de00614060000004a200614060003d
:1004f0000080fb00610060004900dd0051168000b3
:100500000190a10001007000501688000080fa00e0
:100510004f03be004f02be004f01be004f00be00a1
:100520003600f900004006000040da000000fe003e
:0405300000000500c2
:020000040000fa
:100534000000fa00f0ff210040158800c722a9003e
:10054400cb22a900d302a8000040eb002200070040
:10055400ffff37000200fa00004f78001e407800c9
:10056400e14f500002003a008200a9000100370068
:100574008200a8008400a900a00480007000b300d9
:10058400a00488008c00a8000080fa000000060087
:100594000200fa00004f78001e407800e14f50003e
:1005a40002003a008240a900010037008240a800fe
:1005b40086e0a900f1048000f0ff2800808060003c
:1005c4000000260001007000f00488008ee0a800fe
:1005d4000080fa00000006000200fa00004f7800d4
:1005e4001e407800e14f500002003a008220a9002a
:1005f400010037008220a8008600a900e1048000e1
:1006040080ff2f00008060006000b300e0048800d9
:0c0614008e00a8000080fa000000060024
:020000040000fa
:10062000f03fb1000180b10006003500ee03090083
:1006300000000000403fb1000180b100fbff3d0021
:100640001000b000203fb00002003500008009001b
:0806500000000000000006009c
:020000040000fa
:0200000401f009
:04000000e7bf000056
:020000040000fa
:0200000401f009
:04000400ff7f00007a
:020000040000fa
:0200000401f009
:040008007dff000078
:020000040000fa
:0200000401f009
:04001400ffffff00eb
:020000040000fa
:0200000401f009
:04001800ffff0000e6
:00000001FF
