:060000000A128A11122809
:10000800FE00030E83120313DC000408DD000A0857
:10001800DE007F08DF000A128A15D42C0A128A1122
:100028001528FB01FC01FD018313203084004E30AC
:100038000A128A159D230A128A1183010A128A1547
:10004800392C831603138C1E2A282B28C72B0A1237
:100058008A1169270A128A11F9009C2B35300A1275
:100068008A15D3230A128A1183120313BF01BF2EE4
:1000780030300A128A15D3230A128A115630831295
:100088000313C1003230C2003030C300CD0130301C
:100098000A128A150A240A128A11BF2E31300A124E
:1000A8008A15D3230A128A1183120313C001C00AC6
:1000B8008316031301138B100B16BF2E32300A124E
:1000C8008A15D3230A128A11023083120313C0003F
:1000D8008316031301138B100B16BF2E33300A122D
:1000E8008A15D3230A128A11BF2E34300A128A15B0
:1000F800D3230A128A1183120313C001BF01BF0A56
:100108008316031301138B100B16BF2E36300A12F9
:100118008A15D3230A128A11BF2E37300A128A157C
:10012800D3230A128A11BF2E38300A128A15D32314
:100138000A128A11033083120313C00083160313B3
:1001480001138B100B16BF2E3C308F00B0308E0081
:10015800313090000C10831603130C148312031310
:10016800BE01051439300A128A15D3230A128A11DE
:10017800FD0183120313BF010130F1008030F2004A
:100188000A128A11D4270A128A112E3083120313F5
:10019800860086171A3083120313D500F730D4006F
:1001A800D40BD428D50BD428D928003083120313B4
:1001B800B3000030B2000030B1000030B0000A12C5
:1001C8008A157A240A128A117108FC007008FB004B
:1001D800FA010A128A157A240A128A117108FC0097
:1001E8007008FB00831203133008D4003108D500CF
:1001F8003208D6003308D7007B08D8007C08D9001D
:100208000030D91BFF30DA00DB005808D407590842
:100218000318590F10291129D5075A0803185A0F1E
:1002280016291729D6075B0803185B0AD70757084A
:10023800B3005608B2005508B1005408B0000130A8
:10024800FF007F08FA070A307A02031C2C292D299F
:10025800ED2886132A3086001A3083120313D5003E
:10026800F730D400D40B3629D50B36293B2900307A
:1002780083120313AF000030AE000030AD00003031
:10028800AC000A128A157A240A128A11710883129C
:100298000313BD007008BC00FA010A128A157A24FB
:1002A8000A128A11710883120313BD007008BC007A
:1002B8002C08D4002D08D5002E08D6002F08D7000A
:1002C8003C08D8003D08D9000030D91BFF30DA00BF
:1002D800DB005808D40759080318590F74297529E1
:1002E800D5075A0803185A0F7A297B29D6075B08BD
:1002F80003185B0AD7075708AF005608AE00550821
:10030800AD005408AC000130FF007F08FA070A303E
:100318007A02031C9029912951292C3086001A3021
:1003280083120313D500F730D400D40B9929D50BC9
:1003380099299E29003083120313AB000030AA00CC
:100348000030A9000030A8000A128A157A240A127F
:100358008A11710883120313BB007008BA00FA01EE
:100368000A128A157A240A128A1171088312031351
:10037800BB007008BA002808D4002908D5002A084C
:10038800D6002B08D7003A08D8003B08D90000301F
:10039800D91BFF30DA00DB005808D40759080318C6
:1003A800590FD729D829D5075A0803185A0FDD2914
:1003B800DE29D6075B0803185B0AD7075708AB0086
:1003C8005608AA005508A9005408A8000130FF00E3
:1003D8007F08FA070A307A02031CF329F429B429A2
:1003E800283086001A3083120313D500F730D40062
:1003F800D40BFC29D50BFC29012A003083120313E6
:10040800A7000030A6000030A5000030A4000A12A2
:100418008A157A240A128A11710883120313B90003
:100428007008B800FA010A128A157A240A128A1189
:10043800710883120313B9007008B8002408D400A7
:100448002508D5002608D6002708D7003808D80080
:100458003908D9000030D91BFF30DA00DB00580812
:10046800D40759080318590F3A2A3B2AD5075A08BE
:1004780003185A0F402A412AD6075B0803185B0A5B
:10048800D7075708A7005608A6005508A50054081E
:10049800A4000130FF007F08FA070A307A02031C23
:1004A800562A572A172A203086001A308312031337
:1004B800D500F730D400D40B5F2AD50B5F2A642A05
:1004C800003083120313A3000030A2000030A10003
:1004D8000030A0000A128A157A240A128A117108BB
:1004E80083120313B7007008B600FA010A128A15BE
:1004F8007A240A128A11710883120313B70070084C
:10050800B6002008D4002108D5002208D600230808
:10051800D7003608D8003708D9000030D91BFF307B
:10052800DA00DB005808D40759080318590F9D2A28
:100538009E2AD5075A0803185A0FA32AA42AD607B1
:100548005B0803185B0AD7075708A3005608A200E0
:100558005508A1005408A0000130FF007F08FA07E1
:100568000A307A02031CB92ABA2A7A2A0030F30020
:100578000030F2000030F1000A30F0003308F700D4
:100588003208F6003108F5003008F4000A128A1122
:10059800CC260A128A117108FC007008FB00003092
:1005A800F3000030F2000030F1000A30F00083124E
:1005B80003132F08F7002E08F6002D08F5002C0865
:1005C800F4000A128A11CC260A128A1171088312C1
:1005D8000313BD007008BC000030F3000030F200C7
:1005E8000030F1000A30F0002B08F7002A08F60066
:1005F8002908F5002808F4000A128A11CC260A12E4
:100608008A11710883120313BB007008BA00003006
:10061800F3000030F2000030F1000A30F000270843
:10062800F7002608F6002508F5002408F4000A1249
:100638008A11CC260A128A11710883120313B90091
:100648007008B8000030F3000030F2000030F1000C
:100658000A30F0002308F7002208F6002108F50008
:100668002008F4000A128A11CC260A128A1171088D
:1006780083120313B7007008B6003930F1008030D8
:10068800F2000A128A11D4270A128A117D080A1266
:100698008A15A5230A128A117C08F2007B08F1004A
:1006A8000A128A15C2230A128A11831203133D08FB
:1006B800F2003C08F1000A128A15C2230A128A11B4
:1006C800831203133B08F2003A08F1000A128A1554
:1006D800C2230A128A11831203133908F200380858
:1006E800F1000A128A15C2230A128A11831203130F
:1006F8003708F2003608F1000A128A15C2230A12D6
:100708008A111630F1008030F2000A128A11D427BB
:100718000A128A11831203130510BF2E58300A12C9
:100728008A15D3230A128A11831203131816BF2EAF
:10073800790883120313D400D5015508003A031928
:10074800A62B922B5408303A03193C28013A031976
:100758005228033A03196228013A03197228073A02
:1007680003197928013A03193228033A03198A2808
:10077800013A031991280F3A03199828013A0319E5
:10078800A828922BBF2E83120C1CCB2BCC2BBF2E50
:10079800831603130C1CD12BD22BBF2E83120313E9
:1007A8000C103C308F00B0308E000130FF007F0805
:1007B800BE0702303E06031DE22BE32BBF2EBE010F
:1007C8000130FF007F08FD0705142E3086008617CC
:1007D8001A3083120313D500F730D400D40BF22B50
:1007E800D50BF22BF72B003083120313B300003024
:1007F800B2000030B1000030B0000A128A157A2425
:100808000A128A117108FC007008FB00FA010A122A
:100818008A157A240A128A117108FC007008FB00F4
:10082800831203133008D4003108D5003208D600EB
:100838003308D7007B08D8007C08D9000030D91BC2
:10084800FF30DA00DB005808D40759080318590F9D
:100858002E2C2F2CD5075A0803185A0F342C352C58
:10086800D6075B0803185B0AD7075708B300560872
:10087800B2005508B1005408B0000130FF007F08ED
:10088800FA070A307A02031C4A2C4B2C0B2C8613CD
:100898002A3086001A3083120313D500F730D400AB
:1008A800D40B542CD50B542C592C00308312031321
:1008B800AF000030AE000030AD000030AC000A12CE
:1008C8008A157A240A128A11710883120313BD004B
:1008D8007008BC00FA010A128A157A240A128A11D1
:1008E800710883120313BD007008BC002C08D400E3
:1008F8002D08D5002E08D6002F08D7003C08D800B0
:100908003D08D9000030D91BFF30DA00DB00580859
:10091800D40759080318590F922C932CD5075A0855
:1009280003185A0F982C992CD6075B0803185B0AF2
:10093800D7075708AF005608AE005508AD00540851
:10094800AC000130FF007F08FA070A307A02031C66
:10095800AE2CAF2C6F2C2C3086001A308312031368
:10096800D500F730D400D40BB72CD50BB72CBC2C42
:10097800003083120313AB000030AA000030A90036
:100988000030A8000A128A157A240A128A117108FE
:1009980083120313BB007008BA00FA010A128A1501
:1009A8007A240A128A11710883120313BB00700893
:1009B800BA002808D4002908D5002A08D6002B0830
:1009C800D7003A08D8003B08D9000030D91BFF30BF
:1009D800DA00DB005808D40759080318590FF52C1A
:1009E800F62CD5075A0803185A0FFB2CFC2CD607EF
:1009F8005B0803185B0AD7075708AB005608AA001C
:100A08005508A9005408A8000130FF007F08FA071C
:100A18000A307A02031C112D122DD22C28308600A0
:100A28001A3083120313D500F730D400D40B1A2DD3
:100A3800D50B1A2D1F2D003083120313A700003089
:100A4800A6000030A5000030A4000A128A157A24F6
:100A58000A128A11710883120313B9007008B800CA
:100A6800FA010A128A157A240A128A117108831265
:100A78000313B9007008B8002408D4002508D5006D
:100A88002608D6002708D7003808D8003908D90022
:100A98000030D91BFF30DA00DB005808D4075908AA
:100AA8000318590F582D592DD5075A0803185A0FEE
:100AB8005E2D5F2DD6075B0803185B0AD70757081A
:100AC800A7005608A6005508A5005408A400013040
:100AD800FF007F08FA070A307A02031C742D752D6F
:100AE800352D203086001A3083120313D500F730D5
:100AF800D400D40B7D2DD50B7D2D822D0030831293
:100B08000313A3000030A2000030A1000030A000B1
:100B18000A128A157A240A128A1171088312031399
:100B2800B7007008B600FA010A128A157A240A1268
:100B38008A11710883120313B7007008B6002008E1
:100B4800D4002108D5002208D6002308D70036088B
:100B5800D8003708D9000030D91BFF30DA00DB0095
:100B68005808D40759080318590FBB2DBC2DD507B1
:100B78005A0803185A0FC12DC22DD6075B0803184F
:100B88005B0AD7075708A3005608A2005508A1001A
:100B98005408A0000130FF007F08FA070A307A02E3
:100BA800031CD72DD82D982D05100030F3000030E8
:100BB800F2000030F1000A30F0003308F700320884
:100BC800F6003108F5003008F4000A128A11CC2624
:100BD8000A128A117108FC007008FB000030F3004B
:100BE8000030F2000030F1000A30F00083120313E5
:100BF8002F08F7002E08F6002D08F5002C08F40041
:100C08000A128A11CC260A128A1171088312031358
:100C1800BD007008BC000030F3000030F200003066
:100C2800F1000A30F0002B08F7002A08F60029081E
:100C3800F5002808F4000A128A11CC260A128A1133
:100C4800710883120313BB007008BA000030F30068
:100C58000030F2000030F1000A30F0002708F700F9
:100C68002608F6002508F5002408F4000A128A115F
:100C7800CC260A128A11710883120313B90070086E
:100C8800B8000030F3000030F2000030F1000A3004
:100C9800F0002308F7002208F6002108F5002008D4
:100CA800F4000A128A11CC260A128A1171088312DA
:100CB8000313B7007008B6003930F1008030F20035
:100CC8000A128A11D4270A128A117D080A128A1573
:100CD800A5230A128A117C08F2007B08F1000A1287
:100CE8008A15C2230A128A11831203133D08F200DF
:100CF8003C08F1000A128A15C2230A128A118312CB
:100D080003133B08F2003A08F1000A128A15C223BD
:100D18000A128A11831203133908F2003808F10005
:100D28000A128A15C2230A128A118312031337087A
:100D3800F2003608F1000A128A15C2230A128A1133
:100D48001630F1008030F2000A128A11D4270A12F4
:100D58008A1104307D06031DB22EB32EBF2E8316D2
:100D680003130C10831203133F03031DBC2EBD2E67
:100D7800C62B8B100B16831203135F08FF005E0847
:100D88008A005D0884005C0E8300FE0E7E0E09005A
:100D980083120313CF01F31FD22ED32EE02EF009B6
:100DA800F109F209F309F00A0319F10A0319F20A21
:100DB8000319F30ACF01CF0AF71FE32EE42EF32E0F
:100DC800F409F509F609F709F40A0319F50A0319EC
:100DD800F60A0319F70A0130FF007F08CF06003032
:100DE800D3000030D2000030D1000030D0007308AA
:100DF8007204710470040319022F032F502FCE01BF
:100E0800CE0A132F0130F8000310F00DF10DF20D8A
:100E1800F30DF80B082F0130FF007F08CE07F31FF2
:100E2800162F172F062F0130F8000310D00DD10D03
:100E3800D20DD30DF80B192F73087702031D2E2F2F
:100E480072087602031D2E2F71087502031D2E2FBE
:100E580070087402031C312F322F412F7008F402DE
:100E68007108031C710FF5027208031C720FF60259
:100E78007308031C730FF702501401300310F30CAE
:100E8800F20CF10CF00CFF3E031D422F0130CE0294
:100E9800031D4F2F502F172F4F080319542F552F6D
:100EA800602FD009D109D209D309D00A0319D10A70
:100EB8000319D20A0319D30A5308F3005208F2009F
:100EC8005108F1005008F0000800F0010A128A15D4
:100ED800B2230A128A11F1004A307106031D752FD8
:100EE800762F772F812F0130FF007F08F0070A3017
:100EF8007002031C802F812F6A2F0A30700203189A
:100F0800862F872FCF2F0A128A15B2230A128A1129
:100F1800F10052307106031D922F932FCF2F0A1222
:100F28008A15B2230A128A11F1004F307106031D87
:100F38009E2F9F2FCF2F0A128A15B2230A128A11C9
:100F4800F10043307106031DAA2FAB2FCF2F0A12D1
:100F58008A15B2230A128A11F1000A128A15B223DD
:100F68000A128A11F1000A128A15B2230A128A118A
:100F780083120313CD000A128A15B2230A128A11AA
:100F8800F1000A128A15B2230A128A11F10083129B
:100F980003134D08D32F8312031318125830080077
:100FA800E92F7208FF00710884000A128A150020D0
:100FB8000A128A110A128A15A5230A128A11013007
:100FC800F1070318F20A0030F207720883120313BC
:100FD800FF00710884000A128A1500200A128A117B
:100FE800003A031DF82FF92FD52F08008312031399
:040FF800981708003E
:10100000FF1B0A2883137F1883170008840A03191B
:10101000FF0A080008308A000408840A82070034A6
:1010200047342D344A3452344F34443441345434E8
:101030004534583458345834583458345834583463
:10104000583458345834583458340A340D34003431
:101050004E344E344E344E344A3452344F3443348A
:101060004D34443400344E344E344E344E344A34CD
:1010700052344F34443441345434003447342D34E2
:101080004A3452344F3444344134543445340034B7
:0E1090004A3452344F34413444345134003425
:10173200831203139813080064008001840A0406CC
:101742000319003404069E2BF00070088312031361
:1017520099000000831203130C1EB02BB12BAB2B8C
:10176200080083120313910112158C1AB92BBA2B9C
:10177200BE2B8C1CBD2BBE2BB62B12118C101A0843
:1017820008007208F4007108F30073080A128A153F
:10179200A5230A128A1574080A128A15A5230A12A9
:1017A2008A150800F3001930F1008030F2000A12A5
:1017B2008A11D4270A128A1573080A128A15A523D8
:1017C2000A128A151630F1008030F2000A128A11CC
:1017D200D4270A128A1508008316031307138717E2
:1017E20024309800103083120313980019308316A6
:1017F200031399007A30831203139200FF30831689
:1018020003139200831203138C10831603138C1696
:101812000800F3002430F1008030F2000A128A112D
:10182200D4270A128A1573080A128A15A5230A12E6
:101832008A15F4017408413E8400831300080A12D9
:101842008A15A5230A128A150130FF007F08F407C2
:101852000C307402031C2E2C2F2C1B2C1630F10082
:101862008030F2000A128A11D4270A128A1508005F
:101872000630831603139F0083120313850186012A
:1018820087018316031385018601870183120313DF
:101892000717831603130614061687158716831275
:1018A2000313861685140511033083160313A20051
:1018B2000830A1007630A000A00B5D2CA10B5D2C9E
:1018C200A20B5D2C00000A128A15ED230A128A155A
:1018D2000A128A11FA270A128A150B178B1783121A
:1018E2000313051086130613BE01762C0A128A1101
:1018F2001228831203138616851405112130F20073
:10190200F20B812C8312031385108612061A8A2C7D
:101912008B2C872C86168514061E902C912C8D2CD0
:1019220086120515061A962C972C932C051105156F
:10193200061E9C2C9D2C992CF401F501F301051136
:10194200000083120313871EA72CA82CAE2C013093
:101952007404F40000307504F5000515013003101D
:10196200F40DF50DFF3E031DB02C0130FF007F0882
:10197200F3070F307302031CBF2CC02CA02C0511DF
:10198200000083120313871EC72CC82CCE2C0130F3
:101992007404F40000307504F50086167508F10031
:1019A2007408F00008008B1CD72CD82CF82F0B1EC3
:1019B200DB2CDC2CF82F8B100B12E22F3F03031DC4
:1019C200E32CE62C0A128A11BF2E3C308F00B03075
:1019D2008E00313090000C10831603130C14FD019D
:1019E2002F30F1008030F2000A128A11D4270A1235
:1019F2008A154130F1000030F2000A128A11D42710
:101A02000A128A151630F1008030F2000A128A1189
:101A1200D4270A128A158312031305142E30860066
:101A22001A3083120313D500F730D400D40B172DCC
:101A3200D50B172D1C2D003083120313B300003079
:101A4200B2000030B1000030B0000A128A157A24C8
:101A52000A128A157108FC007008FB00FA010A12CA
:101A62008A157A240A128A157108FC007008FB0094
:101A7200831203133008D4003108D5003208D6008F
:101A82003308D7007B08D8007C08D9000030D91B66
:101A9200FF30DA00DB005808D40759080318590F41
:101AA200532D542DD5075A0803185A0F592D5A2D64
:101AB200D6075B0803185B0AD7075708B300560816
:101AC200B2005508B1005408B0000130FF007F0891
:101AD200FA070A307A02031C6F2D702D302D2A303E
:101AE20086001A3083120313D500F730D400D40BCA
:101AF200782DD50B782D7D2D003083120313AF0086
:101B02000030AE000030AD000030AC000A128A1581
:101B12007A240A128A15710883120313BD00700811
:101B2200BC00FA010A128A157A240A128A1571086F
:101B320083120313BD007008BC002C08D4002D08CA
:101B4200D5002E08D6002F08D7003C08D8003D0843
:101B5200D9000030D91BFF30DA00DB005808D40767
:101B620059080318590FB62DB72DD5075A0803186F
:101B72005A0FBC2DBD2DD6075B0803185B0AD70789
:101B82005708AF005608AE005508AD005408AC0027
:101B92000130FF007F08FA070A307A02031CD22DB7
:101BA200D32D932D2C3086001A3083120313D500C7
:101BB200F730D400D40BDB2DD50BDB2DE02D00301C
:101BC20083120313AB000030AA000030A9000030DA
:101BD200A8000A128A157A240A128A157108831239
:101BE2000313BB007008BA00FA010A128A157A249C
:101BF2000A128A15710883120313BB007008BA0017
:101C02002808D4002908D5002A08D6002B08D700B6
:101C12003A08D8003B08D9000030D91BFF30DA005F
:101C2200DB005808D40759080318590F192E1A2E29
:101C3200D5075A0803185A0F1F2E202ED6075B0805
:101C420003185B0AD7075708AB005608AA005508C5
:101C5200A9005408A8000130FF007F08FA070A30E3
:101C62007A02031C352E362EF62D283086001A30C5
:101C720083120313D500F730D400D40B3E2ED50BBC
:101C82003E2E432E003083120313A7000030A6001D
:101C92000030A5000030A4000A128A157A240A1224
:101CA2008A15710883120313B9007008B800FA018B
:101CB2000A128A157A240A128A15710883120313EA
:101CC200B9007008B8002408D4002508D5002608F9
:101CD200D6002708D7003808D8003908D9000030C4
:101CE200D91BFF30DA00DB005808D4075908031863
:101CF200590F7C2E7D2ED5075A0803185A0F822EB3
:101D0200832ED6075B0803185B0AD7075708A7007C
:101D12005608A6005508A5005408A4000130FF008B
:101D22007F08FA070A307A02031C982E992E592E40
:101D3200203086001A3083120313D500F730D40006
:101D4200D40BA12ED50BA12EA62E00308312031385
:101D5200A3000030A2000030A1000030A0000A124F
:101D62008A157A240A128A15710883120313B7009E
:101D72007008B600FA010A128A157A240A128A1524
:101D8200710883120313B7007008B6002008D4004C
:101D92002108D5002208D6002308D7003608D8002B
:101DA2003708D9000030D91BFF30DA00DB005808B1
:101DB200D40759080318590FDF2EE02ED5075A0809
:101DC20003185A0FE52EE62ED6075B0803185B0AA6
:101DD200D7075708A3005608A2005508A1005408C7
:101DE200A0000130FF007F08FA070A307A02031CC4
:101DF200FB2EFC2EBC2E05100030F3000030F2004A
:101E02000030F1000A30F0003308F7003208F60023
:101E12003108F5003008F4000A128A11CC260A12A1
:101E22008A157108FC007008FB000030F3000030D6
:101E3200F2000030F1000A30F000831203132F0881
:101E4200F7002E08F6002D08F5002C08F4000A12FF
:101E52008A11CC260A128A15710883120313BD0057
:101E62007008BC000030F3000030F2000030F100D6
:101E72000A30F0002B08F7002A08F6002908F500BE
:101E82002808F4000A128A11CC260A128A1571084F
:101E920083120313BB007008BA000030F300003055
:101EA200F2000030F1000A30F0002708F70026089F
:101EB200F6002508F5002408F4000A128A11CC263F
:101EC2000A128A15710883120313B9007008B80048
:101ED2000030F3000030F2000030F1000A30F00070
:101EE2002308F7002208F6002108F5002008F40074
:101EF2000A128A11CC260A128A1571088312031358
:101F0200B7007008B6003930F1008030F2000A12D2
:101F12008A11D4270A128A157D080A128A15A52366
:101F22000A128A157C08F2007B08F1000A128A154F
:101F3200C2230A128A15831203133D08F2003C08D9
:101F4200F1000A128A15C2230A128A158312031398
:101F52003B08F2003A08F1000A128A15C2230A125B
:101F62008A15831203133908F2003808F1000A12A5
:101F72008A15C2230A128A15831203133708F20044
:101F82003608F1000A128A15C2230A128A1516307F
:101F9200F1008030F2000A128A11D4270A128A153F
:101FA200E32C31300A128A150A240A128A15E32C0C
:101FB20032300A128A150A240A128A15E32C00000A
:101FC200E32C4008D400D5015508003A0319EA2F42
:101FD200E02F5408003A0319DF2C013A0319D22FDB
:101FE200033A0319D92F013A0319E02FE02F8C1E6F
:0E1FF200FD2F0A128A1125280A128A11C72B08
:08400000FF3FFF3FFF3FFF3FC0
:02400E00323F3F
:00000001FF
