:0600000000F03CEF08F0E7
:10000800FFFF5D82D9CF55F0DACF56F0F6CF57F023
:10001800F7CF58F0F8CF59F0F5CF5AF09DAA17EF5F
:1000280000F01AEF00F0FFFFADEF04F0FFFF9EAA0B
:1000380020EF00F023EF00F0FFFFADEF04F0FFFF2B
:1000480081EC09F05B6E76EF04F0FFFF350E2FECC4
:100058000BF0000E366E2CEF08F0FFFF300E2FEC81
:100068000BF0560E0001606F320E616F300E626F3A
:10007800000E6C6F300EA3EC0AF02CEF08F0FFFFB7
:10008800310E2FEC0BF02CEF08F0FFFF320E2FECA7
:100098000BF02CEF08F0FFFF330E2FEC0BF034ECD5
:1000A8000AF00001606F07EC0BF0030E536E640E4C
:1000B800FFFFE82EFDD7532EFBD700F0090EF0EC1A
:1000C8000AF031C061F032C062F033C063F034C06E
:1000D80064F0030E536E640EFFFFE82EFDD7532E17
:1000E800FBD700F00A0EF0EC0AF031C065F032C020
:1000F80066F033C067F034C068F0000E00016C6F22
:10010800330EA3EC0AF02CEF08F0FFFF340E2FECAF
:100118000BF02CEF08F0FFFF360E2FEC0BF00C0E57
:10012800816E110E536EC30EFFFFE82EFDD7532EBE
:10013800FBD700D000F0000E0001856F000E866F1F
:10014800000E876F000E886F800E67EC0BF0000EB4
:10015800466E000EF6EC08F0000E5C6EFFFF800E97
:1001680067EC0BF0000E466E010EF6EC08F046C088
:100178006DF047C06EF048C06FF049C070F00001E4
:100188006D518525856F6E518621866F6F51872148
:10019800876F70518821886F5C2A040E5C64D7EFE2
:1001A80000F0DAEF00F0FFFFB2EF00F0FFFF85C0CC
:1001B80038F086C039F087C03AF088C03BF0050EA9
:1001C8003C6E000E3D6E000E3E6E000E3F6E5AEC09
:1001D80008F038C06DF039C06EF03AC06FF03BC01F
:1001E80070F06DC039F06EC03AF06FC03BF070C06F
:1001F8003CF055EC0BF02CEF08F0FFFF370E2FEC1E
:100208000BF02CEF08F0FFFF380E2FEC0BF02CEF63
:1002180008F0FFFF8A8E8984100ED76E000ED66E06
:10022800840ED56EF294F28AF298000E356E000EA6
:10023800366E390E2FEC0BF07D0E396E100E3A6EBD
:10024800CDEC0AF0C00E67EC0BF099EC0BF0380E11
:10025800816E110E536EC30EFFFFE82EFDD7532E8D
:10026800FBD700D000F0000E2D6E000E2E6E000E93
:100278002F6E000E306E000E466E000EF6EC08F083
:10028800000E5C6EFFFF000E466E010EF6EC08F0E5
:1002980046C00DF047C00EF048C00FF049C010F03E
:1002A8000D502D242D6E0E502E202E6E0F502F2007
:1002B8002F6E10503020306E5C2A040E5C6467EF9D
:1002C80001F06AEF01F0FFFF46EF01F0FFFF99EC44
:1002D8000BF0180E816E110E536EC30EFFFFE82E41
:1002E800FDD7532EFBD700D000F0000E296E000E6C
:1002F8002A6E000E2B6E000E2C6E000E466E000E3F
:10030800F6EC08F0000E5C6EFFFF000E466E010E64
:10031800F6EC08F046C009F047C00AF048C00BF0F8
:1003280049C00CF009502924296E0A502A202A6E47
:100338000B502B202B6E0C502C202C6E5C2A040E9C
:100348005C64A9EF01F0ACEF01F0FFFF88EF01F06A
:10035800FFFF99EC0BF0280E816E110E536EC30E41
:10036800FFFFE82EFDD7532EFBD700D000F0000E7C
:10037800256E000E266E000E276E000E286E000EEB
:10038800466E000EF6EC08F0000E5C6EFFFF000EE5
:10039800466E010EF6EC08F046C005F047C006F0C0
:1003A80048C007F049C008F005502524256E0650BE
:1003B8002620266E07502720276E08502820286EF2
:1003C8005C2A040E5C64EBEF01F0EEEF01F0FFFF36
:1003D800CAEF01F0FFFF99EC0BF0080E816E110EC9
:1003E800536EC30EFFFFE82EFDD7532EFBD700D068
:1003F80000F0000E216E000E226E000E236E000E1D
:10040800246E000E466E000EF6EC08F0000E5C6ED0
:10041800FFFF000E466E010EF6EC08F046C001F034
:1004280047C002F048C003F049C004F0015021243D
:10043800216E02502220226E03502320236E045086
:100448002420246E5C2A040E5C642DEF02F030EF49
:1004580002F0FFFF0CEF02F0FFFF99EC0BF0040E27
:10046800816E110E536EC30EFFFFE82EFDD7532E7B
:10047800FBD700D000F0000E1D6E000E1E6E000EA1
:100488001F6E000E206E000E466E000EF6EC08F091
:10049800000E5C6EFFFF000E466E010EF6EC08F0D3
:1004A80046C081F047C082F048C083F049C084F05C
:1004B800000181511D241D6E82511E201E6E835124
:1004C8001F201F6E84512020206E5C2A040E5C645D
:1004D80070EF02F073EF02F0FFFF4EEF02F0FFFF44
:1004E80099EC0BF0340E816E110E536EC30EFFFFA4
:1004F800E82EFDD7532EFBD700D000F0000E196E62
:10050800000E1A6E000E1B6E000E1C6E000E466E5C
:10051800000EF6EC08F0000E5C6EFFFF000E466E53
:10052800010EF6EC08F046C079F047C07AF048C0F2
:100538007BF049C07CF0000179511924196E7A5179
:100548001A201A6E7B511B201B6E7C511C201C6EBE
:100558005C2A040E5C64B3EF02F0B6EF02F0FFFF12
:1005680091EF02F0FFFF99EC0BF0140E816E110E63
:10057800536EC30EFFFFE82EFDD7532EFBD700D0D6
:1005880000F0000E156E000E166E000E176E000EAF
:10059800186E000E466E000EF6EC08F0000E5C6E4B
:1005A800FFFF000E466E010EF6EC08F046C075F02F
:1005B80047C076F048C077F049C078F0000175511F
:1005C8001524156E76511620166E77511720176E62
:1005D80078511820186E5C2A040E5C64F6EF02F05D
:1005E800F9EF02F0FFFFD4EF02F0FFFF99EC0BF0F8
:1005F800240E816E110E536EC30EFFFFE82EFDD739
:10060800532EFBD700D000F0000E116E000E126EB4
:10061800000E136E000E146E000E466E000EF6EC01
:1006280008F0000E5C6EFFFF000E466E010EF6EC41
:1006380008F046C071F047C072F048C073F049C076
:1006480074F0000171511124116E72511220126E52
:1006580073511320136E74511420146E5C2A040E07
:100668005C6439EF03F03CEF03F0FFFF17EF03F092
:10067800FFFF2DC038F02EC039F02FC03AF030C03F
:100688003BF0050E3C6E000E3D6E000E3E6E000EF9
:100698003F6E5AEC08F038C00DF039C00EF03AC081
:1006A8000FF03BC010F029C038F02AC039F02BC039
:1006B8003AF02CC03BF0050E3C6E000E3D6E000E6D
:1006C8003E6E000E3F6E5AEC08F038C009F039C093
:1006D8000AF03AC00BF03BC00CF025C038F026C039
:1006E80039F027C03AF028C03BF0050E3C6E000EEA
:1006F8003D6E000E3E6E000E3F6E5AEC08F038C09C
:1007080005F039C006F03AC007F03BC008F021C038
:1007180038F022C039F023C03AF024C03BF0050E6F
:100728003C6E000E3D6E000E3E6E000E3F6E5AECA3
:1007380008F038C001F039C002F03AC003F03BC0FD
:1007480004F01DC038F01EC039F01FC03AF020C0B8
:100758003BF0050E3C6E000E3D6E000E3E6E000E28
:100768003F6E5AEC08F038C081F039C082F03AC0C8
:1007780083F03BC084F019C038F01AC039F01BC0B0
:100788003AF01CC03BF0050E3C6E000E3D6E000EAC
:100798003E6E000E3F6E5AEC08F038C079F039C052
:1007A8007AF03AC07BF03BC07CF015C038F016C038
:1007B80039F017C03AF018C03BF0050E3C6E000E39
:1007C8003D6E000E3E6E000E3F6E5AEC08F038C0CB
:1007D80075F039C076F03AC077F03BC078F011C0B8
:1007E80038F012C039F013C03AF014C03BF0050ECF
:1007F8003C6E000E3D6E000E3E6E000E3F6E5AECD3
:1008080008F038C071F039C072F03AC073F03BC0DC
:1008180074F0AB0E396E100E3A6ECDEC0AF035500E
:1008280079EC0BF00DC039F00EC03AF00FC03BF078
:1008380010C03CF055EC0BF009C039F00AC03AF092
:100848000BC03BF00CC03CF055EC0BF005C039F088
:1008580006C03AF007C03BF008C03CF055EC0BF07E
:1008680001C039F002C03AF003C03BF004C03CF0CC
:1008780055EC0BF081C039F082C03AF083C03BF0F0
:1008880084C03CF055EC0BF079C039F07AC03AF0EE
:100898007BC03BF07CC03CF055EC0BF075C039F0E8
:1008A80076C03AF077C03BF078C03CF055EC0BF0DE
:1008B80071C039F072C03AF073C03BF074C03CF0BC
:1008C80055EC0BF0920E396E100E3A6ECDEC0AF024
:1008D80089942CEF08F0FFFF580E2FEC0BF0AB8833
:1008E8002CEF08F0FFFF5B50536E546A5450000A17
:1008F800D8B481EF04F06FEF04F0FFFF5350300AD3
:10090800D8B431EF00F0010AD8B443EF00F0030A7D
:10091800D8B449EF00F0010AD8B44FEF00F0070A45
:10092800D8B489EF00F0010AD8B429EF00F0030A1F
:10093800D8B48FEF00F0010AD8B401EF01F00F0A24
:10094800D8B407EF01F0010AD8B40DEF01F06FEF4A
:1009580004F0FFFFF2AAB3EF04F0B6EF04F0FFFFD4
:100968002CEF08F0FFFFF2A4BCEF04F0BFEF04F097
:10097800FFFF2CEF08F0FFFF8984F294100ED76E6A
:10098800000ED66E352A99EC0BF0380E816E110EDA
:10099800536EC30EFFFFE82EFDD7532EFBD700D0B2
:1009A80000F0000E2D6E000E2E6E000E2F6E000E43
:1009B800306E000E466E000EF6EC08F0000E5C6E0F
:1009C800FFFF000E466E010EF6EC08F046C00DF073
:1009D80047C00EF048C00FF049C010F00D502D244C
:1009E8002D6E0E502E202E6E0F502F202F6E105071
:1009F8003020306E5C2A040E5C6405EF05F008EFC9
:100A080005F0FFFFE4EF04F0FFFF99EC0BF0180E80
:100A1800816E110E536EC30EFFFFE82EFDD7532EC5
:100A2800FBD700D000F0000E296E000E2A6E000ED3
:100A38002B6E000E2C6E000E466E000EF6EC08F0C3
:100A4800000E5C6EFFFF000E466E010EF6EC08F01D
:100A580046C009F047C00AF048C00BF049C00CF086
:100A680009502924296E0A502A202A6E0B502B205F
:100A78002B6E0C502C202C6E5C2A040E5C6447EF05
:100A880005F04AEF05F0FFFF26EF05F0FFFF99ECB0
:100A98000BF0280E816E110E536EC30EFFFFE82E69
:100AA800FDD7532EFBD700D000F0000E256E000EA8
:100AB800266E000E276E000E286E000E466E000E83
:100AC800F6EC08F0000E5C6EFFFF000E466E010E9D
:100AD800F6EC08F046C005F047C006F048C007F03D
:100AE80049C008F005502524256E06502620266E9C
:100AF80007502720276E08502820286E5C2A040EED
:100B08005C6489EF05F08CEF05F0FFFF68EF05F0F6
:100B1800FFFF99EC0BF0080E816E110E536EC30E99
:100B2800FFFFE82EFDD7532EFBD700D000F0000EB4
:100B3800216E000E226E000E236E000E246E000E33
:100B4800466E000EF6EC08F0000E5C6EFFFF000E1D
:100B5800466E010EF6EC08F046C001F047C002F000
:100B680048C003F049C004F001502124216E02500E
:100B78002220226E03502320236E04502420246E4A
:100B88005C2A040E5C64CBEF05F0CEEF05F0FFFFA6
:100B9800AAEF05F0FFFF99EC0BF0040E816E110E21
:100BA800536EC30EFFFFE82EFDD7532EFBD700D0A0
:100BB80000F0000E1D6E000E1E6E000E1F6E000E61
:100BC800206E000E466E000EF6EC08F0000E5C6E0D
:100BD800FFFF000E466E010EF6EC08F046C081F0ED
:100BE80047C082F048C083F049C084F000018151B9
:100BF8001D241D6E82511E201E6E83511F201F6EE4
:100C080084512020206E5C2A040E5C640EEF06F0EE
:100C180011EF06F0FFFFECEF05F0FFFF99EC0BF08A
:100C2800340E816E110E536EC30EFFFFE82EFDD7F2
:100C3800532EFBD700D000F0000E196E000E1A6E6E
:100C4800000E1B6E000E1C6E000E466E000EF6ECBB
:100C580008F0000E5C6EFFFF000E466E010EF6EC0B
:100C680008F046C079F047C07AF048C07BF049C028
:100C78007CF0000179511924196E7A511A201A6EE4
:100C88007B511B201B6E7C511C201C6E5C2A040EA1
:100C98005C6451EF06F054EF06F0FFFF2FEF06F00B
:100CA800FFFF99EC0BF0140E816E110E536EC30EFC
:100CB800FFFFE82EFDD7532EFBD700D000F0000E23
:100CC800156E000E166E000E176E000E186E000ED2
:100CD800466E000EF6EC08F0000E5C6EFFFF000E8C
:100CE800466E010EF6EC08F046C075F047C076F087
:100CF80048C077F049C078F0000175511524156E89
:100D080076511620166E77511720176E78511820D5
:100D1800186E5C2A040E5C6494EF06F097EF06F0F8
:100D2800FFFF72EF06F0FFFF99EC0BF0240E816EC7
:100D3800110E536EC30EFFFFE82EFDD7532EFBD7BF
:100D480000D000F0000E116E000E126E000E136E31
:100D5800000E146E000E466E000EF6EC08F0000E43
:100D68005C6EFFFF000E466E010EF6EC08F046C002
:100D780071F047C072F048C073F049C074F00001C8
:100D880071511124116E72511220126E7351132079
:100D9800136E74511420146E5C2A040E5C64D7EF31
:100DA80006F0DAEF06F0FFFFB5EF06F0FFFF2DC003
:100DB80038F02EC039F02FC03AF030C03BF0050EA5
:100DC8003C6E000E3D6E000E3E6E000E3F6E5AECFD
:100DD80008F038C00DF039C00EF03AC00FF03BC033
:100DE80010F029C038F02AC039F02BC03AF02CC0D6
:100DF8003BF0050E3C6E000E3D6E000E3E6E000E82
:100E08003F6E5AEC08F038C009F039C00AF03AC011
:100E18000BF03BC00CF025C038F026C039F027C0D5
:100E28003AF028C03BF0050E3C6E000E3D6E000EF9
:100E38003E6E000E3F6E5AEC08F038C005F039C01F
:100E480006F03AC007F03BC008F021C038F022C0D5
:100E580039F023C03AF024C03BF0050E3C6E000E7A
:100E68003D6E000E3E6E000E3F6E5AEC08F038C024
:100E780001F039C002F03AC003F03BC004F01DC0D5
:100E880038F01EC039F01FC03AF020C03BF0050E04
:100E98003C6E000E3D6E000E3E6E000E3F6E5AEC2C
:100EA80008F038C081F039C082F03AC083F03BC006
:100EB80084F019C038F01AC039F01BC03AF01CC0D1
:100EC8003BF0050E3C6E000E3D6E000E3E6E000EB1
:100ED8003F6E5AEC08F038C079F039C07AF03AC061
:100EE8007BF03BC07CF015C038F016C039F017C055
:100EF8003AF018C03BF0050E3C6E000E3D6E000E39
:100F08003E6E000E3F6E5AEC08F038C075F039C0DE
:100F180076F03AC077F03BC078F011C038F012C0D4
:100F280039F013C03AF014C03BF0050E3C6E000EC9
:100F38003D6E000E3E6E000E3F6E5AEC08F038C053
:100F480071F039C072F03AC073F03BC074F0AB0E68
:100F5800396E100E3A6ECDEC0AF0355079EC0BF084
:100F68000DC039F00EC03AF00FC03BF010C03CF095
:100F780055EC0BF009C039F00AC03AF00BC03BF051
:100F88000CC03CF055EC0BF005C039F006C03AF047
:100F980007C03BF008C03CF055EC0BF001C039F03D
:100FA80002C03AF003C03BF004C03CF055EC0BF033
:100FB80081C039F082C03AF083C03BF084C03CF075
:100FC80055EC0BF079C039F07AC03AF07BC03BF0B1
:100FD8007CC03CF055EC0BF075C039F076C03AF0A7
:100FE80077C03BF078C03CF055EC0BF071C039F09D
:100FF80072C03AF073C03BF074C03CF055EC0BF093
:10100800920E396E100E3A6ECDEC0AF08994040EE9
:101018003518D8A412EF08F015EF08F0FFFF2CEFF1
:1010280008F0FFFFF29A8A9E3604D8A41EEF08F053
:1010380021EF08F0FFFF26EF08F0FFFFF292F28899
:101048002CEF08F0FFFFFF0E466E000EF6EC08F0DE
:10105800FFFF5AC0F5FF59C0F8FF58C0F7FF57C047
:10106800F6FF56C0DAFF55C0D9FF5D921100FFFFA9
:101078001CEF0BF000472D4A524F44415445585835
:10108800585858585858585858580A0D004E4E4EE7
:101098004E4A524F434D44004E4E4E4E4A524F44D4
:0B10A8004154004A524F4144510000E7
:1010B400FFFF000E416E3FBE65EF08F062EF08F0DF
:1010C400FFFF70EF08F0FFFF3F1E3E1E3D1E3C6C0D
:1010D400000E3D223E223F22010E416EFFFF3BBE29
:1010E40079EF08F076EF08F0FFFF84EF08F0FFFFD8
:1010F4003B1E3A1E391E386C000E39223A223B221E
:10110400010E411AFFFF000E426E000E436E000EE8
:10111400446E000E456E3C503D103E103F10D8B456
:1011240096EF08F099EF08F0FFFFD8EF08F0FFFF03
:10113400010E406EA5EF08F0FFFFD8903C363D3617
:101144003E363F36402AFFFF3FAEABEF08F0AEEF2E
:1011540008F0FFFF9EEF08F0FFFFFFFFD890423634
:101164004336443645363C50385C3D5039583E5041
:101174003A583F503B58D8A0C2EF08F0C5EF08F0EA
:10118400FFFFCFEF08F0FFFF3C50385E3D50395A67
:101194003E503A5A3F503B5A4280FFFFD8903F326C
:1011A4003E323D323C32402EAFEF08F0FFFF41505B
:1011B400D8B4DFEF08F0E2EF08F0FFFFEBEF08F040
:1011C400FFFF451E441E431E426C000E4322442270
:1011D4004522FFFF42C038F043C039F044C03AF022
:1011E40045C03BF01200FFFFFFFF4E6EFFFF82B8C9
:1011F400FEEF08F001EF09F0FFFFF8EF08F0FFFF42
:101204004650F0EC0AF0000E4F6E000E506E000EC9
:10121400516E000E526E4E50D8B413EF09F016EF13
:1012240009F0FFFF76EF09F0FFFF31C04AF04B6A87
:101234004C6A4D6A4AC04DF04C6A4B6A4A6A4F5038
:101244004A104F6E50504B10506E51504C10516E0E
:1012540052504D10526E32C04AF04B6A4C6A4D6A7D
:101264004BC04DF04AC04CF04B6A4A6A4F504A108A
:101274004F6E50504B10506E51504C10516E525096
:101284004D10526E33C04AF04B6A4C6A4D6A4CC0E2
:101294004DF04BC04CF04AC04BF04A6A4F504A10D4
:1012A4004F6E50504B10506E51504C10516E525066
:1012B4004D10526E4FC038F050C039F051C03AF062
:1012C40052C03BF0000E3C6E010E3D6E000E3E6EB1
:1012D400000E3F6E5AEC08F038C04FF039C050F0A1
:1012E4003AC051F03BC052F0FFFF4FC046F050C02F
:1012F40047F051C048F052C049F01200FFFFFFFF11
:10130400000E3B6EFFFFEFEC09F03C6E4A0E3C18FA
:10131400D8A48FEF09F092EF09F0FFFF95EF09F0E1
:10132400FFFFA0EF09F0FFFF3B2A090E3B649DEF8E
:1013340009F0A0EF09F0FFFF84EF09F0FFFF0A0EA8
:101344003B60A7EF09F0AAEF09F0FFFFE9EF09F00E
:10135400FFFFEFEC09F03C6E520E3C18D8A4B5EF39
:1013640009F0B8EF09F0FFFFE9EF09F0FFFFEFEC38
:1013740009F03C6E4F0E3C18D8A4C3EF09F0C6EF39
:1013840009F0FFFFE9EF09F0FFFFEFEC09F03C6E15
:10139400430E3C18D8A4D1EF09F0D4EF09F0FFFFB5
:1013A400E9EF09F0FFFFEFEC09F03C6EEFEC09F018
:1013B4003C6EEFEC09F000016C6FEFEC09F03C6E51
:1013C400EFEC09F03C6E00016C51ECEF09F0FFFF0B
:1013D400AB98580EFFFF1200FFFFFFFF000E396E9F
:1013E4003A68000ECC6ECA8422EF0AF0FFFF9EBA60
:1013F400FEEF09F001EF0AF0FFFF0AEF0AF0FFFF2A
:101404009EA207EF0AF00AEF0AF0FFFFF8EF09F0D7
:10141400FFFF9E92392A9EBA12EF0AF015EF0AF0E6
:10142400FFFF1FEF0AF0FFFF030E39641CEF0AF001
:101434001FEF0AF0FFFF22EF0AF0FFFF000E3A6EE3
:10144400FFFF3A50D8A429EF0AF02CEF0AF0FFFF6F
:10145400F8EF09F0FFFF9E92CA94AECF38F03850EF
:101464001200FFFFFFFF000E3B6EFFFFFF0E67EC55
:101474000BF03B2A0E0E3B6442EF0AF045EF0AF0F4
:10148400FFFF37EF0AF0FFFFFE0E67EC0BF0050ECF
:101494003A6EC90EFFFFE82EFDD73A2EFBD700D0D7
:1014A40000F00B0EF0EC0AF0318A030E42EC0BF064
:1014B4000F0EFFFFE82EFDD700F0319A030E42EC29
:1014C4000BF00F0EFFFFE82EFDD700F00B0EF0EC33
:1014D4000AF031501200FFFFFFFFC150F00B070963
:1014E400C16E000E896E8980000E8A6E000E8B6EAE
:1014F400010E926E010E936EF19E000E946E8AECB4
:101504000BF0B5EC0BF0A8EC0BF0B9EC0BF0010E02
:1015140000018A6FF00E896F860EFFFFE82EFDD75B
:10152400892FFBD78A2FF9D700F0D09E000EF26ED8
:10153400F28CF28E89948A9EFFFF9EEF0AF03CEFB4
:1015440008F0FFFF3B6EA00E396E100E3A6ECDEC24
:101554000AF03B5079EC0BF0000E3C6EFFFF600E7E
:101564003C24D96EDA6A000EDA22DF5079EC0BF0F3
:101574003C2A0B0E3C64C1EF0AF0C4EF0AF0FFFFF3
:10158400B0EF0AF0FFFF920E396E100E3A6ECDECFA
:101594000AF01200FFFFFFFFDCEF0AF0FFFF39C083
:1015A400F6FF3AC0F7FF0800FFFFF55079EC0BF0A7
:1015B400394A3A2AFFFF39C0F6FF3AC0F7FF08005C
:1015C400FFFFF5500009D8A4EAEF0AF0EDEF0AF0A6
:1015D400FFFFD0EF0AF0FFFF1200FFFFFFFF396E9D
:1015E400395067EC0BF0000E67EC0BF0316E000E17
:1015F40067EC0BF0326E000E67EC0BF0336E000EEE
:1016040067EC0BF0346E1200FFFFFFFF0B0EF0ECE3
:101614000AF03182030E42EC0BF0050E316E000E1F
:10162400326E050E336E000E346E050E42EC0BF076
:101634001200FFFF00EE60F0290EEE6AE806FDE1FD
:1016440000EE01F0370EEE6AE806FDE15D905D9272
:10165400000EF86E00016EEF0AF0FFFF3B6E950E70
:10166400396E100E3A6ECDEC0AF03B5079EC0BF06B
:10167400920E396E100E3A6ECDEC0AF01200FFFF96
:10168400FFFF396E395067EC0BF0315067EC0BF00B
:10169400325067EC0BF0335067EC0BF0345067ECCE
:1016A4000BF01200FFFFFFFF3BC03FF03AC03EF0DB
:1016B40039C03DF03D5079EC0BF03E5079EC0BF025
:1016C4003F5079EC0BF01200FFFFFFFF386EC9505A
:1016D40038C0C9FFFFFFC7A072EF0BF075EF0BF026
:1016E400FFFF6CEF0BF0FFFFC9501200FFFFFFFF7D
:1016F400386E38C0ADFF00F0FFFFACA284EF0BF0F2
:1017040087EF0BF0FFFF7EEF0BF0FFFF1200FFFFF0
:10171400FFFF949C948E240EAC6E100EAB6E3F0EA5
:10172400AF6E9D8A7B0ECA6ECB681200FFFFFFFF6F
:101734000C0E816E3D0EFFFFE82EFDD700F0000E6B
:10174400466E000EF6EC08F01200FFFFFFFF9496C1
:101754009488949AC79EC78CC698C650F00B020909
:10176400C66E1200FFFFFFFFAB8E1200FFFFFFFFEC
:10177400C68A1200FFFFFFFFAB9E1200FFFFFFFFB0
:08178400C69A1200FFFFFFFFEF
:020000040020DA
:08000000FFFFFFFFFFFFFFFF00
:020000040030CA
:04000000FF260E0EBB
:0800060080FF0FC00FE00F4066
:00000001FF
