:0600000000F02DEF00F0FE
:10000800FFFF0182F2AA0BEF00F00EEF00F0FFFFF6
:1000180028EF00F0FFFFF2A414EF00F017EF00F054
:10002800FFFF28EF00F0FFFFF294100ED76E3D0E91
:10003800D66E80A422EF00F026EF00F0FFFF89843F
:1000480028EF00F0FFFF8994FFFF01921100FFFFE6
:10005800FFFF49EF00F0FFFFC150F00B0709C16E29
:10006800000E896E000E926EF294100ED76E3D0E41
:10007800D66E830ED56ED09E000EF26EF28AF28E88
:10008800FFFF44EF00F02DEF00F001900192000116
:060098002FEF00F0FFFF56
:020000040020DA
:08000000FFFFFFFFFFFFFFFF00
:020000040030CA
:04000000FF260E0EBB
:0800060080FF0FC00FE00F4066
:00000001FF
