:060000000A128A11122809
:10000800FE00030E83120313E6000408E7000A0843
:10001800E8007F08E9000A168A11B12D0A128A1130
:1000280015288313203084004F300A128A150420C3
:100038000A128A11A0308400CD300A128A150420D1
:100048000A128A1183010A168A114A2A58300A1696
:100058008A1140210A128A11831203131816F62DE9
:100068006A08E200E3016308003A03193C282A28D9
:100078006208303A0A128A110319642E013A0319E8
:100088007A2E033A03198A2E0A128A11013A0319A1
:10009800152E073A03190F2E013A0319092E033AB0
:1000A8000319062E013A0319182E0F3A0319122EB6
:1000B800013A03190C2E2A2883120C1C642865287F
:1000C800F62D831603130C1C6A286B28F62D831251
:1000D800031305150C1010308F0006308E00013008
:1000E800FF007F08CC070A168A112B210A128A11F1
:1000F80038308312031386008617173083120313D0
:10010800E3005530E200E20B8728E30B8728000064
:10011800003083120313CB000030CA000030C9003E
:100128000030C800D50100300A168A11DE230A12F1
:100138008A1183120313EB0105306B02031CA528F7
:10014800A628A728E028D50101300A168A11DE233F
:100158000A128A11831203135808B7005708B60009
:100168005608B5005508B40048083407E2000030C6
:10017800031801304907E4010318E40A3507E300CE
:100188000318E40A4A086407E5010318E50A360774
:10019800E4000318E50A4B0865073707E50065081A
:1001A800CB006408CA006308C9006208C8000130AF
:1001B800FF007F08EB07A02886130A168A112B2157
:1001C8000A128A111830831203138600173083121B
:1001D8000313E3005530E200E20BF028E30BF028AC
:1001E8000000003083120313C7000030C60000303F
:1001F800C5000030C400D50100300A168A11DE237C
:100208000A128A1183120313EB0105306B02031CD7
:100218000E290F2910294929D50101300A168A11FA
:10022800DE230A128A11831203135808B3005708F1
:10023800B2005608B1005508B00044083007E20083
:100248000030031801304507E4010318E40A3107B8
:10025800E3000318E40A46086407E5010318E50A01
:100268003207E4000318E50A470865073307E50085
:100278006508C7006408C6006308C5006208C400B2
:100288000130FF007F08EB0709290A168A112B2184
:100298000A128A112830831203138600173083123A
:1002A8000313E3005530E200E20B5829E30B582909
:1002B8000000003083120313C3000030C200003076
:1002C800C1000030C000D50100300A168A11DE23B3
:1002D8000A128A1183120313EB0105306B02031C07
:1002E800762977297829B129D50101300A168A118A
:1002F800DE230A128A11831203135808AF00570825
:10030800AE005608AD005508AC0040082C07E200C6
:100318000030031801304107E4010318E40A2D07EF
:10032800E3000318E40A42086407E5010318E50A34
:100338002E07E4000318E50A430865072F07E500C0
:100348006508C3006408C2006308C1006208C000F1
:100358000130FF007F08EB0771290A168A112B214B
:100368000A128A1108308312031386001730831289
:100378000313E3005530E200E20BC029E30BC02968
:100388000000003083120313BF000030BE000030AD
:10039800BD000030BC00D50100300A168A11DE23EA
:1003A8000A128A1183120313EB0105306B02031C36
:1003B800DE29DF29E029192AD50101300A168A1118
:1003C800DE230A128A11831203135808AB00570858
:1003D800AA005608A9005508A8003C082807E2000A
:1003E8000030031801303D07E4010318E40A290727
:1003F800E3000318E40A3E086407E5010318E50A68
:100408002A07E4000318E50A3F0865072B07E500FB
:100418006508BF006408BE006308BD006208BC0030
:100428000130FF007F08EB07D9290A168A112B2112
:100438000A128A11043083120313860017308312BC
:100448000313E3005530E200E20B282AE30B282AC5
:100458000000003083120313BB000030BA000030E4
:10046800B9000030B800D50100300A168A11DE2321
:100478000A128A1183120313EB0105306B02031C65
:10048800462A472A482A812AD50101300A168A11A4
:10049800DE230A128A11831203135808A70057088B
:1004A800A6005608A5005508A40038082407E2004D
:1004B8000030031801303907E4010318E40A25075E
:1004C800E3000318E40A3A086407E5010318E50A9B
:1004D8002607E4000318E50A3B0865072707E50037
:1004E8006508BB006408BA006308B9006208B80070
:1004F8000130FF007F08EB07412A0A168A112B21D9
:100508000A128A11343083120313860017308312BB
:100518000313E3005530E200E20B902AE30B902A24
:100528000000003083120313A3000030A200003043
:10053800A1000030A000D50100300A168A11DE2380
:100548000A128A1183120313EB0105306B02031C94
:10055800AE2AAF2AB02A092BD50101300A168A1112
:10056800DE230A128A118312031358088316031311
:10057800AB0083120313570883160313AA008312D0
:100588000313560883160313A9008312031355088F
:1005980083160313A800831203132008831603137A
:1005A800280783120313E2000030031801302107E3
:1005B800E4010318E40A83160313290783120313BB
:1005C800E3000318E40A22086407E5010318E50AB2
:1005D800831603132A0783120313E4000318E50A9A
:1005E80023086507831603132B0783120313E500FB
:1005F8006508A3006408A2006308A1006208A000BF
:100608000130FF007F08EB07A92A0A168A112B215F
:100618000A128A11143083120313860017308312CA
:100628000313E3005530E200E20B182BE30B182B01
:100638000000003083160313B3000030B20000300E
:10064800B1000030B00083120313D50100300A1640
:100658008A11DE230A128A1183120313EB01053073
:100668006B02031C382B392B3A2BAB2BD5010130ED
:100678000A168A11DE230A128A11831203135808F4
:1006880083160313A7008312031357088316031353
:10069800A60083120313560883160313A5008312BA
:1006A8000313550883160313A40030082407831284
:1006B8000313E200003003180130831603133107D7
:1006C80083120313E4010318E40A831603132507AE
:1006D80083120313E3000318E40A83160313320892
:1006E800831203136407E5010318E50A831603134D
:1006F800260783120313E4000318E50A831603137D
:10070800330883120313650783160313270783121D
:100718000313E500650883160313B300831203135C
:10072800640883160313B200831203136308831645
:100738000313B10083120313620883160313B00076
:100748000130FF007F0883120313EB07332B0A16CF
:100758008A112B210A128A1124308312031386006E
:10076800173083120313E3005530E200E20BBA2B73
:10077800E30BBA2B0000003083160313AF000030E0
:10078800AE000030AD000030AC0083120313D50179
:1007980000300A168A11DE230A128A118312031303
:1007A800EB0105306B02031CDA2BDB2BDC2B4D2C09
:1007B800D50101300A168A11DE230A128A11831222
:1007C8000313580883160313A3008312031357084F
:1007D80083160313A2008312031356088316031308
:1007E800A10083120313550883160313A0002C08D5
:1007F800200783120313E200003003180130831628
:1008080003132D0783120313E4010318E40A831664
:100818000313210783120313E3000318E40A831662
:1008280003132E08831203136407E5010318E50A6E
:1008380083160313220783120313E4000318E50A3F
:10084800831603132F0883120313650783160313F4
:10085800230783120313E500650883160313AF000B
:1008680083120313640883160313AE008312031361
:10087800630883160313AD008312031362088316FB
:100888000313AC000130FF007F0883120313EB074A
:10089800D52B0030F3000030F2000030F1000530B5
:1008A800F0004B08F7004A08F6004908F500480828
:1008B800F4000A168A1141230A128A117308831256
:1008C8000313B7007208B6007108B5007008B400C9
:1008D8000030F3000030F2000030F1000530F00085
:1008E8004708F7004608F6004508F5004408F400F4
:1008F8000A168A1141230A128A11730883120313F4
:10090800B3007208B2007108B1007008B00000307E
:10091800F3000030F2000030F1000530F000430829
:10092800F7004208F6004108F5004008F4000A16EE
:100938008A1141230A128A11730883120313AF0024
:100948007208AE007108AD007008AC000030F3000A
:100958000030F2000030F1000530F0003F08F700E9
:100968003E08F6003D08F5003C08F4000A168A1116
:1009780041230A128A11730883120313AB00720809
:10098800AA007108A9007008A8000030F300003020
:10099800F2000030F1000530F0003B08F7003A089B
:1009A800F6003908F5003808F4000A168A114123C0
:1009B8000A128A11730883120313A7007208A6008B
:1009C8007108A5007008A4000030F3000030F200A0
:1009D8000030F1000530F0002308F7002208F60087
:1009E8002108F5002008F4000A168A1141230A128A
:1009F8008A11730883160313AB007208AA007108E2
:100A0800A9007008A8000030F3000030F2000030A0
:100A1800F1000530F0003308F7003208F60031081D
:100A2800F5003008F4000A168A1141230A128A11C7
:100A3800730883160313A7007208A6007108A5009F
:100A48007008A4000030F3000030F2000030F1001C
:100A58000530F0002F08F7002E08F6002D08F500E5
:100A68002C08F4000A168A1141230A128A11730805
:100A780083160313A3007208A2007108A10070086E
:100A8800A0003930F1008030F2000A168A11952151
:100A98000A128A11831203134C080A168A11EF20CE
:100AA8000A128A11831203133708F4003608F30078
:100AB8003508F2003408F1000A168A110F220A12CA
:100AC8008A11831203133308F4003208F300310843
:100AD800F2003008F1000A168A110F220A128A1150
:100AE800831203132F08F4002E08F3002D08F200D8
:100AF8002C08F1000A168A110F220A128A11831291
:100B080003132B08F4002A08F3002908F200280828
:100B1800F1000A168A110F220A128A11831203138E
:100B28002708F4002608F3002508F2002408F1003D
:100B38000A168A110F220A128A11831603132B0828
:100B4800F4002A08F3002908F2002808F1000A1620
:100B58008A110F220A128A11831603132708F40038
:100B68002608F3002508F2002408F1000A168A1165
:100B78000F220A128A11831603132308F40022088D
:100B8800F3002108F2002008F1000A168A110F224A
:100B98000A128A111630F1008030F2000A168A1102
:100BA80095210A128A1183120313051104304C0689
:100BB800031DDF2DE02DF62D831603130C10831271
:100BC80003134D03031DE92DEA2DED2D8B100B1694
:100BD800F62DFF30D50000300A168A11DE230A12DE
:100BE8008A11F62D831203136908FF0068088A002A
:100BF80067088400660E8300FE0E7E0E09000A1642
:100C08008A11C02D0A128A11EC2E0A128A115A2E44
:100C18000A168A11B92C0A128A11D52E0A168A11B7
:100C2800A92C0A128A119A2E0A168A11A02C313080
:100C38000A128A11CF270A128A110A128A11F62D6E
:100C480032300A128A11CF270A128A11212E000087
:100C5800212E4E08E200E3016308003A0319352EFD
:100C68002B2E6208003A0319CC2F013A03191B2EC8
:100C7800033A0319242E013A03192B2E2B2E8C1E0E
:100C8800462E492E0A128A116028831603138C1ED9
:100C98004E2E4F2E462E0A168A11D6220A128A1175
:100CA80083120313EA000A128A11342835300A160F
:100CB8008A1140210A128A1183120313CD01212EB1
:100CC80030300A168A1140210A128A1156308316CA
:100CD8000313C0003230C1003030C200CC013030C4
:100CE8000A128A11CF270A128A11212E31300A16C8
:100CF8008A1140210A128A1183120313CE01CE0AE7
:100D08008316031301138B100B16212E32300A168B
:100D18008A1140210A128A11023083120313CE006D
:100D28008316031301138B100B16212E33300A166A
:100D38008A1140210A128A110A168A1189220A1276
:100D48008A1183160313C0000A168A1177210A1222
:100D58008A1109300A168A11E3210A128A118316A8
:100D680003133C08C1003D08C2003E08C3003F0809
:100D7800C4000A300A168A11E3210A128A1183165E
:100D880003133C08C5003D08C6003E08C7003F08DD
:100D9800C800CC0133300A128A11CF270A128A11EF
:100DA800212E34300A168A1140210A128A11831220
:100DB8000313CE01CD01CD0AC0300A168A110B21CA
:100DC8000A128A118316031301138B100B16212E96
:100DD80036300A168A1140210A128A110C30831201
:100DE80003138600173083120313E3005530E20023
:100DF800E20BFC2EE30BFC2E0000003083160313DD
:100E0800BB000030BA000030B9000030B8008030B4
:100E18000A168A110B210A128A1183120313D501AB
:100E280000300A168A11DE230A128A11831203136C
:100E3800EB0105306B02031C222F232F242F9D2F3B
:100E480080300A168A110B210A128A1183120313A1
:100E5800D50101300A168A11DE230A128A1183127B
:100E68000313580883160313B70083120313570894
:100E780083160313B600831203135608831603134D
:100E8800B50083120313550883160313B4003808FA
:100E9800340783120313E20000300318013083166D
:100EA8000313390783120313E4010318E40A8316B2
:100EB8000313350783120313E3000318E40A8316A8
:100EC80003133A08831203136407E5010318E50ABC
:100ED80083160313360783120313E4000318E50A85
:100EE800831603133B088312031365078316031342
:100EF800370783120313E500650883160313BB0045
:100F080083120313640883160313BA0083120313AE
:100F1800630883160313B900831203136208831648
:100F28000313B8000130FF007F0883120313EB0797
:100F38001D2F0030F3000030F2000030F1000530C2
:100F4800F000831603133B08F7003A08F600390847
:100F5800F5003808F4000A168A1141230A128A118A
:100F6800730883160313B7007208B6007108B5003A
:100F78007008B4003708F4003608F3003508F200AA
:100F88003408F1000A168A110F220A128A11212E3A
:100F98000A128A11032EF3002430F1008030F20087
:100FA8000A168A1195210A128A1173080A168A11DB
:100FB800EF200A128A11F4017408C03E84008313DA
:100FC80000080A168A11EF200A128A110130FF0060
:100FD8007F08F4070C307402031CF32FF42FE02F62
:100FE8001630F1008030F2000A168A1195210A1293
:040FF8008A11080052
:10100000831203139817080064008001840A040601
:1010100003190034040605280A168A112B210A1226
:101020008A1534308312031386001730831203139A
:10103000E3005530E200E20B1B28E30B1B28000005
:10104000003083120313A3000030A2000030A1007F
:101050000030A000D50100300A168A11DE230A12E2
:101060008A1583120313EB0105306B02031C392828
:101070003A283B289428D50101300A168A11DE232C
:101080000A128A1583120313580883160313AB0040
:1010900083120313570883160313AA008312031342
:1010A000560883160313A9008312031355088316E9
:1010B0000313A800831203132008831603132807C1
:1010C00083120313E2000030031801302107E4010A
:1010D0000318E40A83160313290783120313E3009A
:1010E0000318E40A22086407E5010318E50A8316D9
:1010F00003132A0783120313E4000318E50A2308E5
:101100006507831603132B0783120313E500650895
:10111000A3006408A2006308A1006208A0000130D7
:10112000FF007F08EB0734280A168A112B210A12C8
:101130008A151430831203138600173083120313A9
:10114000E3005530E200E20BA328E30BA3280000E4
:10115000003083160313B3000030B2000030B1003A
:101160000030B00083120313D50100300A168A1133
:10117000DE230A128A1583120313EB0105306B027A
:10118000031CC328C428C7280A128A15722AD5014D
:1011900001300A168A11DE230A128A1583120313FC
:1011A000580883160313A7008312031357088316E6
:1011B0000313A60083120313560883160313A50016
:1011C00083120313550883160313A4003008240761
:1011D00083120313E2000030031801308316031357
:1011E000310783120313E4010318E40A831603137F
:1011F000250783120313E3000318E40A831603137D
:101200003208831203136407E5010318E50A831605
:101210000313260783120313E4000318E50A831659
:101220000313330883120313650783160313270779
:1012300083120313E500650883160313B3008312BA
:101240000313640883160313B200831203136308A5
:1012500083160313B100831203136208831603136A
:10126000B0000130FF007F0883120313EB07BE2894
:101270000A168A112B210A128A15283083120313A9
:101280008600173083120313E3005530E200E20BAF
:101290004729E30B47290000003083120313C300E2
:1012A0000030C2000030C1000030C000D501003065
:1012B0000A168A11DE230A128A1583120313EB0120
:1012C00005306B02031C652966296729A029D50111
:1012D00001300A168A11DE230A128A1583120313BB
:1012E0005808AF005708AE005608AD005508AC00CE
:1012F00040082C07E2000030031801304107E401E8
:101300000318E40A2D07E3000318E40A42086407FF
:10131000E5010318E50A2E07E4000318E50A43086F
:1013200065072F07E5006508C3006408C20063086D
:10133000C1006208C0000130FF007F08EB07602990
:101340000A168A112B210A128A15083083120313F8
:101350008600173083120313E3005530E200E20BDE
:10136000AF29E30BAF290000003083120313BF0045
:101370000030BE000030BD000030BC00D5010030A0
:101380000A168A11DE230A128A1583120313EB014F
:1013900005306B02031CCD29CE29CF29082AD5019F
:1013A00001300A168A11DE230A128A1583120313EA
:1013B0005808AB005708AA005608A9005508A8000D
:1013C0003C082807E2000030031801303D07E40123
:1013D0000318E40A2907E3000318E40A3E08640737
:1013E000E5010318E50A2A07E4000318E50A3F08A7
:1013F00065072B07E5006508BF006408BE006308A9
:10140000BD006208BC000130FF007F08EB07C8295F
:101410000A168A112B210A128A150430831203132B
:101420008600173083120313E3005530E200E20B0D
:10143000172AE30B172A0000003083120313BB00A6
:101440000030BA000030B9000030B800D5010030DB
:101450000A168A11DE230A128A1583120313EB017E
:1014600005306B02031C352A362A392A0A128A15DE
:101470000C28D50101300A168A11DE230A128A15BA
:10148000831203135808A7005708A6005608A500A2
:101490005508A40038082407E20000300318013082
:1014A0003907E4010318E40A2507E3000318E40AF6
:1014B0003A086407E5010318E50A2607E400031863
:1014C000E50A3B0865072707E5006508BB006408D7
:1014D000BA006308B9006208B8000130FF007F0855
:1014E000EB07302A0A168A112B210A128A1524309A
:1014F000831203138600173083120313E300553061
:10150000E200E20B812AE30B812A000000308316FF
:101510000313AF000030AE000030AD000030AC006F
:1015200083120313D50100300A168A11DE230A1232
:101530008A1583120313EB0105306B02031CA12AE9
:10154000A22AA32A142BD50101300A168A11DE2300
:101550000A128A1583120313580883160313A30073
:1015600083120313570883160313A2008312031375
:10157000560883160313A10083120313550883161C
:101580000313A0002C08200783120313E20000308D
:1015900003180130831603132D0783120313E4018C
:1015A0000318E40A83160313210783120313E300CD
:1015B0000318E40A831603132E0883120313640727
:1015C000E5010318E50A83160313220783120313A8
:1015D000E4000318E50A831603132F08831203138C
:1015E000650783160313230783120313E5006508B9
:1015F00083160313AF0083120313640883160313C7
:10160000AE0083120313630883160313AD00831225
:101610000313620883160313AC000130FF007F0838
:1016200083120313EB079C2A0030F3000030F20012
:101630000030F1000530F0004B08F7004A08F600D2
:101640004908F5004808F4000A168A1141230A12D5
:101650008A15730883120313B7007208B600710865
:10166000B5007008B4000030F3000030F200003024
:10167000F1000530F0004708F7004608F60045087D
:10168000F5004408F4000A168A1141230A128A154B
:10169000730883120313B3007208B2007108B1001B
:1016A0007008B0000030F3000030F2000030F100AC
:1016B0000530F0004308F7004208F6004108F50045
:1016C0004008F4000A168A1141230A128A15730889
:1016D00083120313AF007208AE007108AD007008EA
:1016E000AC000030F3000030F2000030F1000530B3
:1016F000F0003F08F7003E08F6003D08F5003C0802
:10170000F4000A168A1141230A128A1573088312FB
:101710000313AB007208AA007108A9007008A800A2
:101720000030F3000030F2000030F1000530F0002E
:101730003B08F7003A08F6003908F5003808F400CD
:101740000A168A1141230A128A1573088312031399
:10175000A7007208A6007108A5007008A400003058
:10176000F3000030F2000030F1000530F0002308F3
:10177000F7002208F6002108F5002008F4000A16F8
:101780008A1141230A128A15730883160313AB00CA
:101790007208AA007108A9007008A8000030F300C0
:1017A0000030F2000030F1000530F0003308F7009F
:1017B0003208F6003108F5003008F4000A168A11E4
:1017C00041230A128A15730883160313A7007208AF
:1017D000A6007108A5007008A4000030F3000030D6
:1017E000F2000030F1000530F0002F08F7002E085D
:1017F000F6002D08F5002C08F4000A168A11412382
:101800000A128A15730883160313A3007208A20034
:101810007108A1007008A0003930F1008030F2009A
:101820000A168A1195210A128A15831203134C088D
:101830000A168A11EF200A128A1583120313370839
:10184000F4003608F3003508F2003408F1000A16F7
:101850008A110F220A128A15831203133308F40027
:101860003208F3003108F2003008F1000A168A113C
:101870000F220A128A15831203132F08F4002E0870
:10188000F3002D08F2002C08F1000A168A110F222D
:101890000A128A15831203132B08F4002A08F30096
:1018A0002908F2002808F1000A168A110F220A12EC
:1018B0008A15831203132708F4002608F30025086D
:1018C000F2002408F1000A168A110F220A128A1562
:1018D000831603132B08F4002A08F3002908F200EA
:1018E0002808F1000A168A110F220A128A15831697
:1018F00003132708F4002608F3002508F200240843
:10190000F1000A168A110F220A128A158316031390
:101910002308F4002208F3002108F2002008F10057
:101920000A168A110F220A128A151630F100803029
:10193000F2000A168A1195210A128A1583120313DE
:1019400005110A128A11F62D0A168A112B210A1284
:101950008A15343083120313860017308312031361
:10196000E3005530E200E20BB32CE30BB32C000094
:10197000003083120313A3000030A2000030A10046
:101980000030A000D50100300A168A11DE230A12A9
:101990008A1583120313EB0105306B02031CD12C53
:1019A000D22CD32C2C2DD50101300A168A11DE231E
:1019B0000A128A1583120313580883160313AB0007
:1019C00083120313570883160313AA008312031309
:1019D000560883160313A9008312031355088316B0
:1019E0000313A80083120313200883160313280788
:1019F00083120313E2000030031801302107E401D1
:101A00000318E40A83160313290783120313E30060
:101A10000318E40A22086407E5010318E50A83169F
:101A200003132A0783120313E4000318E50A2308AB
:101A30006507831603132B0783120313E50065085C
:101A4000A3006408A2006308A1006208A00001309E
:101A5000FF007F08EB07CC2C0A168A112B210A12F3
:101A60008A15143083120313860017308312031370
:101A7000E3005530E200E20B3B2DE30B3B2D000071
:101A8000003083160313B3000030B2000030B10001
:101A90000030B00083120313D50100300A168A11FA
:101AA000DE230A128A1583120313EB0105306B0241
:101AB000031C5B2D5C2D5D2DCE2DD50101300A164A
:101AC0008A11DE230A128A1583120313580883161B
:101AD0000313A70083120313570883160313A600EA
:101AE00083120313560883160313A50083120313EE
:101AF000550883160313A400300824078312031328
:101B0000E2000030031801308316031331078312FB
:101B10000313E4010318E40A831603132507831251
:101B20000313E3000318E40A831603133208831235
:101B300003136407E5010318E50A83160313260758
:101B400083120313E4000318E50A83160313330812
:101B500083120313650783160313270783120313E6
:101B6000E500650883160313B300831203136408AA
:101B700083160313B200831203136308831603133F
:101B8000B10083120313620883160313B0000130FF
:101B9000FF007F0883120313EB07562D0A168A11E4
:101BA0002B210A128A152430831203138600173062
:101BB00083120313E3005530E200E20BDD2DE30B4B
:101BC000DD2D0000003083160313AF000030AE009F
:101BD0000030AD000030AC0083120313D50100309B
:101BE0000A168A11DE230A128A1583120313EB01E7
:101BF00005306B02031CFD2DFE2DFF2D702ED5012F
:101C000001300A168A11DE230A128A158312031381
:101C1000580883160313A30083120313570883166F
:101C20000313A20083120313560883160313A100A3
:101C300083120313550883160313A0002C082007F2
:101C400083120313E20000300318013083160313DC
:101C50002D0783120313E4010318E40A8316031308
:101C6000210783120313E3000318E40A8316031306
:101C70002E08831203136407E5010318E50A83168F
:101C80000313220783120313E4000318E50A8316E3
:101C900003132F0883120313650783160313230707
:101CA00083120313E500650883160313AF00831244
:101CB0000313640883160313AE008312031363082F
:101CC00083160313AD0083120313620883160313F4
:101CD000AC000130FF007F0883120313EB07F82DDF
:101CE0000030F3000030F2000030F1000530F00069
:101CF0004B08F7004A08F6004908F5004808F400C8
:101D00000A168A1141230A128A15730883120313D3
:101D1000B7007208B6007108B5007008B400003052
:101D2000F3000030F2000030F1000530F000470809
:101D3000F7004608F6004508F5004408F4000A16C6
:101D40008A1141230A128A15730883120313B30000
:101D50007208B2007108B1007008B0000030F300E2
:101D60000030F2000030F1000530F0004308F700C9
:101D70004208F6004108F5004008F4000A168A11EE
:101D800041230A128A15730883120313AF007208E5
:101D9000AE007108AD007008AC000030F3000030F8
:101DA000F2000030F1000530F0003F08F7003E0877
:101DB000F6003D08F5003C08F4000A168A1141239C
:101DC0000A128A15730883120313AB007208AA0063
:101DD0007108A9007008A8000030F3000030F2007C
:101DE0000030F1000530F0003B08F7003A08F6003B
:101DF0003908F5003808F4000A168A1141230A123E
:101E00008A15730883120313A7007208A6007108CD
:101E1000A5007008A4000030F3000030F20000308C
:101E2000F1000530F0002308F7002208F600210831
:101E3000F5002008F4000A168A1141230A128A15B7
:101E4000730883160313AB007208AA007108A90077
:101E50007008A8000030F3000030F2000030F100FC
:101E60000530F0003308F7003208F6003108F500BD
:101E70003008F4000A168A1141230A128A157308E1
:101E800083160313A7007208A6007108A500700846
:101E9000A4000030F3000030F2000030F100053003
:101EA000F0002F08F7002E08F6002D08F5002C088A
:101EB000F4000A168A1141230A128A157308831640
:101EC0000313A3007208A2007108A1007008A0000B
:101ED0003930F1008030F2000A168A1195210A1279
:101EE0008A15831203134C080A168A11EF200A126E
:101EF0008A15831203133708F4003608F3003508F7
:101F0000F2003408F1000A168A110F220A128A150B
:101F1000831203133308F4003208F3003108F2008F
:101F20003008F1000A168A110F220A128A1583124C
:101F300003132F08F4002E08F3002D08F2002C08DC
:101F4000F1000A168A110F220A128A15831203134E
:101F50002B08F4002A08F3002908F2002808F100F1
:101F60000A168A110F220A128A15831203132708F0
:101F7000F4002608F3002508F2002408F1000A16F0
:101F80008A110F220A128A15831603132B08F400F4
:101F90002A08F3002908F2002808F1000A168A111D
:101FA0000F220A128A15831603132708F400260845
:101FB000F3002508F2002408F1000A168A110F2206
:101FC0000A128A15831603132308F4002208F3006B
:101FD0002108F2002008F1000A168A110F220A12C5
:101FE0008A151630F1008030F2000A168A11952108
:101FF0000A128A158312031305110A128A11F62D8B
:10200000FF1B0A2883137F1883170008840A03190B
:10201000FF0A080010308A000408840A820700348E
:1020200047342D344A3452344F34443441345434D8
:102030004534583458345834583458345834583453
:10204000583458345834583458340A340D34003421
:102050004E344E344E344E344A3452344F3443347A
:102060004D34443400344E344E344E344E344A34BD
:1020700052344F34443441345434003447342D34D2
:102080004A3452344F3444344134543445340034A7
:0E2090004A3452344F34413444345134003415
:1021C6008312031394120800831203139813080052
:1021D6008312031394160800F00070088312031389
:1021E60099000000831203130C1EFA28FB28F52819
:1021F6000800831603138711071687129413141702
:102206008312031314121408F039013894000800DD
:10221600F000831203131308700893008316031348
:10222600141C1629172911298312031313080800F1
:1022360083120313910112158C1A222923292729A7
:102246008C1C262927291F2912118C101A08080010
:102256000C30831203138600503083120313E100FF
:10226600E10B3329362983120313D50100300A16F0
:102276008A11DE230A168A110800F3001930F100CC
:102286008030F2000A168A1195210A168A117308FF
:102296000A168A11EF200A168A111630F1008030CC
:1022A600F2000A168A1195210A168A110800831669
:1022B6000313071387172430980010308312031373
:1022C60098000F308316031399007A308312031394
:1022D6009200FF30831603139200831203138C10AF
:1022E600831603138C1608000B300A168A11E32195
:1022F6000A168A1183160313BC1403300A168A11B0
:10230600BB210A168A11053083160313BC00BD01D2
:102316000530BE00BF0105300A168A11BB210A1618
:102326008A110800AA297208FF00710884000A169B
:102336008A1100200A168A110A168A11EF200A1637
:102346008A110130F1070318F20A0030F207720809
:1023560083120313FF00710884000A168A110020F5
:102366000A168A11003A031DB929BA2996290800C6
:10237600F10071080A168A110B210A168A118316B2
:1023860003133C080A168A110B210A168A118316B2
:1023960003133D080A168A110B210A168A118316A1
:1023A60003133E080A168A110B210A168A11831690
:1023B60003133F080A168A110B210A168A11080010
:1023C600F10071080A168A110B210A168A110030CB
:1023D6000A168A110B210A168A1183160313BC00EA
:1023E60000300A168A110B210A168A118316031366
:1023F600BD0000300A168A110B210A168A118316AF
:102406000313BE0000300A168A110B210A168A1120
:1024160083160313BF0008007108F5007208F60062
:102426007308F7007408F8001030F900780DF80CFE
:10243600F70CF60CF50CF90B192A7508FC00710857
:10244600F5007208F6007308F7007408F800083003
:10245600F900780DF80CF70CF60CF50CF90B2C2A94
:102466007508FB007108FA007A080A168A11EF202F
:102476000A168A117B080A168A11EF200A168A1193
:102486007C080A168A11EF200A168A1108000630FF
:10249600831603139F008312031385018514860197
:1024A60087010130831603138500013086008701FA
:1024B6008113023083160313CF004030CE0027303D
:1024C600CD00CD0B642ACE0B642ACF0B642A0A16E4
:1024D6008A11FC200A168A110A168A11EB200A169E
:1024E6008A110A168A115A210A168A110A128A159F
:1024F60000200A168A110B178B1783120313051176
:1025060086130613852A0A128A111228F401FF304F
:102516000A168A110B210A168A110130FF007F085C
:10252600F4070F307402031C992A9A2A8A2AFE306D
:102536000A168A110B210A168A110730F300603039
:10254600F200F20BA42AF30BA42AA92A0B300A16CE
:102556008A11E3210A168A1183160313BC16033067
:102566000A168A11BB210A168A111430F200F20BE0
:10257600BA2ADF30FF007F0883160313BC05033039
:102586000A168A11BB210A168A111430F200F20BC0
:10259600CA2A0B300A168A11E3210A168A118316F3
:1025A60003133C080800F0010A168A111B210A16BB
:1025B6008A11F1004A307106031DE22AE32AE42A51
:1025C600EE2A0130FF007F08F0070A307002031C74
:1025D600ED2AEE2AD72A0A3070020318F32AF42AC3
:1025E6003C2B0A168A111B210A168A11F100523059
:1025F6007106031DFF2A002B3C2B0A168A111B218C
:102606000A168A11F1004F307106031D0B2B0C2B95
:102616003C2B0A168A111B210A168A11F100433037
:102626007106031D172B182B3C2B0A168A111B212A
:102636000A168A11F1000A168A111B210A168A1136
:10264600F1000A168A111B210A168A118316031332
:10265600CC000A168A111B210A168A11F1000A16E5
:102666008A111B210A168A11F100831603134C08DE
:10267600402B8312031318125830080083120313D9
:10268600D001F31F472B482B552BF009F109F2090E
:10269600F309F00A0319F10A0319F20A0319F30AF6
:1026A600D001D00AF71F582B592B682BF409F509CE
:1026B600F609F709F40A0319F50A0319F60A0319C4
:1026C600F70A0130FF007F08D0060030D400003042
:1026D600D3000030D2000030D100730872047104B8
:1026E60070040319772B782BC52BCF01CF0A882BC3
:1026F6000130F8000310F00DF10DF20DF30DF80B9B
:102706007D2B0130FF007F08CF07F31F8B2B8C2B0F
:102716007B2B0130F8000310D10DD20DD30DD40D53
:10272600F80B8E2B73087702031DA32B7208760213
:10273600031DA32B71087502031DA32B70087402D9
:10274600031CA62BA72BB62B7008F4027108031CDA
:10275600710FF5027208031C720FF6027308031C50
:10276600730FF702511401300310F30CF20CF10C45
:10277600F00CFF3E031DB72B0130CF02031DC42B07
:10278600C52B8C2B50080319C92BCA2BD52BD10965
:10279600D209D309D409D10A0319D20A0319D30AD3
:1027A6000319D40A5408F3005308F2005208F10042
:1027B6005108F0000800F90083120313071AE42BEE
:1027C600E52BDF2B55080A168A11E3210A168A1112
:1027D6000030FD000030FC000030FB000030FA0045
:1027E60079080319F72BF82B952C7A088312031313
:1027F600D9007B08DA007C08DB007D08DC00831644
:1028060003133C0883120313DD00DE01DF01E00140
:1028160018300310DD0DDE0DDF0DE00DFF3E031D4C
:102826000C2C5D08D9045E08DA045F08DB04600836
:10283600DC045C08FD005B08FC005A08FB00590834
:10284600FA007A08D9007B08DA007C08DB007D08EC
:10285600DC00831603133D0883120313DD00DE013B
:10286600DF01E00110300310DD0DDE0DDF0DE00DA0
:10287600FF3E031D362C5D08D9045E08DA045F08A6
:10288600DB046008DC045C08FD005B08FC005A08F9
:10289600FB005908FA007A08D9007B08DA007C08A0
:1028A600DB007D08DC00831603133E088312031346
:1028B600DD00DE01DF01E00108300310DD0DDE0D75
:1028C600DF0DE00DFF3E031D602C5D08D9045E0898
:1028D600DA045F08DB046008DC045C08FD005B08C2
:1028E600FC005A08FB005908FA000030F3000030DB
:1028F600F2000130F1000030F0007D08F7007C089E
:10290600F6007B08F5007A08F4000A168A114123BE
:102916000A168A117308FD007208FC007108FB0094
:102926007008FA007D0883120313D8007C08D700CC
:102936007B08D6007A08D500080037300A168A11B7
:1029460040210A168A110A128A11F62D38300A1603
:102956008A1140210A168A11033083120313CE000E
:102966008316031301138B100B16A62C05151030B6
:102976008F0006308E00313090000C108316031342
:102986000C1439300A168A1140210A168A11C030F1
:102996000A168A110B210A168A1183120313CC0117
:1029A600CD010130F1008030F2000A168A1195211E
:1029B6000A168A110A168A112B210A168A1138302C
:1029C6008312031386008617173083120313E3005E
:1029D6005530E200E20BED2CE30BED2C000000304D
:1029E60083120313CB000030CA000030C900003048
:1029F600C800D50100300A168A11DE230A168A118C
:102A060083120313EB0105306B02031C0B2D0C2DF7
:102A16000D2D462DD50101300A168A11DE230A1620
:102A26008A11831203135808B7005708B6005608D0
:102A3600B5005508B40048083407E2000030031812
:102A460001304907E4010318E40A3507E3000318D7
:102A5600E40A4A086407E5010318E50A3607E400B4
:102A66000318E50A4B0865073707E5006508CB003C
:102A76006408CA006308C9006208C8000130FF0084
:102A86007F08EB07062D86130A168A112B210A16D4
:102A96008A1118308312031386001730831203132A
:102AA600E3005530E200E20B562DE30B562D0000F5
:102AB600003083120313C7000030C6000030C50083
:102AC6000030C400D50100300A168A11DE230A162A
:102AD6008A1183120313EB0105306B02031C742D5C
:102AE600752D782D0A168A11C62ED50101300A16C3
:102AF6008A11DE230A168A11831203135808B300BB
:102B06005708B2005608B1005508B000440830070F
:102B1600E2000030031801304507E4010318E40A17
:102B26003107E3000318E40A46086407E5010318C1
:102B3600E50A3207E4000318E50A47086507330784
:102B4600E5006508C7006408C6006308C50062089A
:102B5600C4000130FF007F08EB076F2D8B1CB42DDE
:102B6600B72D0A128A11432E0B1EBA2DBB2DB42D7A
:102B76008B100B120A128A112D2E4D03031DC42D24
:102B8600C72D0A128A11F62D051510308F00063052
:102B96008E00313090000C10831603130C14831230
:102BA6000313CC01861786132F30F1008030F20014
:102BB6000A168A1195210A168A11C030F1000030D2
:102BC600F2000A168A1195210A168A111630F100AA
:102BD6008030F2000A168A1195210A168A110A1601
:102BE6008A112B210A168A113830831203138600A4
:102BF6008617173083120313E3005530E200E20B09
:102C0600022EE30B022E0000003083120313CB00CA
:102C16000030CA000030C9000030C800D5010030BD
:102C26000A168A11DE230A168A1183120313EB0190
:102C360005306B02031C202E212E222E5B2ED50181
:102C460001300A168A11DE230A168A11831203132B
:102C56005808B7005708B6005608B5005508B4001E
:102C660048083407E2000030031801304907E40140
:102C76000318E40A3507E3000318E40A4A08640760
:102C8600E5010318E50A3607E4000318E50A4B08D0
:102C960065073707E5006508CB006408CA006308C6
:102CA600C9006208C8000130FF007F08EB071B2E31
:102CB60086130A168A112B210A168A1118308312D6
:102CC60003138600173083120313E3005530E20026
:102CD600E20B6B2EE30B6B2E000000308312031306
:102CE600C7000030C6000030C5000030C400D50162
:102CF60000300A168A11DE230A168A11831203137C
:102D0600EB0105306B02031C892E8A2E8D2E0A12CA
:102D16008A153829D50101300A168A11DE230A16CA
:102D26008A11831203135808B3005708B2005608D5
:102D3600B1005508B00044083007E200003003181F
:102D460001304507E4010318E40A3107E3000318DC
:102D5600E40A46086407E5010318E50A3207E400B9
:102D66000318E50A470865073307E5006508C70045
:102D76006408C6006308C5006208C4000130FF008D
:102D86007F08EB07842E0A168A112B210A168A1150
:102D96002830831203138600173083120313E300CF
:102DA6005530E200E20BD52EE30BD52E00000030A5
:102DB60083120313C3000030C2000030C10000308C
:102DC600C000D50100300A168A11DE230A168A11C0
:102DD60083120313EB0105306B02031CF32EF42E52
:102DE600F52E2E2FD50101300A168A11DE230A167A
:102DF6008A11831203135808AF005708AE0056080D
:102E0600AD005508AC0040082C07E200003003185E
:102E160001304107E4010318E40A2D07E300031813
:102E2600E40A42086407E5010318E50A2E07E400F0
:102E36000318E50A430865072F07E5006508C30080
:102E46006408C2006308C1006208C0000130FF00C8
:102E56007F08EB07EE2E0A168A112B210A168A1115
:102E66000830831203138600173083120313E3001E
:102E76005530E200E20B3D2FE30B3D2F0000003002
:102E860083120313BF000030BE000030BD000030C7
:102E9600BC00D50100300A168A11DE230A168A11F3
:102EA60083120313EB0105306B02031C5B2F5C2FAF
:102EB6005D2F962FD50101300A168A11DE230A16D8
:102EC6008A11831203135808AB005708AA00560844
:102ED600A9005508A8003C082807E200003003189E
:102EE60001303D07E4010318E40A2907E30003184B
:102EF600E40A3E086407E5010318E50A2A07E40028
:102F06000318E50A3F0865072B07E5006508BF00BB
:102F16006408BE006308BD006208BC000130FF0003
:102F26007F08EB07562F0A168A112B210A168A11DB
:102F36000430831203138600173083120313E30051
:102F46005530E200E20BA52FE30BA52F0000003061
:102F560083120313BB000030BA000030B900003002
:102F6600B800D50100300A168A11DE230A168A1126
:102F760083120313EB0105306B02031CC32FC42F0E
:102F8600C72F0A128A15A42CD50101300A168A11F8
:102F9600DE230A168A11831203135808A70057085E
:102FA600A6005608A5005508A40038082407E20024
:102FB6000030031801303907E4010318E40A250735
:102FC600E3000318E40A3A086407E5010318E50A72
:102FD6002607E4000318E50A3B0865072707E5000E
:102FE6006508BB006408BA006308B9006208B80047
:0A2FF6000130FF007F08EB07BE2F3B
:08400000FF3FFF3FFF3FFF3FC0
:02400E00323F3F
:00000001FF
